:100000000C945F000C946D080C9494080C94870079
:100010000C9487000C9487000C9487000C94870044
:100020000C9487000C9487000C9487000C94870034
:100030000C9487000C94BC060C9487000C948700E9
:100040000C94BB080C9487000C94A30B0C94D50B58
:100050000C9487000C9487000C9487000C94870004
:100060000C9487000C948700000000080002010037
:100070000003040700000000000000000102040863
:100080001020408001020408102001020408102002
:10009000040404040404040402020202020203032E
:1000A0000303030300000000250028002B000000CC
:1000B0000000240027002A008C05050CA30511244C
:1000C0001FBECFEFD8E0DEBFCDBF14E0A0E0B1E0AF
:1000D000E6EEF3E202C005900D92A635B107D9F71E
:1000E00025E0A6E5B4E001C01D92A535B207E1F711
:1000F00010E0CCEBD0E004C02297FE010E94540F28
:10010000C83BD107C9F70E94490C0C94E6110C9426
:10011000000081E0809361040895CF92DF92EF9216
:10012000FF926B017C0163E171E084EB94E00E943B
:100130009A0C84EB94E00E94A30CF601E152FC4F70
:1001400060E080810E94280A81E080936304FF9030
:10015000EF90DF90CF9008956BE171E084EB94E035
:100160000E949A0C84EB94E00E94A30C60E085E06E
:100170000E94280A81E0809363040895CF92DF9261
:10018000EF92FF926B017C0162E271E084EB94E0FC
:100190000E949A0C84EB94E00E94A30CF601E152B9
:1001A000FC4F61E080810E94280A81E08093630413
:1001B000FF90EF90DF90CF9008956BE271E084EBB9
:1001C00094E00E949A0C84EB94E00E94A30C61E0FE
:1001D00085E00E94280A81E0809363040895CF920D
:1001E000DF92EF92FF92CF93DF936B017C0163E389
:1001F00071E084EB94E00E949A0C84EB94E00E94FE
:10020000A30C69E371E084EB94E00E949A0C2AE06D
:1002100030E0B701A60184EB94E00E941A0D84EB54
:1002200094E00E94A30CC0910601D091070160E404
:1002300071E084EB94E00E949A0C4AE050E0BE0129
:1002400084EB94E00E94640D84EB94E00E94A30C84
:10025000C0925D04D0925E04E0925F04F09260046C
:1002600010926204DF91CF91FF90EF90DF90CF90DA
:1002700008956DE471E084EB94E00E949A0C84EBA5
:1002800094E00E94A30C8091570490915804009729
:1002900011F00E945A0C109258041092570481E0F9
:1002A00080936304089580915D0490915E04A09111
:1002B0005F04B091600440910601509107016627E8
:1002C00057FD6095762F841B950BA60BB70B80937B
:1002D0005D0490935E04A0935F04B09360048091EA
:1002E0005D0490915E04A0915F04B09160041816C3
:1002F00019061A061B069CF081E080936204809127
:10030000080190910901A0910A01B0910B0180931D
:100310005D0490935E04A0935F04B093600408951D
:10032000CF93DF93EC0180916B04811106C088812B
:100330000E94A9099A83898306C063E771E084EB70
:1003400094E00E94A70C6BE571E084EB94E00E94BE
:100350009A0C69817A814AE050E084EB94E00E9433
:100360006C0D89819A81DF91CF910895CF92DF92B0
:10037000EF92FF920F931F93CF93DF936B01209126
:10038000570430915804DB010D911C9146E0409FC9
:10039000F001419FF00D1124A9014E0F5F1F6DE880
:1003A00070E0EA0179836883AA2797FDA095BA2FA8
:1003B0008A839B83AC83BD83AF014A5F5F4F420F4B
:1003C000531F6CEA70E0EA01798368831A821B820A
:1003D0001C821D827F01DCE0ED0EF11CE20EF31E9B
:1003E0004FEE50E0E7015983488340E150E060E080
:1003F00070E04A835B836C837D83AF014E5E5F4F09
:10040000420F531F6DED70E0EA01798368831A8211
:100410001B821C821D827896E20FF31F2EEB30E0C8
:100420003183208382839383A483B5830C5F1F4F22
:10043000F60111830083DF91CF911F910F91FF90FF
:10044000EF90DF90CF900895CF93DF93C0E0D0E09E
:10045000E0916C04F0916D04EC0FFD1F61E0808170
:100460000E94280A2196C430D10591F7DF91CF91DF
:100470000895FF920F931F93CF93DF9340ED57E0C2
:1004800060E070E084E794E00E94A10720E835E294
:1004900040E050E064EB74E084E794E00E94B4072D
:1004A00084E794E00E949E076EEE71E08091A504BF
:1004B0009091A6040E949A0C6AE070E080E090E0BF
:1004C0000E94340941E060E084E794E00E941F0844
:1004D00026E040E855E260E070E084EB94E00E94A2
:1004E000410B40E550E060E070E084EB94E00E9456
:1004F000980D61E085E00E94EF0961E08AE00E94CA
:10050000EF0984E090E00E94580C90936D04809372
:100510006C0433E0F32EFC01F082E0916C04F09166
:100520006D0404E00183E0916C04F0916D0485E0BA
:1005300082838AE083830E94240289E090E00E9403
:10054000580CFC011FEFCFEFDFEFD283C183138381
:10055000D583C4831683D087C78390935C0480932C
:100560005B048FE08083E0915B04F0915C0480E1A8
:1005700083838EE0868388E090E00E94580CFC0123
:100580001183D383C2831583D783C6831483909347
:100590005A0480935904A0915B04B0915C04F082EA
:1005A0002D913D914C911297218332834383048393
:1005B00013962D913D914C9125833683478361E0BD
:1005C00083E00E94EF09E0915904F0915A0461E040
:1005D00084810E94EF0960E080910C010E94EF0984
:1005E00083B7817F83BF8091080190910901A09119
:1005F0000A01B0910B0180935D0490935E04A09377
:100600005F04B0936004A0910601B091070120E45B
:1006100032E44FE050E00E944A0FAB01BC018EE68D
:1006200094E00E944B072FEF3FEFA90163E571E0D3
:100630008EE694E00E945B0781E080936B04109249
:10064000580410925704809363041092560460E09B
:1006500072E084EB94E0DF91CF911F910F91FF90B6
:100660000C94A70CEF92FF920F931F93CF93DF93FD
:1006700060E08AE00E94280A69E172E084EB94E07D
:100680000E94A70C60EF73E084EB94E00E94A70C3B
:1006900000E010E0C0E0D0E064E272E084EB94E0BF
:1006A0000E949A0C4AE050E0BE0184EB94E00E9464
:1006B000640D60E372E084EB94E00E94A70CE0908C
:1006C0005904F0905A04E00EF11E63E372E084EBEB
:1006D00094E00E94A70CC70101960E94900160EF70
:1006E00073E084EB94E00E94A70C21960C5F1F4FEF
:1006F000C230D10589F667E572E084EB94E00E9490
:10070000A70C80915B0490915C0406960E94900176
:1007100060EF73E084EB94E00E94A70C61E08AE054
:100720000E94280A60E772E084EB94E0DF91CF91A9
:100730001F910F91FF90EF900C94A70CAF92BF9276
:10074000CF92DF92EF92FF920F931F93CF93DF939D
:1007500000D000D000D0CDB7DEB78C0161E070E0F2
:100760000E94AA0E803329F410926B0466ED72E0A9
:100770008CC063E7C8010E94C80EF801248135814E
:10078000AC014F5F5F4FB801CE0101960E94CC0EC5
:10079000CE0101960E94110F6B017C01CE010196E2
:1007A0000E949E0D64EE72E084EB94E00E949A0C2D
:1007B0004AE050E0B60184EB94E00E946C0D61E0E9
:1007C00070E0C8010E94AA0E863609F03FC06BEEA9
:1007D00072E084EB94E00E949A0C62E070E0C80141
:1007E0000E94AA0E682F84EB94E00E94B90CA0909E
:1007F0005904B0905A0462E070E0C8010E94AA0E49
:10080000F50194E08902E00DF11D1124E05CF1098D
:10081000D382C282A0905904B0905A0462E070E082
:10082000C8010E94AA0EE4E08E02A00CB11C1124A3
:10083000C501805C91095C0163E372E084EB94E0A4
:100840000E94A70CC50101960E94900161E070E032
:10085000C8010E94AA0E873781F46BEF72E084EB27
:1008600094E00E949A0C80915B0490915C04FC01DE
:10087000D086C78206960E94900166E073E084EB02
:1008800094E00E94A70C61E173E084EB94E00E9485
:10089000A70C26960FB6F894DEBF0FBECDBFDF9132
:1008A000CF911F910F91FF90EF90DF90CF90BF906D
:1008B000AF90089583B7816083BF40E050E069E85E
:1008C00070E080E00E943B08E4E6F0E08081816017
:1008D0008083808184608083808180628083808146
:1008E0008064808380818068808383B7816083BFD8
:1008F000889583B78E7F83BF83B78E7F83BF8081C8
:100900008F77808380818F7B808380818F7D8083C0
:1009100080818B7F808380818E7F808380E00E94B6
:100920005B0861E273E084EB94E00E94A70C60E551
:1009300070E080E090E00C943409CF92DF92EF9267
:10094000FF920F931F93CF93DF9300D0CDB7DEB705
:10095000109256040E943203C12CD12CE12CF12CB0
:1009600002E010E0E0915904F0915A04EC0DFD1DF5
:10097000828193818D3B924094F00B5F1F4F68E220
:1009800073E084EB94E00E949A0C4AE050E0B701D7
:1009900084EB94E00E94640D64E373E00FC068E2AE
:1009A00073E084EB94E00E949A0C4AE050E0B701B7
:1009B00084EB94E00E94640D64E473E084EB94E0C3
:1009C0000E949A0C84EB94E00E94A30C64E170E016
:1009D00080E090E00E9434098FEFE81AF80A24E0E2
:1009E000C20ED11C88E0C816D10409F0BBCF6CE55B
:1009F00073E084EB94E00E949A0C4AE050E0B80166
:100A000084EB94E00E94640D84EB94E00E94A30CBC
:100A1000013425E1120738F426E0209FC001219F10
:100A2000900D112402C08FEF9FEF0E94580C9093FD
:100A30005804809357041A821982E0915904F09166
:100A40005A04828193818D3B924064F0BE016F5FB6
:100A50007F4F80E090E00E94B60189819A810196E3
:100A60009A838983E0915904F0915A048681978191
:100A70008D3B924064F0BE016F5F7F4F81E090E05C
:100A80000E94B60189819A8101969A838983209177
:100A900057043091580486E0809FA001819F500D3B
:100AA0001124FA013C97E20FF31F8FEE90E091833F
:100AB00080838091080190910901A0910A01B09171
:100AC0000B0182839383A483B583FA013697E20FE7
:100AD000F31F89E391E09183808312821382148251
:100AE000158268E673E084EB94E00E949A0C84EB34
:100AF00094E00E94A30C64E170E080E090E00E942A
:100B000034090F900F90DF91CF911F910F91FF90BB
:100B1000EF90DF90CF90089560EF73E084E694E06B
:100B20000E940C0E8091080190910901A0910A0188
:100B3000B0910B0180935D0490935E04A0935F04D9
:100B4000B0936004089584E694E00C949E0D60EFE9
:100B500073E084E694E00E94420E84EB94E00E94ED
:100B60005E0A1816190664F484EB94E00E94770A72
:100B700080936A04682F84E694E00E94860EEDCF8D
:100B800008951F93CF93DF9300D000D000D0CDB74E
:100B9000DEB762E370E080E090E00E94340967E72E
:100BA00073E084EB94E00E949A0C84EB94E00E9442
:100BB000A30C809161048823E1F01092610460E845
:100BC00073E084EB94E00E949A0C84EB94E00E9422
:100BD000A30C0E94A70564E674E0CE0101960E9472
:100BE000390ECE0101960E949E03CE0101960E940D
:100BF0009E0D80916204811105C080916304882359
:100C000009F473C065EA73E084EB94E00E949A0CE7
:100C100084EB94E00E94A30C10926304109262048F
:100C20008091570490915804892B61F46AE873E02D
:100C300084EB94E00E949A0C84EB94E00E94A30C55
:100C40000E949D041091560468E973E084EB94E0DF
:100C50000E949A0C4AE050E0612F84EB94E00E94DD
:100C6000910D84EB94E00E94A30C80915604E091D6
:100C70005704F091580496E0899FE00DF11D11246E
:100C800062817381848195810190F081E02D0995C5
:100C9000109156041F5F1093560466E973E084EBCD
:100CA00094E00E949A0C612F70E0615071094AE053
:100CB00050E084EB94E00E94640D84EB94E00E9489
:100CC000A30C6EE973E084EB94E00E949A0C84EB31
:100CD00094E00E94A30C26960FB6F894DEBF0FBED8
:100CE000CDBFDF91CF911F91089561ED73E084EB4B
:100CF00094E00E949A0C84EB94E00E94A30C109262
:100D0000630440915D0450915E0460915F047091B2
:100D100060042AE030E084EB94E00E941A0D6EEB50
:100D200073E084EB94E00E949A0C84EB94E00E94C0
:100D3000A30C60910601709107014AE050E084EB3A
:100D400094E00E94640D63EC73E084EB94E00E94F5
:100D50009A0C84EB94E00E94A30C62E370E080E0C4
:100D600090E00E9434090E945A0460ED73E084EB25
:100D700094E00E949A0CA1CF1F920F920FB60F928F
:100D800011242F933F934F935F936F937F938F9390
:100D90009F93AF93BF93EF93FF93E0917204F09111
:100DA00073040995FF91EF91BF91AF919F918F913E
:100DB0007F916F915F914F913F912F910F900FBE57
:100DC0000F901F901895FC01A3E0440F551F661F5C
:100DD000771FAA95D1F74115510581E06807710584
:100DE00014F481E00EC033E07595679557954795EB
:100DF0003A95D1F74115510581E0680771051CF45A
:100E000082E0828331C023E07595679557954795B9
:100E10002A95D1F74115510581E06807710514F451
:100E200083E0EFCF92E075956795579547959A9532
:100E3000D1F74115510581E06807710514F484E08C
:100E4000E0CF82E075956795579547958A95D1F7DC
:100E500085E082834115510581E06807710524F022
:100E60004FEF5FEF60E070E08FB78383F8945183BA
:100E70004083509387004093860083818FBF809189
:100E80008100887F80938100809181009281892BED
:100E90008093810008951092800020E120938100CA
:100EA0000C94E306E1E8F0E02081DC0112968C91DD
:100EB000282B208308950F931F93CF93DF93EC018A
:100EC0008B01BA01A901141615061606170614F4AB
:100ED0000E94E3061D830C8381E080936F00CE01A6
:100EE000DF91CF911F910F910C9452070F931F9395
:100EF000CF93DF93EC01662359F00E9405096983C3
:100F00007A838B839C83DF91CF911F910F910895FA
:100F10000E94050909811A812B813C81601B710B9C
:100F2000820B930B613271058105910530F763E007
:100F300070E080E090E00E943409EACF60E00C9419
:100F40007607FC0113AA14AA15AA16AA1182128206
:100F500013821482411551056105710521F0CB0101
:100F6000BA010C9434090895FB01BA01A901DC010E
:100F7000D296FC93EE93D19726E0CF010C94410BCF
:100F80001F93CF93DF93EC01162F61EE73E089A9D5
:100F90009AA90E949A0C4AE050E0612F89A99AA967
:100FA0000E94910D68EE73E089A99AA90E949A0C9B
:100FB00062E370E080E090E0DF91CF911F910C94AC
:100FC00034091F93CF93DF93EC01162F8D81882373
:100FD00089F189A99AA9DC01ED91FC910480F58140
:100FE000E02D0995892BA9F307C02637310519F1A2
:100FF0002835310509F41D8289A99AA9DC01ED91F2
:10100000FC910480F581E02D09951816190694F4D9
:1010100089A99AA9DC01ED91FC910680F781E02D68
:1010200009959C01332723363105F9F6612FCE014E
:101030000E94C00783E6DF91CF911F9108950F931F
:101040001F93CF93DF931F92CDB7DEB78C0166233A
:1010500049F081E0F801858360E0C80149830E947E
:10106000E1074981F80145830F90DF91CF911F91EE
:101070000F91089508958230E8F4E82FF0E0EE0F24
:10108000FF1FE25FFE4F71836083813041F08091EA
:1010900069008C7F842B80936900E89A0895809181
:1010A0006900440F551F440F551F837F842B809385
:1010B0006900E99A0895823078F4813011F0E89857
:1010C00001C0E998E82FF0E0EE0FFF1FE25FFE4F4E
:1010D0008AE398E09183808308951F920F920FB660
:1010E0000F9211242F933F934F935F936F937F93AE
:1010F0008F939F93AF93BF93EF93FF93E0910E0174
:10110000F0910F010995FF91EF91BF91AF919F91E0
:101110008F917F916F915F914F913F912F910F90A0
:101120000FBE0F901F9018951F920F920FB60F923F
:1011300011242F933F934F935F936F937F938F93DC
:101140009F93AF93BF93EF93FF93E0911001F091C2
:1011500011010995FF91EF91BF91AF919F918F91EF
:101160007F916F915F914F913F912F910F900FBEA3
:101170000F901F9018951F920F920FB60F92112487
:101180002F933F938F939F93AF93BF938091AC0422
:101190009091AD04A091AE04B091AF043091AB0436
:1011A00023E0230F2D3720F40196A11DB11D05C0AA
:1011B00026E8230F0296A11DB11D2093AB04809356
:1011C000AC049093AD04A093AE04B093AF048091AF
:1011D000B0049091B104A091B204B091B30401960F
:1011E000A11DB11D8093B0049093B104A093B204EB
:1011F000B093B304BF91AF919F918F913F912F9185
:101200000F900FBE0F901F9018952FB7F894609114
:10121000AC047091AD048091AE049091AF042FBFE7
:1012200008953FB7F8948091B0049091B104A091D3
:10123000B204B091B30426B5A89B05C02F3F19F0A6
:101240000196A11DB11D3FBF6627782F892F9A2FC8
:10125000620F711D811D911D42E0660F771F881F6F
:10126000991F4A95D1F708958F929F92AF92BF929E
:10127000CF92DF92EF92FF926B017C010E941109E5
:101280004B015C01C114D104E104F104F1F00E94AE
:101290001C0F0E941109681979098A099B09683E87
:1012A00073408105910570F321E0C21AD108E1086D
:1012B000F10888EE880E83E0981EA11CB11CC114B1
:1012C000D104E104F10429F7DDCFFF90EF90DF9026
:1012D000CF90BF90AF909F908F900895789484B5F1
:1012E000826084BD84B5816084BD85B5826085BD22
:1012F00085B5816085BDEEE6F0E080818160808308
:10130000E1E8F0E0108280818260808380818160EA
:101310008083E0E8F0E0808181608083E1EBF0E0B1
:10132000808184608083E0EBF0E080818160808355
:10133000EAE7F0E08081846080838081826080833E
:101340008081816080838081806880831092C10069
:1013500008958E3008F08E5087702091120190E42D
:10136000299F90011124822B80937C0080917A0028
:10137000806480937A0080917A0086FDFCCF809112
:1013800078002091790090E0922B0895833081F0CD
:1013900028F4813099F08230A1F008958730A9F0C7
:1013A0008830B9F08430D1F4809180008F7D03C003
:1013B000809180008F7780938000089584B58F7727
:1013C00002C084B58F7D84BD08958091B0008F7771
:1013D00003C08091B0008F7D8093B0000895CF93BB
:1013E000DF9390E0FC01E458FF4F2491FC01E057AB
:1013F000FF4F8491882349F190E0880F991FFC01E9
:10140000E255FF4FA591B4918C559F4FFC01C591BA
:10141000D4919FB7611108C0F8948C9120958223D4
:101420008C93888182230AC0623051F4F8948C91A5
:10143000322F309583238C938881822B888304C03C
:10144000F8948C91822B8C939FBFDF91CF9108955C
:101450000F931F93CF93DF931F92CDB7DEB7282F43
:1014600030E0F901E859FF4F8491F901E458FF4F4A
:101470001491F901E057FF4F04910023C9F088232C
:1014800021F069830E94C6096981E02FF0E0EE0F28
:10149000FF1FEC55FF4FA591B4919FB7F8948C9125
:1014A000611103C01095812301C0812B8C939FBFD4
:1014B0000F90DF91CF911F910F910895FC01818DC5
:1014C000228D90E0805C9F4F821B91098F7399273A
:1014D0000895FC01918D828D981731F0828DE80F6F
:1014E000F11D858D90E008958FEF9FEF0895FC0129
:1014F000918D828D981761F0828DDF01A80FB11D4B
:101500005D968C91928D9F5F9F73928F90E008956E
:101510008FEF9FEF08958BEF9BE0892B49F080E0E0
:1015200090E0892B29F00E94FB0B81110C940000A4
:101530000895FC01848DDF01A80FB11DA35ABF4F90
:101540002C91848D90E001968F739927848FA689C2
:10155000B7892C93A089B1898C9180648C93938DE9
:10156000848D981306C00288F389E02D80818F7DD9
:1015700080830895CF93DF93EC01888D8823C9F091
:10158000EA89FB89808185FD05C0A889B9898C918C
:1015900086FD0FC00FB607FCF5CF808185FFF2CF27
:1015A000A889B9898C9185FFEDCFCE010E94990A57
:1015B000E7CFDF91CF910895CF92DF92FF920F9303
:1015C0001F93CF93DF931F92CDB7DEB76C0181E0FD
:1015D000D60158968C9358975B969C915B975C9636
:1015E0008C915C97981307C05096ED91FC915197A0
:1015F000808185FD2EC0F601038D10E00F5F1F4F27
:101600000F731127F02EF601848DF81211C00FB65A
:1016100007FCF9CFD6015096ED91FC91519780814E
:1016200085FFF1CFC60169830E94990A6981EBCFDA
:10163000838DE80FF11DE35AFF4F6083D6015B965F
:101640000C935B975296ED91FC9153978081806249
:101650000CC0D6015696ED91FC9157976083509639
:10166000ED91FC91519780818064808381E090E0CE
:101670000F90DF91CF911F910F91FF90DF90CF904E
:101680000895BF92CF92DF92EF92FF92CF93DF93B4
:10169000EC016A017B01B22EE889F98982E080833E
:1016A000411581EE580761057105A1F060E079E010
:1016B0008DE390E0A70196010E941D0F2150310992
:1016C000410951095695479537952795211580E190
:1016D000380798F0E889F989108260E874E88EE1AB
:1016E00090E0A70196010E941D0F21503109410988
:1016F00051095695479537952795EC85FD8530839B
:10170000EE85FF852083188EEC89FD89B082EA89F9
:10171000FB89808180618083EA89FB898081886080
:101720008083EA89FB89808180688083EA89FB89DC
:1017300080818F7D8083DF91CF91FF90EF90DF904C
:10174000CF90BF9008951F920F920FB60F92112461
:101750002F938F939F93EF93FF93E091C404F091A5
:10176000C5048081E091CA04F091CB0482FD12C0CF
:1017700090818091CD048F5F8F732091CE0482176A
:1017800051F0E091CD04F0E0EC54FB4F958F809345
:10179000CD0401C08081FF91EF919F918F912F9196
:1017A0000F900FBE0F901F9018951F920F920FB6BB
:1017B0000F9211242F933F934F935F936F937F93D7
:1017C0008F939F93AF93BF93EF93FF9384EB94E03A
:1017D0000E94990AFF91EF91BF91AF919F918F91D4
:1017E0007F916F915F914F913F912F910F900FBE1D
:1017F0000F901F90189584EB94E00E945E0A21E000
:10180000892B09F420E0822F08951092B7041092DA
:10181000B60488EE93E0A0E0B0E08093B804909323
:10182000B904A093BA04B093BB048DE394E0909301
:10183000B5048093B40485EC90E09093C104809348
:10184000C00484EC90E09093C3048093C20480ECC5
:1018500090E09093C5048093C40481EC90E0909351
:10186000C7048093C60482EC90E09093C9048093EF
:10187000C80486EC90E09093CB048093CA04109245
:10188000CD041092CE041092CF041092D00408958B
:1018900008950E946E090E94480C0E943902CBE80C
:1018A000DAE00E94C1052097E1F30E948B0AF9CF8C
:1018B0000C94670F0C94FF0FCF92DF92EF92FF9280
:1018C0000F931F93CF93DF937C016A01EB0100E03C
:1018D00010E00C151D0571F06991D701ED91FC9197
:1018E0000190F081E02DC7010995892B19F00F5F58
:1018F0001F4FEFCFC801DF91CF911F910F91FF9044
:10190000EF90DF90CF9008956115710581F0DB01B4
:101910000D900020E9F7AD0141505109461B570BCE
:10192000DC01ED91FC910280F381E02D099480E0CF
:1019300090E008950C94840CDC01ED91FC910190F1
:10194000F081E02D09946EEE73E00C94840C0F93FB
:101950001F93CF93DF93EC010E94840C8C01CE0186
:101960000E94A30C800F911FDF91CF911F910F91C7
:1019700008950F931F93CF93DF93EC010E949C0C6B
:101980008C01CE010E94A30C800F911FDF91CF919B
:101990001F910F9108958F929F92AF92BF92DF9205
:1019A000EF92FF920F931F93CF93DF93CDB7DEB7E4
:1019B000A1970FB6F894DEBF0FBECDBF7C01F42F08
:1019C000D52ECB0119A2223008F42AE08E010F5D3A
:1019D0001F4F822E912CA12CB12C6F2F7D2DA50194
:1019E00094010E941D0FF22FD32ECA01015011093C
:1019F0006A3014F4E0E301C0E7E3E60FD801EC93AA
:101A0000232B242B252B49F7B801C7010E94840CF6
:101A1000A1960FB6F894DEBF0FBECDBFDF91CF9178
:101A20001F910F91FF90EF90DF90BF90AF909F902C
:101A30008F900895CF92DF92EF92FF920F931F93B2
:101A4000CF93DF93EC016A017B012115310579F415
:101A5000E881F9810190F081E02D642FDF91CF9131
:101A60001F910F91FF90EF90DF90CF9009942A3053
:101A70003105E9F477FF1AC06DE20E949C0C8C01DD
:101A800044275527BA014C195D096E097F092AE0E0
:101A9000CE010E94CB0C800F911FDF91CF911F913F
:101AA0000F91FF90EF90DF90CF9008952AE0B7015B
:101AB000A601CE01DF91CF911F910F91FF90EF9082
:101AC000DF90CF900C94CB0C9A01AB01662757FDA9
:101AD0006095762F0C941A0D0F931F93CF93DF937D
:101AE000EC019A01AB01662757FD6095762F0E94A5
:101AF0001A0D8C01CE010E94A30C800F911FDF9163
:101B0000CF911F910F9108952115310541F4DC010A
:101B1000ED91FC910190F081E02D642F09940C94DB
:101B2000CB0C9A01462F50E060E070E00C94840DDD
:101B3000FC0144835583668377830895FC0180818B
:101B400091810C94FF0FCF93DF93EC0188819981F1
:101B5000009711F00E94FF0F198218821D821C82CB
:101B60001B821A82DF91CF9108950F931F93CF9319
:101B7000DF93EC018B016F5F7F4F888199810E9419
:101B80008E10009731F0998388831B830A8381E04C
:101B900001C080E0DF91CF911F910F910895CF9305
:101BA000DF93EC0188819981892B29F08A819B81BF
:101BB0008617970760F4CE010E94B50D882341F087
:101BC0008C819D81892B19F4E881F981108281E053
:101BD000DF91CF910895EF92FF920F931F93CF93D0
:101BE000DF93EC017B018A01BA010E94CF0D8111C4
:101BF00004C0CE010E94A30D07C01D830C83B70152
:101C0000888199810E949311CE01DF91CF911F911C
:101C10000F91FF90EF900895FC01118210821382C2
:101C20001282158214826115710559F0FB01019031
:101C30000020E9F7AF0141505109461B570B0C94A6
:101C4000EB0D0895CF93DF93EC01FB018617970707
:101C500061F0608171816115710529F044815581C0
:101C60000E94EB0D02C00E94A30DCE01DF91CF9127
:101C70000895FC011182108213821282158214824F
:101C80000C94220ECF93DF93EC016115710561F086
:101C9000FB0101900020E9F7AF0141505109461BBB
:101CA000570B0E94EB0D02C00E94A30DCE01DF91E5
:101CB000CF910895EF92FF920F931F93CF93DF93ED
:101CC000EC017B010C811D816115710511F480E02F
:101CD00016C04115510591F0040F151FB8010E945F
:101CE000CF0D8823A1F3288139818C819D81B70193
:101CF000820F931F0E9493111D830C8381E0DF915B
:101D0000CF911F910F91FF90EF900895CF93DF93A4
:101D100000D0CDB7DEB769831A8241E050E0BE0142
:101D20006F5F7F4F0E945A0E0F900F90DF91CF91FF
:101D30000895FC01248135816217730748F480817E
:101D40009181009729F0FC01E60FF71F808108952B
:101D500080E008950C94990ECF93DF93FC01848169
:101D600095814817590778F4C081D181772767FD9D
:101D70007095CE01840F951F0E948811009719F06D
:101D80008C1B9D0B02C08FEF9FEFDF91CF910895C9
:101D900040E050E00C94AC0EBF92CF92DF92EF92F5
:101DA000FF920F931F93CF93DF936C017B01EA01A6
:101DB00089012417350720F48D2FE901042F182FEE
:101DC00060EF73E0C6010E940C0ED70114968D914E
:101DD0009C911597C817D907C8F48017910708F484
:101DE0008C01D701ED91FC911197E00FF11FB080AC
:101DF00010826D917C916C0F7D1FC6010E94420E76
:101E0000D701ED91FC91E00FF11FB082C601DF9187
:101E1000CF911F910F91FF90EF90DF90CF90BF90E7
:101E20000895FC0180819181009711F00C94581164
:101E300060E070E0CB0108950895A1E21A2EAA1B7C
:101E4000BB1BFD010DC0AA1FBB1FEE1FFF1FA2176A
:101E5000B307E407F50720F0A21BB30BE40BF50B67
:101E6000661F771F881F991F1A9469F760957095F0
:101E7000809590959B01AC01BD01CF0108950E9412
:101E8000580FA59F900DB49F900DA49F800D911D9C
:101E900011240895B7FF0C943F0F0E943F0F821B3F
:101EA000930B0895EE0FFF1F0590F491E02D099418
:101EB000A29FB001B39FC001A39F700D811D11248B
:101EC000911DB29F700D811D1124911D0895CF9316
:101ED000DF938230910510F482E090E0E0915305A9
:101EE000F091540520E030E0A0E0B0E0309739F107
:101EF0004081518148175907B8F04817590771F4C4
:101F000082819381109729F013969C938E93129758
:101F10002CC0909354058093530527C0211531059B
:101F200031F04217530718F0A901DB0101C0EF019E
:101F30009A01BD01DF010280F381E02DD7CF211589
:101F40003105F9F0281B390B2430310580F48A81E2
:101F50009B816115710521F0FB019383828304C08D
:101F60009093540580935305FE01329644C0FE01C0
:101F7000E20FF31F81939193225031093983288313
:101F80003AC02091510530915205232B41F4209104
:101F900002013091030130935205209351052091A5
:101FA0000001309101012115310541F42DB73EB7F3
:101FB0004091040150910501241B350BE09151051E
:101FC000F0915205E217F307A0F42E1B3F0B2817E0
:101FD000390778F0AC014E5F5F4F2417350748F0A2
:101FE0004E0F5F1F5093520540935105819391937B
:101FF00002C0E0E0F0E0CF01DF91CF910895CF93F0
:10200000DF93009709F487C0FC0132971382128294
:10201000C0915305D0915405209781F420813181DE
:10202000280F391F8091510590915205821793070F
:1020300079F5F0935205E09351056DC0DE0120E083
:1020400030E0AE17BF0750F412964D915C91139794
:102050009D014115510509F1DA01F3CFB383A28344
:1020600040815181840F951F8A179B0771F48D91D0
:102070009C911197840F951F0296918380831296ED
:102080008D919C911397938382832115310529F4B7
:10209000F0935405E09353053EC0D9011396FC9389
:1020A000EE9312974D915D91A40FB51FEA17FB07B0
:1020B00079F480819181840F951F0296D901119640
:1020C0009C938E938281938113969C938E93129707
:1020D000E0E0F0E08A819B81009719F0FE01EC01BD
:1020E000F9CFCE01029628813981820F931F20916A
:1020F0005105309152052817390769F4309729F4B2
:10210000109254051092530502C013821282D0938C
:102110005205C0935105DF91CF910895A0E0B0E042
:10212000E4E9F0E10C94B311EC01CB01209719F430
:102130000E94670FB8C0FE01E60FF71F9E012250F4
:102140003109E217F30708F4ACC0D9010D911C91D5
:10215000119706171707B8F00530110508F49FC04E
:10216000A801445051094617570708F498C0025077
:102170001109061B170B019311936D937C93CF01EB
:102180000E94FF0F8CC05B01A01AB10A4E01800EA5
:10219000911EA0915305B0915405612C712C60E003
:1021A00070E0109709F449C0A815B905C9F5ED907C
:1021B000FC901197670142E0C40ED11CCA14DB04E5
:1021C00078F147018A189B08640142E0C40ED11CD3
:1021D0001296BC9012971396AC91B5E0CB16D10431
:1021E00040F0B282A38391828082D9018D939C9327
:1021F00009C00E5F1F4F0E0D1F1DF90111830083D3
:10220000EB2DFA2F6115710531F0DB011396FC936C
:10221000EE93129744C0F0935405E09353053FC0EA
:102220006D917C9111976616770608F43B01BD010C
:1022300012960D90BC91A02DB4CF60915105709174
:10224000520568157905E9F468167906D0F44091CD
:102250000001509101014115510541F44DB75EB7A0
:102260006091040170910501461B570BE417F507B7
:10227000C0F4F0935205E0935105F90191838083F6
:102280000EC00E94670F7C01009759F0A801BE01A3
:102290000E947F11CE010E94FF0FC70104C0CE0132
:1022A00002C080E090E0CDB7DEB7EEE00C94CF1135
:1022B0001F93FC0199278827BC01E89411911032E3
:1022C000E9F3193010F01E30C8F31B3251F01D3203
:1022D00049F4689406C00E949A11610F711D811D16
:1022E000911D119110531A30B0F33EF490958095E2
:1022F000709561957F4F8F4F9F4F1F910895FB0100
:10230000DC0102C001900D9241505040D8F7089571
:10231000FC018191861721F08823D9F79927089528
:102320003197CF010895FB01DC0101900D9200204F
:10233000E1F70895592F482F372F262F660F771F63
:10234000881F991F660F771F881F991F620F731FC1
:10235000841F951F660F771F881F991F08952F925E
:102360003F924F925F926F927F928F929F92AF9225
:10237000BF92CF92DF92EF92FF920F931F93CF9372
:10238000DF93CDB7DEB7CA1BDB0B0FB6F894DEBF09
:102390000FBECDBF09942A88398848885F846E842F
:1023A0007D848C849B84AA84B984C884DF80EE8079
:1023B000FD800C811B81AA81B981CE0FD11D0FB682
:1023C000F894DEBF0FBECDBFED01089510E0CCEB59
:1023D000D0E004C0FE010E94540F2296CE3BD107EC
:0623E000C9F7F894FFCFDD
:1023E60000005505800008002800000002003A0899
:1023F6003A080156616C76654F6E0050756D704FE8
:102406006E0056616C76654F46460050756D704F8E
:10241600464600536C65657000736563203D200079
:1024260074696D5F6379636C65203D200052657346
:1024360065745363686564756C6500202020536578
:102446006E736F722E61736B28292056616C7565E9
:102456003A20002020444556204D4F444500535411
:10246600415254494E4720544F2057415445522E0D
:102476002E2E20004E4F2057415445522021004118
:10248600534B494E4720464F522057415445522EF2
:102496002E2E004F4B2057415445522C2077617405
:1024A6006572696E672E2E2E200056414C564520C9
:1024B6004F4E0050554D50204F4E0050554D502018
:1024C6004F46460056414C5645204F464600564D0F
:1024D6004450565F317C315F564D4450560D0A00CC
:1024E600496E697469616C69736174696F6E2063A2
:1024F6006F6D706C6574652E0053454E534F525385
:10250600204F4E002D2D20464C4F5745522023007C
:10251600203A00202020506C616E742E61736B2867
:10252600292041736B696E6720687967726F6D65E4
:102536007465722E2E2E002D2D2041736B696E67E9
:1025460020576174657253656E736F722E2E2E005E
:1025560053454E534F5253204F46460020202020CD
:10256600426567696E6E696E67206F662077617473
:102576006572696E6720464C4F57455220232000EE
:1025860020202020456E64206F6620776174657276
:10259600696E6720464C4F57455220232000202065
:1025A6002020446F6E2774206E65656420746F204A
:1025B60077617465720020204465764D6F646520EE
:1025C6004F46460056616C203D2000546172676597
:1025D600743A20666C6F7765722000546172676585
:1025E600743A205753004465764D6F6465204F4E0C
:1025F600005072696E7420643020746F204F464616
:102606000057616B6555700054686520666C6F777E
:1026160065722000206E656564732077617465724B
:10262600696E670020646F6573206E6F74206E6537
:102636006564207761746572696E670073636820EC
:1026460073697A65203D20005363686564756C651F
:10265600206275696C74004E6577204C6F6F700050
:1026660057616B657570204254004E6F2073636826
:102676006564756C65002F205374657020002F20EB
:102686004C6F6F700057616B6575702054494D45EE
:1026960052202F204E455854205354455000207345
:1026A6006563002074696D6572206379636C6500EB
:1026B6002F536C6565702073656374696F6E0003D4
:1026C60004564D4450435F005F564D4450430D0A37
:1026D600004572726F723A20417474656D70742091
:1026E600746F20736574206120726561642D6F6E4E
:1026F6006C79207661726961626C65206F72206404
:102706006174612074797065206E6F7420737570C2
:10271600706F727465640D0A0000000000DC0A5CCC
:102726000C5E0A770A690ABA0A6E616E00696E66FD
:06273600006F7666000052
:00000001FF
