:100000000C945F000C94FD160C9424170C9487003C
:100010000C9487000C9487000C9487000C94870044
:100020000C9487000C9487000C9487000C94870034
:100030000C9487000C9410160C9487000C94870085
:100040000C944B170C9487000C94271A0C94591A93
:100050000C9487000C9487000C9487000C94870004
:100060000C9487000C948700000000080002010037
:100070000003040700000000000000000102040863
:100080001020408001020408102001020408102002
:10009000040404040404040402020202020203032E
:1000A0000303030300000000250028002B000000CC
:1000B0000000240027002A00EC10891A03111124E3
:1000C0001FBECFEFD8E0DEBFCDBF14E0A0E0B1E0AF
:1000D000E4EDF3E402C005900D92A231B107D9F727
:1000E00024E0A2E1B4E001C01D92AD3DB207E1F70A
:1000F00010E0CCEBD0E004C02297FE010E94E11E8C
:10010000C83BD107C9F70E94CD1A0C94DD210C948D
:10011000000081E0809319040895FC01828193819D
:100120000895FC01828193810895CF93DF93EC01C0
:10013000E881F9810190F081E02DCE010995181632
:10014000190644F4E881F9810684F785E02DCE0193
:100150000995EECFDF91CF910895CF93DF93EC0116
:10016000E881F9810190F081E02DCE010995181602
:10017000190644F4E881F9810684F785E02DCE0163
:100180000995EECFDF91CF910895E0912A04F09187
:100190002B042181328183819481281739077CF4D3
:1001A0006AE171E08BE394E00E94301B8BE394E002
:1001B0000E94391B809112048B5F8093120481E0AE
:1001C00080931B0408950F931F93CF93DF931F9287
:1001D000CDB7DEB78C0183E090E069830E94DC1A22
:1001E000DC0112961C921E92119769816C93F801A2
:1001F00024813581232B59F00680F781E02D9283ED
:100200008183D80117969C938E93169705C0F801A9
:100210009583848397838683D80112968D919C91D0
:100220001397019613969C938E9312971C961C928B
:1002300081E00F90DF91CF911F910F9108950F935F
:100240001F93CF93DF93EC018B0184E090E00E9439
:10025000DC1AFC0113821282118300832C813D8100
:10026000232B29F0EE81FF819383828302C09D833B
:100270008C839F838E838A819B8101969B838A8353
:100280001C8681E0DF91CF911F910F91089561E36A
:1002900071E08BE394E00E94301B8BE394E00E94BA
:1002A000391B60E0809112010E94AC1881E08093BC
:1002B0001B04089568E371E08BE394E00E94301B17
:1002C0008BE394E00E94391B61E0809112010E944F
:1002D000AC1881E080931B040895CF92DF92EF92D7
:1002E000FF92CF93DF936B017C0110921B0460E4BB
:1002F00071E08BE394E00E94301B8BE394E00E945A
:10030000391B66E471E08BE394E00E94301B2AE025
:1003100030E0B701A6018BE394E00E949E1B8BE3C3
:1003200094E00E94391BC0910601D09107016DE451
:1003300071E08BE394E00E94301B4AE050E0BE0184
:100340008BE394E00E94E81B8BE394E00E94391B4E
:10035000C0921504D0921604E0921704F09218048B
:1003600010921A04DF91CF91FF90EF90DF90CF9021
:1003700008958091130490911404009711F00E9445
:10038000E21A109214041092130481E080931B046B
:1003900008958091150490911604A0911704B091CE
:1003A00018044091060150910701662757FD60959A
:1003B000762F841B950BA60BB70B80931504909397
:1003C0001604A0931704B09318048091150490911B
:1003D0001604A0911704B0911804181619061A06ED
:1003E0001B069CF081E080931A0480910801909193
:1003F0000901A0910A01B0910B018093150490931B
:100400001604A0931704B093180408950F931F9334
:10041000CF93DF9300D0CDB7DEB78C01DC0112960D
:100420008D919C911397892B69F4ED91FC91048037
:10043000F581E02DC8010F900F90DF91CF911F91B2
:100440000F91099484E090E069837A830E94DC1A1A
:10045000F80124813581DC0113963C932E93129789
:1004600069817A816D937C93958384838281938162
:10047000019693838283148681E00F900F90DF9121
:10048000CF911F910F9108950F931F93CF93DF93F7
:100490001F92CDB7DEB78C01DC0112968D919C9135
:1004A0001397892B61F4ED91FC910480F581E02D87
:1004B000C8010F90DF91CF911F910F91099483E0B4
:1004C00090E069830E94DC1AFC011082D801149626
:1004D0008D919C9115979283818369816083159694
:1004E000FC93EE93149712968D919C91139701961D
:1004F00013969C938E9312971C961C9281E00F90FA
:10050000DF91CF911F910F910895EF92FF920F937A
:100510001F93CF93DF93EC018A819B8118161906F4
:100520001CF50197A1F0EC81FD8102811381E0802F
:10053000F180CF010E94E01A1D830C832A813B8148
:10054000215031093B832A831C86C7010FC0E881F3
:10055000F9810484F585E02DCE01DF91CF911F91C3
:100560000F91FF90EF90099480E090E0DF91CF91A0
:100570001F910F91FF90EF900895FF920F931F939B
:10058000CF93DF93EC018A819B81181619060CF535
:10059000019799F0EC81FD8101811281F080CF01FA
:1005A0000E94E01A1D830C832A813B81215031096E
:1005B0003B832A831C868F2D0DC0E881F98104843A
:1005C000F585E02DCE01DF91CF911F910F91FF9026
:1005D000099480E0DF91CF911F910F91FF900895D2
:1005E0000F931F93CF93DF9380912604909127045C
:1005F000DC01ED91FC910190F081E02D0995181638
:1006000019060CF0A8C060E0809111010E94AC189E
:100610006AE571E08BE394E00E943D1B64E074E0C6
:100620008BE394E00E943D1B6EE170E080E090E07F
:100630000E94B81700E010E08091260490912704F2
:10064000DC01ED91FC910190F081E02D09950817F6
:100650001907B4F58091260490912704DC01ED91EF
:10066000FC910088F189E02DB8010995EC0189859C
:100670000E942D189A83898365E671E08BE394E0EC
:100680000E94301B4AE050E068818BE394E00E94B6
:10069000151C66E673E08BE394E00E94301B6BE66A
:1006A00071E08BE394E00E94301B69817A814AE01B
:1006B00050E08BE394E00E94F01B0F5F1F4FBCCF14
:1006C00066E771E08BE394E00E943D1BC0912A0431
:1006D000D0912B0480912304811106C088810E944F
:1006E0002D189A83898306C066E971E08BE394E054
:1006F0000E943D1B6EE771E08BE394E00E94301B8B
:1007000069817A814AE050E08BE394E00E94F01B1B
:1007100069817A814AE050E08BE394E00E94F01B0B
:1007200064E074E08BE394E00E943D1B6EE170E0B6
:1007300080E090E00E94B81761E0809111010E9472
:10074000AC1861EA71E08BE394E0DF91CF911F91E7
:100750000F910C943D1BDF91CF911F910F91089544
:100760008091260490912704DC01ED91FC91019089
:10077000F081E02D099525E0AC01249FC001259F63
:10078000900D11242091240430912504280F391F45
:10079000309325042093240408950C948021EF9233
:1007A000FF920F931F93CF93DF931F92CDB7DEB7C6
:1007B0007C01FC0100811181C80169830E948021B4
:1007C0006981681719F0C8010E948821C7010F903C
:1007D000DF91CF911F910F91FF90EF900895BF92FD
:1007E000CF92DF92EF92FF920F931F93CF93DF93FD
:1007F000EC01C62ED42EB52E89017C0183E0E80ED3
:10080000F11C64E074E0C7010E94A71C6DEA71E06E
:100810008BE394E00E94301B4AE050E06C2D8BE3A8
:1008200094E00E94151C67EC71E08BE394E00E9459
:10083000301B4AE050E06D2D7B2D8BE394E00E944D
:10084000E81B6BEC71E08BE394E00E94301B4AE004
:1008500050E0B8018BE394E00E94E81B8BE394E046
:100860000E94391B8FEF88838EEF9FEF9A838983D5
:100870006FEC71E0C7010E94DD1CCA86D9861C8717
:100880000B87DF91CF911F910F91FF90EF90DF9039
:10089000CF90BF9008956F927F928F929F92AF9268
:1008A000BF92CF92DF92EF92FF920F931F93CF935D
:1008B000DF93CDB7DEB766970FB6F894DEBF0FBEF5
:1008C000CDBF3C018F829886A986BA86CB86DC860E
:1008D000ED86FE860F87188B298B3A8B4B8B5C8BB2
:1008E0006D8B7E8BF3018082BE01685F7F4FCE01EE
:1008F00001960E94A71CBE016F5F7F4FC301039644
:100900000E94BD1CCE0101960E94391C8B89F30107
:1009100082878C8981878D899E8994878387669653
:100920000FB6F894DEBF0FBECDBFDF91CF911F9100
:100930000F91FF90EF90DF90CF90BF90AF909F907E
:100940008F907F906F9008950F931F93CF93DF93B5
:1009500010920D0110920C018091260490912704B1
:10096000DC01ED91FC910190F081E02D09951816C4
:1009700019066CF5C0E0D0E0809126049091270420
:10098000DC01ED91FC910190F081E02D0995A091A1
:100990002604B0912704ED91FC911197C817D9074F
:1009A0008CF40088F189E02DBE01CD0109958C0100
:1009B000009731F003960E94391CC8010E94E01A8A
:1009C0002196DACF0288F389E02DCD010995809137
:1009D000280490912904DC01ED91FC910190F081B3
:1009E000E02D0995181619065CF480912804909161
:1009F0002904DC01ED91FC910288F389E02D099531
:100A00008091280490912904DC01ED91FC910480EF
:100A1000F581E02D60911201099580912804909153
:100A20002904DC01ED91FC910480F581E02D6091B9
:100A30001101DF91CF911F910F9109942F923F9255
:100A40004F925F926F927F928F929F92AF92BF92DE
:100A5000CF92DF92EF92FF920F931F93CF93DF938A
:100A6000CDB7DEB764970FB6F894DEBF0FBECDBF2B
:100A700080E090E00E94CD0390E08F3F910529F047
:100A800090930D0180930C0104C010920D011092FF
:100A90000C0120900C0130900D0166246394712CA0
:100AA000CE0101969A8B898BDE015196BC8BAB8B64
:100AB000121413040CF0A8C0C3010E94CD038F3F91
:100AC00009F499C0FE0131962F01830189899A8921
:100AD000081B190BC201800F911F0E948021D201B7
:100AE0008D932D01EB89FC89AE17BF0799F769ED4E
:100AF00071E08BE394E00E94301B4AE050E0698192
:100B00008BE394E00E941C1C64EE71E08BE394E0A4
:100B10000E94301BBE016E5F7F4F8BE394E00E940A
:100B20003D1B61EF71E08BE394E00E94301B4AE0D3
:100B300050E06D858BE394E00E941C1C6BEF71E02C
:100B40008BE394E00E94301B4AE050E06E858BE31B
:100B500094E00E941C1C65E072E08BE394E00E942C
:100B6000301B6F8578894AE050E08BE394E00E9467
:100B7000F01B8DE090E00E94DC1A2C012FEF3FEF7C
:100B80004FEF5FEF6FEF0E94EF0389809A80AB8099
:100B9000BC80CD80DE80EF80F88409851A852B85A6
:100BA0003C854D855E856F857889C2010E944B0426
:100BB00061E0D2011A968C910E94731880912604EC
:100BC00090912704DC01ED91FC910480F581E02DEA
:100BD000B20109958091280490912904DC01ED91DE
:100BE000FC910480F581E02DD2011A966C91099553
:100BF000B1E02B1A3108E0E16E0E711CF1E06F16C6
:100C0000F4E07F0609F054CF64960FB6F894DEBF87
:100C10000FBECDBFDF91CF911F910F91FF90EF904D
:100C2000DF90CF90BF90AF909F908F907F906F900C
:100C30005F904F903F902F900895CF93DF9326E0E1
:100C400040E052EC61E070E08BE394E00E94C51953
:100C500040E550E060E070E08BE394E00E94331CDC
:100C600061E0809112010E94731861E0809111018E
:100C70000E9473186FE072E08BE394E00E94301BD7
:100C80008BE394E00E94391B8DE090E00E94DC1A17
:100C9000FC0186EC93E09183808315821482178295
:100CA000168213821282118610861386128614868B
:100CB000F0932904E09328048DE090E00E94DC1A70
:100CC000FC018EED93E0918380831582148217825C
:100CD000168213821282118610861386128614865B
:100CE000F0932704E093260480912804909129042E
:100CF000DC01ED91FC910480F581E02D6091120101
:100D000009958091280490912904DC01ED91FC91D2
:100D10000480F581E02D60911101099585E090E056
:100D20000E94DC1AFC0180910E0190910F0120912C
:100D3000100120832FEF3FEF32832183948383833D
:100D4000F0932B04E0932A046BE172E08BE394E0D0
:100D50000E94301B8BE394E00E94391B0E941E0509
:100D600068E272E08BE394E00E94301B8BE394E036
:100D70000E94391B60E0809113010E94731883B7B1
:100D8000817F83BF8091080190910901A0910A01A0
:100D9000B0910B018093150490931604A09317044F
:100DA000B0931804A0910601B091070120E432E449
:100DB0004FE050E00E94D71EAB01BC018CE294E0F2
:100DC0000E949F162FEF3FEFA90169EC71E08CE2C2
:100DD00094E00E94AF161092230410921404109213
:100DE000130481E080931B041092120463E372E009
:100DF0008BE394E00E94301B8BE394E00E94391B4C
:100E00006DE372E08BE394E00E94301B8BE394E08F
:100E10000E94391B8091260490912704DC01ED91FA
:100E2000FC910190F081E02D0995EC016BE472E0FA
:100E30008BE394E00E94301B4AE050E0BE018BE35C
:100E400094E00E94E81B8BE394E00E94391B8091A0
:100E5000260490912704DC01ED91FC910190F08132
:100E6000E02D0995EC0165E572E08BE394E00E94CA
:100E7000301BBE016F5F7F4F4AE050E08BE394E090
:100E80000E94E81B8BE394E00E94391B80912804A8
:100E900090912904DC01ED91FC910190F081E02D0D
:100EA0000995EC016FE572E08BE394E00E94301B42
:100EB0004AE050E0BE018BE394E00E94E81B8BE324
:100EC00094E00E94391B6DE372E08BE394E00E9492
:100ED000301B8BE394E00E94391B60E777E180E0F0
:100EE00090E0DF91CF910C94B8170F931F93CF939D
:100EF000DF9300D0CDB7DEB700E010E01A8309839E
:100F00006FEFCE0101960E94CF030F5F1F4F0115B7
:100F100084E0180799F70F900F90DF91CF911F9100
:100F20000F9108958F929F92AF92BF92CF92DF92CE
:100F3000EF92FF920F931F93CF93DF93CDB7DEB75E
:100F400066970FB6F894DEBF0FBECDBF8C0180E070
:100F500090E00E94CD0390E08F3F910519F481E06D
:100F600090E001C0019690930D0180930C01609177
:100F70000C0180E090E00E948821EE24E394F12CA3
:100F8000C7010E9480218F3F09F049C0D8018C9190
:100F900089836E01B1E1CB0ED11CB8016D5F7F4F2B
:100FA000C6010E94D41C4E01E2E08E0E911CA12CC1
:100FB000B12CB501C6010E94181EDC018C91F40110
:100FC00081934F01FFEFAF1ABF0A8BE0A816B1045F
:100FD00081F7D8011A968C911A978D8719968C9162
:100FE00019978E871B968D919C911C97988B8F8754
:100FF000C6010E94391CFE0131965F01EE1AFF0AFC
:10100000C7018A0D9B1DD5016D915D019A8B898B5E
:10101000C6010E94CF03AC14BD0491F709C0B0E132
:10102000EB0EF11CE1E0EE16E4E0FE0609F0A8CFBD
:1010300061E0D8011A968C910E94731869E672E0FB
:101040008BE394E00E94301B8BE394E00E94391BF9
:10105000F801F08065E772E08BE394E00E94301BBA
:101060004AE050E06F2D8BE394E00E94151C8BE367
:1010700094E00E94391BB8016D5F7F4FCE0101964D
:101080000E94D41C69E772E08BE394E00E94301B5D
:10109000BE016F5F7F4F8BE394E00E94221B8BE3C6
:1010A00094E00E94391BCE0101960E94391CD801A0
:1010B0001A96FC906FE772E08BE394E00E94301B7D
:1010C0004AE050E06F2D8BE394E00E94151C8BE307
:1010D00094E00E94391BF801E184F12C66E872E08B
:1010E0008BE394E00E94301B4AE050E0B7018BE3B1
:1010F00094E00E94E81B8BE394E00E94391BD80126
:101100001196ED90FC9012976CE872E08BE394E0FE
:101110000E94301B4AE050E0B7018BE394E00E944C
:10112000E81B8BE394E00E94391BF801E384F4840C
:1011300064E972E08BE394E00E94301B4AE050E0E7
:10114000B7018BE394E00E94E81B8BE394E00E94DC
:10115000391B8091260490912704DC01ED91FC91CC
:101160000480F581E02DB8010995809128049091C3
:101170002904DC01ED91FC910480F581E02DD8017A
:101180001A966C91099566960FB6F894DEBF0FBE5D
:10119000CDBFDF91CF911F910F91FF90EF90DF9026
:1011A000CF90BF90AF909F908F9008951F93CF9353
:1011B000DF93182FC0E0D0E080912804909129049B
:1011C000DC01ED91FC910190F081E02D0995C817AB
:1011D000D90784F48091280490912904DC01ED91D1
:1011E000FC910088F189E02DBE010995811729F055
:1011F0002196E2CF8FEF9FEF01C0CE01DF91CF911B
:101200001F9108951F93CF93DF93162F6CE972E01F
:101210008BE394E00E94301B8BE394E00E94391B27
:10122000E0912804F09129040190F081E02DC0891B
:10123000D189812F0E94D608BC0180912804909109
:101240002904FE01099560E00E94AC1881E08093BA
:101250001B04DF91CF911F9108951F93CF93DF93CC
:10126000162F64EA72E08BE394E00E94301B8BE35C
:1012700094E00E94391BE0912804F0912904019028
:10128000F081E02DC089D189812F0E94D608BC0150
:101290008091280490912904FE01099561E00E9443
:1012A000AC1881E080931B04DF91CF911F910895CA
:1012B0000F931F93CF93DF938C01C0E0D0E0809118
:1012C000260490912704DC01ED91FC910190F081BE
:1012D000E02D0995C817D907A4F4809126049091B0
:1012E0002704DC01ED91FC910088F189E02DBE011D
:1012F0000995FC01808190E08017910729F02196E3
:10130000DECF8FEF9FEF01C0CE01DF91CF911F9114
:101310000F910895CF92DF92EF92FF920F931F9358
:10132000CF93DF936B012091130430911404DB0100
:101330000D911C9146E0409FF001419FF00D11245A
:10134000A9014E0F5F1F62E079E0EA0179836883AB
:10135000AA2797FDA095BA2F8A839B83AC83BD8370
:10136000AF014A5F5F4F420F531F67E471E0EA012C
:10137000798368831A821B821C821D827F01DCE0D4
:10138000ED0EF11CE20EF31E4DE651E0E70159832C
:10139000488348E050E060E070E04A835B836C8300
:1013A0007D83AF014E5E5F4F420F531F6AE571E0D0
:1013B000EA01798368831A821B821C821D827896D7
:1013C000E20FF31F2DE239E0318320838283938380
:1013D000A483B5830C5F1F4FF60111830083DF9157
:1013E000CF911F910F91FF90EF90DF90CF900895D4
:1013F000CF93DF93C0E0D0E080912804909129043E
:10140000DC01ED91FC910190F081E02D0995C81768
:10141000D9078CF48091280490912904DC01ED9186
:10142000FC910088F189E02DBE01099561E00E94E0
:10143000AC182196E1CFDF91CF9108950E94F80971
:1014400081E080931B04089583E090E0909325044D
:10145000809324048091260490912704DC01ED916F
:10146000FC910190F081E02D099527E0AC01249FCB
:10147000C001259F900D1124209124043091250452
:10148000280F391F30932504209324040895EF92E8
:10149000FF920F931F93CF93DF9360E070E0CB0137
:1014A0000E94F002C0E0D0E000E010E0809126044D
:1014B00090912704DC01ED91FC910190F081E02DE9
:1014C0000995C817D9072CF5809126049091270417
:1014D000DC01ED91FC910088F189E02DBE010995B8
:1014E000FC01E180F2808091260490912704DC01C8
:1014F000ED91FC910088F189E02DBE010995FC0178
:10150000838594858E159F0514F40F5F1F4F2196D8
:10151000CDCFC801DF91CF911F910F91FF90EF9038
:10152000089521E030E030932504209324048F3F78
:101530002FEF920711F40C94B00345E0489F9001FF
:10154000499F300D11242F5F3F4F30932504209386
:10155000240408952F923F924F925F926F927F9250
:101560008F929F92AF92BF92CF92DF92EF92FF92B3
:101570000F931F93CF93DF9300D000D000D0CDB74F
:10158000DEB78C012B01109212046DEA72E00E940A
:10159000F91D882309F411C168EB72E08BE394E034
:1015A0000E94301B8BE394E00E94391B0E94240AA6
:1015B0008091260490912704DC01ED91FC9101902B
:1015C000F081E02D09957C0168EC72E08BE394E0FA
:1015D0000E94301B4AE050E0B7018BE394E00E9488
:1015E000E81B8BE394E00E94391BE0902404F09008
:1015F000250468ED72E08BE394E00E94301B4AE022
:1016000050E0B7018BE394E00E94E81B8BE394E089
:101610000E94391B20912404309125042134B5E126
:101620003B0738F446E0429FC001439F900D1124D0
:1016300002C08FEF9FEF0E94DE1A909314048093F4
:101640001304C12CD12C7601612C712C6DE671E054
:1016500028E0822E912CA12CB12C4AE551E03DE2EC
:10166000232E39E0332E8091260490912704DC014B
:10167000ED91FC910190F081E02D4D835E836B83B1
:101680007C83099520911304309114044D815E816F
:101690006B817C81C816D9060CF056C0F901E60DA5
:1016A000F71D80EF92E0918380831282138214826F
:1016B0001582F3013696E20FF31FA5ECB0E0B1837B
:1016C000A0831282138214821582F3013C96E20FEA
:1016D000F31F82E099E091838083C282D382E48207
:1016E000F582F3017296E20FF31FA7E4B1E0B18334
:1016F000A0831282138214821582F3017896E20F7E
:10170000F31F7183608382829382A482B582F30186
:101710007E96E20FF31F518340831282138214825C
:101720001582F301B496E20FF31F31822082C28248
:10173000D382E482F582BAE26B0E711CEFEFCE1A0F
:10174000DE0AEE0AFE0A8FCF8091240490912504D0
:1017500066E0689FA001699F500D1124DA0152973D
:10176000A20FB31F8EE19AE011969C938E9312966E
:101770001D921D921D921C921597FA013C97E20F43
:10178000F31F8DE691E09183808380910801909111
:101790000901A0910A01B0910B0182839383A48374
:1017A000B583FA013697E20FF31F89EB91E091833D
:1017B0008083128213821482158260EB72E0C8016A
:1017C0000E94F91D882309F4D4C06BEB72E08BE30F
:1017D00094E00E94301B8BE394E00E94391B0E942E
:1017E000240A8091260490912704DC01ED91FC915C
:1017F0000190F081E02D09957C0168EC72E08BE3AB
:1018000094E00E94301B4AE050E0B7018BE394E083
:101810000E94E81B8BE394E00E94391BE0902404B3
:10182000F090250468ED72E08BE394E00E94301B99
:101830004AE050E0B7018BE394E00E94E81B8BE3A1
:1018400094E00E94391B2091240430912504213416
:10185000B5E13B0738F446E0429FC001439F900D3D
:10186000112402C08FEF9FEF0E94DE1A90931404A0
:10187000809313041A821982E12CF12C80912604A2
:1018800090912704DC01ED91FC910190F081E02D15
:101890000995E816F90684F58091260490912704AD
:1018A000DC01ED91FC910088F189E02DB7010995EB
:1018B000FC01C180D2808091260490912704DC0134
:1018C000ED91FC910088F189E02DB7010995FC01AB
:1018D000838594858C159D055CF4BE016F5F7F4FF9
:1018E000C7010E948A0989819A8101969A83898316
:1018F000FFEFEF1AFF0AC2CF2091130430911404B6
:10190000809124049091250466E0689FA001699F5E
:10191000500D1124DA015297A20FB31F8EE19AE005
:1019200011969C938E9312961D921D921D921C925D
:101930001597FA013C97E20FF31F8DE691E0918332
:1019400080838091080190910901A0910A01B091D2
:101950000B0182839383A483B583FA013697E20F48
:10196000F31F89EB91E091838083128213821482AA
:10197000158264EE72E0C8010E94F91D882309F403
:101980004DC060EF72E08BE394E00E94301B8BE36C
:1019900094E00E94391B0E94F80960E070E0CB01DE
:1019A0000E94B90161E073E08BE394E00E94301B78
:1019B0008BE394E00E94391B86E090E0909325042D
:1019C000809324041A82198284E290E00E94DE1A35
:1019D0009093140480931304BE016F5F7F4FC20184
:1019E0000E948A09209124043091250446E0429FF8
:1019F000C001439F900D11240697E0911304F091CC
:101A00001404E80FF91F89EB91E09183808312821F
:101A100013821482158281E080931B0466E173E0D7
:101A2000C8010E94F91D882309F48EC00E94470A4C
:101A30000E94910AE0902404F090250468ED72E081
:101A40008BE394E00E94301B4AE050E0B7018BE347
:101A500094E00E94E81B8BE394E00E94391B2091E4
:101A60002404309125042134B5E13B0738F446E0E5
:101A7000429FC001439F900D112402C08FEF9FEF42
:101A80000E94DE1A90931404809313041A82198220
:101A9000E12CF12C8091260490912704DC01ED913A
:101AA000FC910190F081E02D0995E816F90684F586
:101AB0008091260490912704DC01ED91FC9100882F
:101AC000F189E02DB7010995FC01C180D280809198
:101AD000260490912704DC01ED91FC910088F189A6
:101AE000E02DB7010995FC01838594858C159D0532
:101AF0005CF4BE016F5F7F4FC7010E948A09898134
:101B00009A8101969A838983FFEFEF1AFF0AC2CF69
:101B1000209124043091250446E0429FC001439F58
:101B2000900D11240697E0911304F0911404E80F2E
:101B3000F91F89EB91E091838083128213821482D2
:101B4000158281E080931B0468E273E0C8010E9463
:101B5000F91D882309F476C068E373E08BE394E011
:101B60000E94301B8BE394E00E94391B0E94F8090D
:101B700060E070E0CB010E94B90161E073E08BE3AB
:101B800094E00E94301B8BE394E00E94391B81E0BB
:101B900090E090932504809324040E94B0031A825D
:101BA000198220912404309125042134B5E13B07AA
:101BB00038F446E0429FC001439F900D112402C0BB
:101BC0008FEF9FEF0E94DE1A90931404809313040A
:101BD00000E010E08091260490912704DC01ED9153
:101BE000FC910190F081E02D09950817190774F414
:101BF000BE016F5F7F4FC8010E948A0989819A8167
:101C000001969A8389830F5F1F4FE4CF20912404AC
:101C10003091250446E0429FC001439F900D11245E
:101C20000697E0911304F0911404E80FF91F89EB73
:101C300091E091838083128213821482158281E065
:101C400080931B046DE473E08BE394E00E94301BEF
:101C50008BE394E00E94391B64E170E080E090E047
:101C60000E94B81726960FB6F894DEBF0FBECDBF00
:101C7000DF91CF911F910F91FF90EF90DF90CF9068
:101C8000BF90AF909F908F907F906F905F904F909C
:101C90003F902F90089583B7816083BF40E050E06C
:101CA00069E870E080E00E94CB16E4E6F0E0808115
:101CB0008160808380818460808380818062808372
:101CC00080818064808380818068808383B7816025
:101CD00083BF889583B78E7F83BF83B78E7F83BF93
:101CE00080818F77808380818F7B808380818F7DCF
:101CF000808380818B7F808380818E7F808380E062
:101D00000E94EB166CE573E08BE394E00E943D1BB0
:101D100060E570E080E090E00C94B817FC01A481CD
:101D2000B5818485882341F0228533856217730746
:101D30001CF0A085B1850BC020E030E008C01097F2
:101D4000A1F012960D90BC91A02D2F5F3F4F26174A
:101D50003707ACF32617370741F481E084873387D0
:101D60002287B187A087CD01089580E090E0089593
:101D70000E948E0E009721F0FC01808191810895D0
:101D800080E090E00895EF92FF920F931F93CF931E
:101D9000DF93EC016A817B81161617067CF51C86A1
:101DA00061307105E1F0625071090E948E0E8C0164
:101DB000DC011296ED91FC911397E080F180CF0148
:101DC0000E94E01AF801138212821F830E832A8177
:101DD0003B81215031093B832A83C70111C0EC812B
:101DE000FD8100811181CF010E94E01A1D821C82B9
:101DF0001F821E821B821A82C80102C080E090E00E
:101E0000DF91CF911F910F91FF90EF900895CF92A6
:101E1000DF92EF92FF920F931F93CF93DF93EC012A
:101E20006B017A018A819B816817790734F0E88118
:101E3000F9810480F581E02D08C06115710581F4F8
:101E4000E881F9810680F781E02DB701CE01DF91AD
:101E5000CF911F910F91FF90EF90DF90CF90099459
:101E600084E090E00E94DC1A8C01FC011182108257
:101E700013821282B60161507109CE010E948E0E4A
:101E8000F801F182E082FC0122813381F801338381
:101E90002283FC01138302838A819B8101969B83A9
:101EA0008A831C8681E0DF91CF911F910F91FF9073
:101EB000EF90DF90CF900895CF93DF93EA0177FD05
:101EC0000DC0FC0122813381621773073CF40E942C
:101ED0008E0EFC01D183C08381E001C080E0DF91E0
:101EE000CF9108950F931F93CF93DF93EC0177FD6C
:101EF0003BC08A819B8168177907B4F5611571052C
:101F000031F4E881F9810684F785E02D09C0019755
:101F10006817790759F4E881F9810484F585E02D83
:101F2000CE01DF91CF911F910F91099461507109FA
:101F3000CE010E948E0EDC011296ED91FC9113975A
:101F4000008111812281338113963C932E93129745
:101F5000CF010E94E01A2A813B81215031093B8345
:101F60002A831C86C80102C080E090E0DF91CF91F7
:101F70001F910F910895FC01A481B5818485882368
:101F800041F022853385621773071CF0A085B18567
:101F90000BC020E030E008C01097A1F011960D9022
:101FA000BC91A02D2F5F3F4F26173707ACF32617A4
:101FB000370741F481E0848733872287B187A08780
:101FC000CD01089580E090E008950E94BB0F009736
:101FD00019F0FC018081089580E00895FF920F932D
:101FE0001F93CF93DF93EC016A817B81161617064E
:101FF0005CF51C8661307105C9F0625071090E9460
:10200000BB0F8C01FC0181819281FC01F0800E9458
:10201000E01AF801128211821F830E832A813B810C
:10202000215031093B832A838F2D0FC08C819D81E4
:10203000FC0110810E94E01A1D821C821F821E82F8
:102040001B821A82812F01C080E0DF91CF911F9106
:102050000F91FF900895CF92DF92EF92FF920F932E
:102060001F93CF93DF931F92CDB7DEB76C017B0137
:10207000DC0112968D919C9113976817790734F0C3
:10208000ED91FC910480F581E02D09C06115710589
:1020900091F4D601ED91FC910680F781E02D642F3B
:1020A000C6010F90DF91CF911F910F91FF90EF909C
:1020B000DF90CF90099483E090E049830E94DC1A7E
:1020C0008C01FC01108212821182B70161507109EA
:1020D000C6010E94BB0F4981D8014C93FC012181AC
:1020E000328112963C932E93119712830183D6016D
:1020F00012968D919C911397019613969C938E93B3
:1021000012971C961C9281E00F90DF91CF911F9146
:102110000F91FF90EF90DF90CF900895CF93DF93D2
:102120001F92CDB7DEB777FD0EC0FC01228133814F
:102130006217730744F449830E94BB0F4981FC0175
:10214000408381E001C080E00F90DF91CF9108953E
:102150001F93CF93DF93EC0177FD39C08A819B8178
:1021600068177907A4F56115710531F4E881F981E3
:102170000684F785E02D09C001976817790751F4A7
:10218000E881F9810484F585E02DCE01DF91CF91BE
:102190001F91099461507109CE010E94BB0FDC01AF
:1021A0001196ED91FC911297108121813281129646
:1021B0003C932E931197CF010E94E01A2A813B8114
:1021C000215031093B832A831C86812F01C080E086
:1021D000DF91CF911F91089564E074E08CE194E069
:1021E0000E94A71C8091080190910901A0910A0109
:1021F000B0910B018093150490931604A0931704DB
:10220000B093180408958CE194E00C94391CCF939A
:10221000DF9300D000D000D0CDB7DEB764E074E02B
:102220008CE194E00E94DD1C8BE394E00E94E218B4
:102230001816190664F48BE394E00E94FB1880934F
:102240002204682F8CE194E00E947A1DEDCF8091EA
:10225000200490912104892BB9F06CE174E0CE0147
:1022600001960E94D41C63E673E08BE394E00E9425
:10227000301BBE016F5F7F4F8BE394E00E94221BF7
:10228000CE0101960E94391C26960FB6F894DEBF47
:102290000FBECDBFDF91CF9108952F923F924F9205
:1022A0005F926F927F92AF92BF92CF92DF92EF9246
:1022B000FF920F931F93CF93DF93CDB7DEB7E297D3
:1022C0000FB6F894DEBF0FBECDBF6C0160E070E0CA
:1022D0000E943B1E863609F40BC25CF4833609F477
:1022E0004AC0843609F0EEC30E9475070E94A40418
:1022F000E9C3853731F0873739F0823709F0E2C317
:10230000C2C000E010E0E9C061E070E0C6010E94D8
:102310003B1E8B3329F0863661F468E273E002C01D
:1023200066E173E0CE0101960E94A71C6FEF7FEF7C
:102330001DC0D60114962D913C91159741E050E0B7
:10234000B601CE0101960E94591ECE0101960E944F
:102350009E1E162FCE0101960E94391C64EE72E07B
:10236000CE0101960E94A71C612F70E0CE0101965C
:102370000E94AA0AAFC060E070E0CB010E94F002A8
:1023800061E070E0C6010E943B1E8B3309F49AC3E2
:1023900020912004309121042150310941E050E086
:1023A000B601CE0101960E94591ECE0101960E94EF
:1023B0009E1E6B017C01CE0101960E94391CE091AA
:1023C0002604F09127040190F081E02D0089118905
:1023D000C6010E945809BC018091260490912704EF
:1023E000F8010995DC0111960D911C9112974AE0B4
:1023F000B601CE0107960E94221D68E673E0CE0169
:1024000001960E94A71CBE01695F7F4FCE01019615
:102410000E94BE1D6CE771E00E94D11D6CE673E066
:102420000E94D11D6CE771E00E94D11DB8010E948D
:10243000EB1D63E773E00E94D11DBC01CE010D9638
:102440000E94D41CCE0101960E94391CCE01079631
:102450000E94391CBE01635F7F4FCE0101960E942E
:10246000D41CBE016F5F7F4F8BE394E00E94221B60
:102470008BE394E00E94391BCE0101960E94391C27
:10248000CE010D961DC361E070E0C6010E943B1EA7
:102490008B3309F017C30E94A4040E94750760E003
:1024A00070E0CB010E94B901B601CE0101960E94F5
:1024B000D41C67ED71E08BE394E00E94301BBE01F9
:1024C0006F5F7F4F8BE394E00E94221B8BE394E0CD
:1024D0000E94391BCE010196F3C28091260490918F
:1024E0002704DC01ED91FC910190F081E02D09952C
:1024F000081719070CF0F1C0809126049091270469
:10250000DC01ED91FC910088F189E02DB80109957D
:10251000FC01618172814AE0CE0101960E94221D78
:102520008091260490912704DC01ED91FC910088B4
:10253000F189E02DB8010995FC01638574854AE0B5
:10254000CE0107960E94221D8091260490912704B7
:10255000DC01ED91FC910088F189E02DB80109952D
:10256000FC01618570E04AE0CE010D960E94221DBB
:102570008091260490912704DC01ED91FC91008864
:10258000F189E02DB80109954AE0FC016285CE0190
:1025900043960E94F51C8091260490912704DC014B
:1025A000ED91FC910088F189E02DB8010995BC01FD
:1025B0006D5F7F4FCE0149960E94D41C8091260406
:1025C00090912704DC01ED91FC910088F189E02DC8
:1025D000B80109954AE0FC016081CE0185960E9410
:1025E000F51C6EE673E0CE014F960E94A71CBE015B
:1025F0006B5D7F4FCE014F960E94BE1D6CE771E070
:102600000E94D11DBE01675E7F4F0E94BE1D6CE718
:1026100071E00E94D11DBE016D5E7F4F0E94BE1D04
:102620006CE771E00E94D11DBE01635F7F4F0E9485
:10263000BE1D6CE771E00E94D11DBE01695F7F4F36
:102640000E94BE1D6CE771E00E94D11DBE016F5F4C
:102650007F4F0E94BE1D63E773E00E94D11DBC0145
:10266000CE018B960E94D41CCE014F960E94391C3D
:10267000CE0185960E94391CCE0149960E94391CD4
:10268000CE0143960E94391CCE010D960E94391C42
:10269000CE0107960E94391CCE0101960E94391C7A
:1026A000BE01655D7F4FCE0101960E94D41CBE0124
:1026B0006F5F7F4F8BE394E00E94221B8BE394E0DB
:1026C0000E94391BCE0101960E94391CCE018B96C7
:1026D0000E94391C0F5F1F4F00CF61E773E08BE34F
:1026E00094E00E94301B8BE394E00E94391BEAC106
:1026F0008DE090E00E94DC1A8C012FEF3FEF4FEF4E
:102700005FEF6FEF0E94EF03F6012481358141E016
:1027100050E0B601CE0107960E94591EBE01695FC6
:102720007F4FCE0101960E94D41C65E773E08BE3D6
:1027300094E00E94301BBE016F5F7F4F8BE394E0FB
:102740000E94221B8BE394E00E94391BCE0101966C
:102750000E94391C40E050E06AE3CE0107960E94D7
:102760003D1E5C016DE773E08BE394E00E94301B3B
:102770008BE394E00E94391B8BE394E00E943E19A6
:1027800020E030E0E12CF12C3801F3E06F0E711CF9
:102790008FEFA816B80609F423C12130310509F4DA
:1027A00094C00CF047C02115310509F00DC1950109
:1027B000A701BE01695F7F4FCE0101960E94591E9D
:1027C000CE0101960E949E1E1B012C0160E973E060
:1027D0008BE394E00E94301B2AE030E0B201A101BB
:1027E0008BE394E00E949E1B8BE394E00E94391BD4
:1027F000CE0101960E94391C8BE394E00E943E19A1
:102800009501A701BE01695F7F4FCE0101960E942D
:10281000591ECE0101960E949E1ED8016C93CE01D6
:1028200001960E94391C7501BFEFEB1AFB0A21E0EB
:1028300030E0CAC02230310509F483C023303105AD
:1028400009F0C2C09501A701BE01695F7F4FCE01AB
:1028500001960E94591ECE0101960E949E1E1B01E8
:102860002C0164EA73E08BE394E00E94301B2AE0C1
:1028700030E0B201A1018BE394E00E949E1B8BE348
:1028800094E00E94391BCE0101960E94391C8BE313
:1028900094E00E943E199501A701BE01695F7F4F38
:1028A000CE0101960E94591ECE0101960E949E1EE5
:1028B000F8016187CE0101960E94391C7501FFEF76
:1028C000EF1AFF0A24E030E07FC09501A701BE01A6
:1028D000695F7F4FCE0101960E94591E65E973E042
:1028E0008BE394E00E94301BBE016F5F7F4F8BE350
:1028F00094E00E94221B8BE394E00E94391BCE01DE
:1029000001960E94391C8BE394E00E943E199501C8
:10291000A701BE01695F7F4FCE0101960E94591E3B
:10292000BE016F5F7F4FC3010E94BD1CCE010196A7
:102930000E94391C7501EFEFEE1AFE0A22E030E02A
:1029400043C09501A701BE01695F7F4FCE0101968B
:102950000E94591ECE0101960E949E1E1B012C0151
:102960006CE973E08BE394E00E94301B2AE030E0D6
:10297000B201A1018BE394E00E949E1B8BE394E0E3
:102980000E94391BCE0101960E94391C8BE394E012
:102990000E943E199501A701BE01695F7F4FCE01DC
:1029A00001960E94591ECE0101960E949E1ED801DA
:1029B0001A966C93CE0101960E94391C7501BFEFE7
:1029C000EB1AFB0A23E030E0A7016AE3CE01079689
:1029D00029AB3AAB0E943D1E5C013AA929A9D8CE89
:1029E000A7016BE3CE0107960E943D1E5C019C018E
:1029F000A701BE01695F7F4FCE0101960E94591E5B
:102A0000CE0101960E949E1E2B013C0161EB73E0FA
:102A10008BE394E00E94301B2AE030E0B301A20176
:102A20008BE394E00E949E1B8BE394E00E94391B91
:102A3000CE0101960E94391C8BE394E00E943E195E
:102A40009501A701BE01695F7F4FCE0101960E94EB
:102A5000591ECE0101960E949E1ED8011C967C93A1
:102A60006E931B97CE0101960E94391CC8010E94EB
:102A7000920760E070E0CB010E94B901B601CE017F
:102A800001960E94D41C67ED71E08BE394E00E94F4
:102A9000301BBE016F5F7F4F8BE394E00E94221BCF
:102AA000CE0101960E94391C61E773E08BE394E04C
:102AB0000E94301B8BE394E00E94391BCE010796E5
:102AC0000E94391CE2960FB6F894DEBF0FBECDBF50
:102AD000DF91CF911F910F91FF90EF90DF90CF90FA
:102AE000BF90AF907F906F905F904F903F902F90EE
:102AF0000895CF93DF9300D000D000D0CDB7DEB7DC
:102B000080911904882311F1109219040E94071171
:102B100060E070E08CE194E00E94181EFC0180816E
:102B20008E32A1F4209120043091210441E050E044
:102B30006CE174E0CE0101960E94591ECE0101960F
:102B40000E944D11CE0101960E94391C80911A04F9
:102B5000811104C080911B04882399F110921B04F9
:102B600010921A048091130490911404892B81F41B
:102B70006DEA72E0CE0101960E94A71C6FEF7FEF15
:102B8000CE0101960E94AA0ACE0101960E94391C2C
:102B900080911204E0911304F091140496E0899F4F
:102BA000E00DF11D11246281738184819581019072
:102BB000F081E02D0995809112048F5F80931204BB
:102BC00012C010921A0464E670E080E090E00E9467
:102BD000B8178BE394E00E94E21818161906B4F4B3
:102BE00081E0809319046BEB73E08BE394E00E9427
:102BF000301B8BE394E00E94391B26960FB6F894A5
:102C0000DEBF0FBECDBFDF91CF9108950E944B0E66
:102C100040E050E069E870E080E00E94CB16E3CF2E
:102C20001F920F920FB60F9211242F933F934F9341
:102C30005F936F937F938F939F93AF93BF93EF9324
:102C4000FF93E0913004F09131040995FF91EF91E9
:102C5000BF91AF919F918F917F916F915F914F91B4
:102C60003F912F910F900FBE0F901F901895FC0170
:102C7000A3E0440F551F661F771FAA95D1F7411592
:102C8000510581E06807710514F481E00EC033E05E
:102C900075956795579547953A95D1F74115510523
:102CA00081E0680771051CF482E0828331C023E073
:102CB00075956795579547952A95D1F74115510513
:102CC00081E06807710514F483E0EFCF92E0759519
:102CD0006795579547959A95D1F74115510581E02C
:102CE0006807710514F484E0E0CF82E0759567957C
:102CF000579547958A95D1F785E08283411551050F
:102D000081E06807710524F04FEF5FEF60E070E04D
:102D10008FB78383F8945183408350938700409307
:102D2000860083818FBF80918100887F809381009E
:102D3000809181009281892B809381000895109267
:102D4000800020E1209381000C943716E1E8F0E048
:102D50002081DC0112968C91282B208308950F93FB
:102D60001F93CF93DF93EC018B01BA01A9011416D5
:102D700015061606170614F40E9437161D830C83D9
:102D800081E080936F00CE01DF91CF911F910F9171
:102D90000C94A61608958230E8F4E82FF0E0EE0FC8
:102DA000FF1FEB5EFE4F71836083813041F08091A5
:102DB00069008C7F842B80936900E89A0895809144
:102DC0006900440F551F440F551F837F842B809348
:102DD0006900E99A0895823078F4813011F0E8981A
:102DE00001C0E998E82FF0E0EE0FFF1FEB5EFE4F09
:102DF0008AEC96E19183808308951F920F920FB61B
:102E00000F9211242F933F934F935F936F937F9370
:102E10008F939F93AF93BF93EF93FF93E09115012F
:102E2000F09116010995FF91EF91BF91AF919F919C
:102E30008F917F916F915F914F913F912F910F9063
:102E40000FBE0F901F9018951F920F920FB60F9202
:102E500011242F933F934F935F936F937F938F939F
:102E60009F93AF93BF93EF93FF93E0911701F0917E
:102E700018010995FF91EF91BF91AF919F918F91AB
:102E80007F916F915F914F913F912F910F900FBE66
:102E90000F901F9018951F920F920FB60F9211244A
:102EA0002F933F938F939F93AF93BF93809133045E
:102EB00090913404A0913504B091360430913204DD
:102EC00023E0230F2D3720F40196A11DB11D05C06D
:102ED00026E8230F0296A11DB11D20933204809392
:102EE000330490933404A0933504B0933604809156
:102EF000370490913804A0913904B0913A040196B6
:102F0000A11DB11D8093370490933804A093390418
:102F1000B0933A04BF91AF919F918F913F912F91C0
:102F20000F900FBE0F901F9018953FB7F8948091A7
:102F3000370490913804A0913904B0913A0426B531
:102F4000A89B05C02F3F19F00196A11DB11D3FBFE1
:102F50006627782F892F9A2F620F711D811D911D71
:102F600042E0660F771F881F991F4A95D1F7089591
:102F70008F929F92AF92BF92CF92DF92EF92FF9289
:102F80006B017C010E9495174B015C01C114D104B7
:102F9000E104F104F1F00E94A91E0E94951768193E
:102FA00079098A099B09683E73408105910570F390
:102FB00021E0C21AD108E108F10888EE880E83E00A
:102FC000981EA11CB11CC114D104E104F10429F71D
:102FD000DDCFFF90EF90DF90CF90BF90AF909F90AC
:102FE0008F900895789484B5826084BD84B58160A3
:102FF00084BD85B5826085BD85B5816085BDEEE601
:10300000F0E0808181608083E1E8F0E010828081DF
:1030100082608083808181608083E0E8F0E080814D
:1030200081608083E1EBF0E0808184608083E0EB6D
:10303000F0E0808181608083EAE7F0E08081846055
:1030400080838081826080838081816080838081B1
:10305000806880831092C10008958E3008F08E50F1
:1030600087702091190190E4299F90011124822BEF
:1030700080937C0080917A00806480937A008091B4
:103080007A0086FDFCCF809178002091790090E055
:10309000922B0895833081F028F4813099F08230AA
:1030A000A1F008958730A9F08830B9F08430D1F4C8
:1030B000809180008F7D03C0809180008F77809306
:1030C0008000089584B58F7702C084B58F7D84BD5C
:1030D00008958091B0008F7703C08091B0008F7DFC
:1030E0008093B0000895CF93DF9390E0FC01E45803
:1030F000FF4F2491FC01E057FF4F8491882349F151
:1031000090E0880F991FFC01E255FF4FA591B49103
:103110008C559F4FFC01C591D4919FB7611108C098
:10312000F8948C91209582238C93888182230AC005
:10313000623051F4F8948C91322F309583238C9324
:103140008881822B888304C0F8948C91822B8C9385
:103150009FBFDF91CF9108950F931F93CF93DF937C
:103160001F92CDB7DEB7282F30E0F901E859FF4FA5
:103170008491F901E458FF4F1491F901E057FF4F92
:1031800004910023C9F0882321F069830E944A1822
:103190006981E02FF0E0EE0FFF1FEC55FF4FA59186
:1031A000B4919FB7F8948C91611103C0109581235D
:1031B00001C0812B8C939FBF0F90DF91CF911F9106
:1031C0000F910895FC01818D228D90E0805C9F4FCE
:1031D000821B91098F7399270895FC01918D828D2F
:1031E000981731F0828DE80FF11D858D90E00895DC
:1031F0008FEF9FEF0895FC01918D828D981761F0FC
:10320000828DDF01A80FB11D5D968C91928D9F5F1D
:103210009F73928F90E008958FEF9FEF08958FE74F
:103220009AE1892B49F080E090E0892B29F00E94F7
:103230007F1A81110C9400000895FC01848DDF0138
:10324000A80FB11DA35ABF4F2C91848D90E0019619
:103250008F739927848FA689B7892C93A089B18908
:103260008C9180648C93938D848D981306C0028812
:10327000F389E02D80818F7D80830895CF93DF9344
:10328000EC01888D8823C9F0EA89FB89808185FD5E
:1032900005C0A889B9898C9186FD0FC00FB607FCBF
:1032A000F5CF808185FFF2CFA889B9898C9185FF00
:1032B000EDCFCE010E941D19E7CFDF91CF91089588
:1032C000CF92DF92FF920F931F93CF93DF931F92C2
:1032D000CDB7DEB76C0181E0D60158968C93589734
:1032E0005B969C915B975C968C915C97981307C05A
:1032F0005096ED91FC915197808185FD2EC0F6018D
:10330000038D10E00F5F1F4F0F731127F02EF60192
:10331000848DF81211C00FB607FCF9CFD601509674
:10332000ED91FC915197808185FFF1CFC6016983B2
:103330000E941D196981EBCF838DE80FF11DE35ABF
:10334000FF4F6083D6015B960C935B975296ED918D
:10335000FC915397808180620CC0D6015696ED9106
:10336000FC91579760835096ED91FC915197808125
:103370008064808381E090E00F90DF91CF911F9176
:103380000F91FF90DF90CF900895BF92CF92DF9280
:10339000EF92FF92CF93DF93EC016A017B01B22E93
:1033A000E889F98982E08083411581EE580761053B
:1033B0007105A1F060E079E08DE390E0A70196014E
:1033C0000E94AA1E2150310941095109569547957D
:1033D00037952795211580E1380798F0E889F98914
:1033E000108260E874E88EE190E0A70196010E94E7
:1033F000AA1E215031094109510956954795379523
:103400002795EC85FD853083EE85FF852083188E1A
:10341000EC89FD89B082EA89FB89808180618083A3
:10342000EA89FB89808188608083EA89FB898081C1
:1034300080688083EA89FB8980818F7D8083DF912A
:10344000CF91FF90EF90DF90CF90BF9008951F92A3
:103450000F920FB60F9211242F938F939F93EF9398
:10346000FF93E0914B04F0914C048081E091510472
:10347000F091520482FD12C09081809154048F5FBC
:103480008F7320915504821751F0E0915404F0E0BD
:10349000E55CFB4F958F8093540401C08081FF91C0
:1034A000EF919F918F912F910F900FBE0F901F90D2
:1034B00018951F920F920FB60F9211242F933F93DE
:1034C0004F935F936F937F938F939F93AF93BF932C
:1034D000EF93FF938BE394E00E941D19FF91EF910E
:1034E000BF91AF919F918F917F916F915F914F911C
:1034F0003F912F910F900FBE0F901F9018958BE367
:1035000094E00E94E21821E0892B09F420E0822F48
:10351000089510923E0410923D0488EE93E0A0E0DE
:10352000B0E080933F0490934004A0934104B09393
:10353000420486EF93E090933C0480933B0485EC37
:1035400090E0909348048093470484EC90E090933B
:103550004A048093490480EC90E090934C0480935B
:103560004B0481EC90E090934E0480934D0482ECE8
:1035700090E09093500480934F0486EC90E09093F9
:1035800052048093510410925404109255041092E6
:10359000560410925704089508950E94F2170E944D
:1035A000CC1A0E941D06CFE0D9E10E947915209720
:1035B000E1F30E940F19F9CF0C94F41E0C94F41E41
:1035C0000C948C1F0C948C1FCF92DF92EF92FF9281
:1035D0000F931F93CF93DF937C016A01EB0100E00F
:1035E00010E00C151D0571F06991D701ED91FC916A
:1035F0000190F081E02DC7010995892B19F00F5F2B
:103600001F4FEFCFC801DF91CF911F910F91FF9016
:10361000EF90DF90CF9008956115710581F0DB0187
:103620000D900020E9F7AD0141505109461B570BA1
:10363000DC01ED91FC910280F381E02D099480E0A2
:1036400090E00895DC01ED91FC91DB0114964D9121
:103650005C9115976D917C910280F381E02D099426
:103660000C940C1BDC01ED91FC910190F081E02D9C
:10367000099462E074E00C940C1B0F931F93CF939A
:10368000DF93EC010E940C1B8C01CE010E94391BC0
:10369000800F911FDF91CF911F910F9108958F920D
:1036A0009F92AF92BF92DF92EF92FF920F931F9380
:1036B000CF93DF93CDB7DEB7A1970FB6F894DEBFF7
:1036C0000FBECDBF7C01F42FD52ECB0119A2223025
:1036D00008F42AE08E010F5D1F4F822E912CA12C41
:1036E000B12C6F2F7D2DA50194010E94AA1EF22FEF
:1036F000D32ECA01015011096A3014F4E0E301C06D
:10370000E7E3E60FD801EC93232B242B252B49F775
:10371000B801C7010E940C1BA1960FB6F894DEBF3A
:103720000FBECDBFDF91CF911F910F91FF90EF9012
:10373000DF90BF90AF909F908F900895CF92DF92CF
:10374000EF92FF920F931F93CF93DF93EC016A01E7
:103750007B012115310579F4E881F9810190F0812F
:10376000E02D642FDF91CF911F910F91FF90EF908B
:10377000DF90CF9009942A303105E9F477FF1AC021
:103780006DE20E94321B8C0144275527BA014C1967
:103790005D096E097F092AE0CE010E944F1B800F50
:1037A000911FDF91CF911F910F91FF90EF90DF90CC
:1037B000CF9008952AE0B701A601CE01DF91CF9105
:1037C0001F910F91FF90EF90DF90CF900C944F1BC3
:1037D0009A01AB01662757FD6095762F0C949E1BCE
:1037E0000F931F93CF93DF93EC019A01AB016627F0
:1037F00057FD6095762F0E949E1B8C01CE010E9482
:10380000391B800F911FDF91CF911F910F91089568
:103810002115310541F4DC01ED91FC910190F0811D
:10382000E02D642F09940C944F1B9A01462F50E011
:1038300060E070E00C94081C0F931F93CF93DF930C
:10384000EC019A01462F50E060E070E00E94081CF5
:103850008C01CE010E94391B800F911FDF91CF9107
:103860001F910F910895FC014483558366837783EC
:103870000895FC01808191810C948C1FCF93DF937C
:10388000EC0188819981009711F00E948C1F1982A8
:1038900018821D821C821B821A82DF91CF910895AB
:1038A0000F931F93CF93DF93EC018B016F5F7F4FDB
:1038B000888199810E941B20009731F09983888329
:1038C0001B830A8381E001C080E0DF91CF911F91CB
:1038D0000F910895CF93DF93EC0188819981892B13
:1038E00029F08A819B818617970760F4CE010E9498
:1038F000501C882341F08C819D81892B19F4E8812B
:10390000F981108281E0DF91CF910895EF92FF92CB
:103910000F931F93CF93DF93EC017B018A01BA01D0
:103920000E946A1C811104C0CE010E943E1C07C087
:103930001D830C83B701888199810E942921CE01C2
:10394000DF91CF911F910F91FF90EF900895FC01AF
:103950001182108213821282158214826115710500
:1039600059F0FB0101900020E9F7AF0141505109E6
:10397000461B570B0C94861C0895CF93DF93EC01E4
:10398000FB018617970761F06081718161157105F0
:1039900029F0448155810E94861C02C00E943E1C71
:1039A000CE01DF91CF910895FC0111821082138224
:1039B0001282158214820C94BD1CCF93DF93EC010C
:1039C0006115710561F0FB0101900020E9F7AF017D
:1039D00041505109461B570B0E94861C02C00E9491
:1039E0003E1CCE01DF91CF9108950F931F93CF938B
:1039F000DF93CDB7DEB729970FB6F894DEBF0FBEC1
:103A0000CDBF8C01862FF8011182108213821282A1
:103A10001582148250E0BE016F5F7F4F90E00E94DC
:103A20005B21BE016F5F7F4FC8010E94DD1C29969C
:103A30000FB6F894DEBF0FBECDBFDF91CF911F91BF
:103A40000F9108950F931F93CF93DF93CDB7DEB7F8
:103A500062970FB6F894DEBF0FBECDBF8C01CB01CD
:103A6000F80111821082138212821582148250E0B2
:103A7000BE016F5F7F4F0E943021BE016F5F7F4F9D
:103A8000C8010E94DD1C62960FB6F894DEBF0FBE1F
:103A9000CDBFDF91CF911F910F910895EF92FF92CB
:103AA0000F931F93CF93DF93EC017B010C811D815A
:103AB0006115710511F480E016C04115510591F0B2
:103AC000040F151FB8010E946A1C8823A1F32881E6
:103AD00039818C819D81B701820F931F0E9429211A
:103AE0001D830C8381E0DF91CF911F910F91FF9097
:103AF000EF900895CF93DF9300D0CDB7DEB7698301
:103B00001A8241E050E0BE016F5F7F4F0E944E1D60
:103B10000F900F90DF91CF910895EF92FF920F9346
:103B20001F93CF93DF93CDB7DEB728970FB6F894E6
:103B3000DEBF0FBECDBF7C01CB014AE08E010F5F1F
:103B40001F4FB8010E943B21F80101900020E9F7C6
:103B5000AF0141505109401B510BB801C7010E94F0
:103B60004E1D28960FB6F894DEBF0FBECDBFDF9175
:103B7000CF911F910F91FF90EF900895CF93DF9316
:103B8000EC01FB0144815581608171810E944E1DD1
:103B9000811103C0CE010E943E1CCE01DF91CF9166
:103BA0000895CF93DF93EC016115710569F0FB0176
:103BB00001900020E9F7AF0141505109461B570B16
:103BC0000E944E1D811103C0CE010E943E1CCE01F9
:103BD000DF91CF910895CF93DF93EC010E948D1D6B
:103BE000811103C0CE010E943E1CCE01DF91CF9116
:103BF0000895FC0124813581232B31F421E06115E6
:103C00007105A1F0FB0108C0FC0180819181611563
:103C1000710531F421E0FC018081882339F005C071
:103C20000E94202121E0892B09F020E0822F0895B5
:103C3000FC01848195816817790720F48081918146
:103C4000009729F41092D80488ED94E00895860F27
:103C5000971F0895FC01248135816217730748F48A
:103C600080819181009729F0FC01E60FF71F808188
:103C7000089580E008950C942A1ECF93DF93FC01F1
:103C8000848195814817590778F4C081D1817727BD
:103C900067FD7095CE01840F951F0E941521009736
:103CA00019F08C1B9D0B02C08FEF9FEFDF91CF911E
:103CB0000895BF92CF92DF92EF92FF920F931F93DE
:103CC000CF93DF936C017B01EA018901241735074B
:103CD00020F48D2FE901042F182F64E074E0C60151
:103CE0000E94A71CD70114968D919C911597C81717
:103CF000D907C8F48017910708F48C01D701ED911A
:103D0000FC911197E00FF11FB08010826D917C91B2
:103D10006C0F7D1FC6010E94DD1CD701ED91FC9147
:103D2000E00FF11FB082C601DF91CF911F910F917B
:103D3000FF90EF90DF90CF90BF900895FC018081BD
:103D40009181009711F00C94E52060E070E0CB01C8
:103D500008950895A1E21A2EAA1BBB1BFD010DC0F8
:103D6000AA1FBB1FEE1FFF1FA217B307E407F5072B
:103D700020F0A21BB30BE40BF50B661F771F881F07
:103D8000991F1A9469F760957095809590959B019D
:103D9000AC01BD01CF0108950E94E51EA59F900DC5
:103DA000B49F900DA49F800D911D11240895B7FF1D
:103DB0000C94CC1E0E94CC1E821B930B0895EE0F18
:103DC000FF1F0590F491E02D0994A29FB001B39FCD
:103DD000C001A39F700D811D1124911DB29F700D14
:103DE000811D1124911D0895CF93DF938230910599
:103DF00010F482E090E0E091DB04F091DC0420E03C
:103E000030E0A0E0B0E0309739F1408151814817AF
:103E10005907B8F04817590771F4828193811097B8
:103E200029F013969C938E9312972CC09093DC04E8
:103E30008093DB0427C02115310531F04217530769
:103E400018F0A901DB0101C0EF019A01BD01DF01FA
:103E50000280F381E02DD7CF21153105F9F0281B21
:103E6000390B2430310580F48A819B8161157105FD
:103E700021F0FB019383828304C09093DC04809340
:103E8000DB04FE01329644C0FE01E20FF31F819372
:103E9000919322503109398328833AC02091D90463
:103EA0003091DA04232B41F4209102013091030177
:103EB0003093DA042093D90420910001309101015C
:103EC0002115310541F42DB73EB7409104015091C1
:103ED0000501241B350BE091D904F091DA04E217B7
:103EE000F307A0F42E1B3F0B2817390778F0AC011D
:103EF0004E5F5F4F2417350748F04E0F5F1F5093FA
:103F0000DA044093D9048193919302C0E0E0F0E099
:103F1000CF01DF91CF910895CF93DF93009709F4FC
:103F200087C0FC01329713821282C091DB04D091CA
:103F3000DC04209781F420813181280F391F809182
:103F4000D9049091DA048217930779F5F093DA0493
:103F5000E093D9046DC0DE0120E030E0AE17BF076A
:103F600050F412964D915C9113979D0141155105A6
:103F700009F1DA01F3CFB383A28340815181840F29
:103F8000951F8A179B0771F48D919C911197840F4F
:103F9000951F02969183808312968D919C91139721
:103FA000938382832115310529F4F093DC04E09397
:103FB000DB043EC0D9011396FC93EE9312974D910A
:103FC0005D91A40FB51FEA17FB0779F480819181F9
:103FD000840F951F0296D90111969C938E9382812E
:103FE000938113969C938E931297E0E0F0E08A8180
:103FF0009B81009719F0FE01EC01F9CFCE010296EA
:1040000028813981820F931F2091D9043091DA04DD
:104010002817390769F4309729F41092DC041092BC
:10402000DB0402C013821282D093DA04C093D90455
:10403000DF91CF910895A0E0B0E0E1E2F0E20C94CE
:10404000AA21EC01CB01209719F40E94F41EB8C0FC
:10405000FE01E60FF71F9E0122503109E217F30718
:1040600008F4ACC0D9010D911C91119706171707E0
:10407000B8F00530110508F49FC0A801445051095B
:104080004617570708F498C002501109061B170B72
:10409000019311936D937C93CF010E948C1F8CC070
:1040A0005B01A01AB10A4E01800E911EA091DB04A3
:1040B000B091DC04612C712C60E070E0109709F481
:1040C00049C0A815B905C9F5ED90FC901197670195
:1040D00042E0C40ED11CCA14DB0478F147018A18EF
:1040E0009B08640142E0C40ED11C1296BC9012974A
:1040F0001396AC91B5E0CB16D10440F0B282A38305
:1041000091828082D9018D939C9309C00E5F1F4FCD
:104110000E0D1F1DF90111830083EB2DFA2F611580
:10412000710531F0DB011396FC93EE93129744C0B6
:10413000F093DC04E093DB043FC06D917C91119718
:104140006616770608F43B01BD0112960D90BC91EE
:10415000A02DB4CF6091D9047091DA046815790567
:10416000E9F468167906D0F44091000150910101FC
:104170004115510541F44DB75EB76091040170914E
:104180000501461B570BE417F507C0F4F093DA045A
:10419000E093D904F901918380830EC00E94F41E3C
:1041A0007C01009759F0A801BE010E940C21CE01AC
:1041B0000E948C1FC70104C0CE0102C080E090E0C5
:1041C000CDB7DEB7EEE00C94C6211F93FC01992712
:1041D0008827BC01E89411911032E9F3193010F0EE
:1041E0001E30C8F31B3251F01D3249F4689406C0EA
:1041F0000E944621610F711D811D911D1191105367
:104200001A30B0F33EF490958095709561957F4F8C
:104210008F4F9F4F1F910895FB01DC0102C0019059
:104220000D9241505040D8F70895FC0181918617B6
:1042300021F08823D9F7992708953197CF01089560
:10424000FB01DC018D91019080190110D9F3990BCC
:104250000895FB01DC0101900D920020E1F7089523
:104260004532510520F4423010F00C943B21FB0103
:104270001082CB010895BB274A3031F4992322F4F0
:10428000BDE2909581959F4F0C946721592F482F3F
:10429000372F262F660F771F881F991F660F771FEE
:1042A000881F991F620F731F841F951F660F771F4A
:1042B000881F991F08954532510520F4423010F0AF
:1042C0000C946621FB011082CB010895BB27FB01F2
:1042D0005527AA27880F991FAA1FA41710F0A41BFF
:1042E00083955051B9F7A05DAA3308F0A95DA19359
:1042F000009779F7B111B1931192CB010C949621EB
:10430000F999FECF92BD81BDF89A992780B508959D
:10431000262FF999FECF1FBA92BD81BD20BD0FB6E1
:10432000F894FA9AF99A0FBE01960895DC01FC01FF
:10433000672F71917723E1F7329704C07C916D93D9
:1043400070836291AE17BF07C8F308952F923F9212
:104350004F925F926F927F928F929F92AF92BF9295
:10436000CF92DF92EF92FF920F931F93CF93DF9341
:10437000CDB7DEB7CA1BDB0B0FB6F894DEBF0FBE9E
:10438000CDBF09942A88398848885F846E847D84EB
:104390008C849B84AA84B984C884DF80EE80FD80ED
:1043A0000C811B81AA81B981CE0FD11D0FB6F89463
:1043B000DEBF0FBECDBFED01089510E0CCEBD0E025
:1043C00004C0FE010E94E11E2296CE3BD107C9F730
:0443D000F894FFCF8F
:1043D4000000DD048000080020000000FF00F4015C
:1043E4000E0A050200CA16CA16014E6F2057415420
:1043F40045522C20736B697020352073746570737B
:104404000050756D704F6E0050756D704F464600CC
:10441400536C65657000736563203D200074696D9D
:104424005F6379636C65203D200053454E534F52C2
:1044340053204F4E004944203A20005765746E655E
:104444007373203A20002D2D205753203A0020204A
:104454002053656E736F722E61736B282920566129
:104464006C75653A20002020444556204D4F444544
:104474000053454E534F5253204F464600456D70EE
:10448400747920636F6E7374727563746F722077BE
:10449400697468207620002068200020632000557D
:1044A4006E6E616D6564002E0063656C6C2E6964CC
:1044B400203A200063656C6C2E6E616D65203A2095
:1044C4000063656C6C2E76203A200063656C6C2E5C
:1044D40068203A200063656C6C2E77203A200053E4
:1044E4006574757020626567696E00454550524F6A
:1044F4004D20626567696E00454550524F4D2065F9
:104504006E6400536574757020656E64002D2D2DE6
:104514002D2D2D2D2D2D2D2D2D2D00666C6F7765B8
:1045240072733A200073656E736F72733A2000647D
:104534006576696365733A20004E6577464C6F77FC
:1045440065723A2000494420004E616D6520005692
:10455400616C76652000487967726F005765746EE8
:1045640065737300437269745765740056616C76A1
:10457400654F6E0056616C76654F4646006E6577F2
:1045840064656661756C74006E65776465666175F3
:104594006C74206D6F646500666C6F776572732050
:1045A40073697A65203D20007363682073697A65B6
:1045B400203D200077617465725F706C616E7400D9
:1045C40077617465725F706C616E74206D6F646581
:1045D4000044656C65746564204F4C4420736368C3
:1045E4006564756C650077617465725F616C6C5F9E
:1045F40069665F6E6565640077617465725F616C9E
:104604006C5F666F7263650077617465725F616C7D
:104614006C5F666F726365206D6F646500536368D9
:104624006564756C65206275696C740057616B65AF
:104634005570003C2D2D20002E753A0077002E6613
:10464400002E663B00436C6561723A20004E65772C
:1046540020666C6F7765722061727269766564009A
:1046640049643A20004E616D653A200056616C76CB
:10467400653A2000487967726F6D657465723A20F7
:1046840000437269745765743A20002F204C6F6F91
:1046940070000000000091002B10E30044028E1013
:1046A400A810EE0FBD02E50FAD00000000008D0064
:1046B400070F1F0106025C0F720FC30E8502B80EAE
:1046C4009500000000006019E41AE218FB18ED18C8
:1046D4003E190D0A006E616E00696E66006F7666A3
:0246E4000000D4
:00000001FF
