:100000000C945F000C9458070C947F070C948700A5
:100010000C9487000C9487000C9487000C94870044
:100020000C9487000C9487000C9487000C94870034
:100030000C9487000C94A7050C9487000C948700FF
:100040000C94A6070C9487000C948E0A0C94C00A9A
:100050000C9487000C9487000C9487000C94870004
:100060000C9487000C948700000000080002010037
:100070000003040700000000000000000102040863
:100080001020408001020408102001020408102002
:10009000040404040404040402020202020203032E
:1000A0000303030300000000250028002B000000CC
:1000B0000000240027002A003E04F00A5504112401
:1000C0001FBECFEFD8E0DEBFCDBF13E0A0E0B1E0B0
:1000D000EAE7F2E202C005900D92A23DB107D9F71E
:1000E00024E0A2EDB3E001C01D92AD3CB207E1F700
:1000F00010E0CCEBD0E004C02297FE010E94900EED
:10010000C83BD107C9F70E94340B0C9430110C94F2
:10011000000081E08093DA0308958091D6039091E6
:10012000D703A091D803B091D90340910601509113
:100130000701662757FD6095762F841B950BA60B4C
:10014000B70B8093D6039093D703A093D803B093B3
:10015000D9038091D6039091D703A091D803B09191
:10016000D903181619061A061B069CF081E0809325
:10017000DB038091080190910901A0910A01B091DF
:100180000B018093D6039093D703A093D803B09329
:10019000D9030895CF93DF93EC018091E30381119C
:1001A00006C088810E9494089A83898306C06BE206
:1001B00071E08CE294E00E94B00B63E171E08CE2AC
:1001C00094E00E94910B69817A814AE050E08CE2D0
:1001D00094E00E94750C89819A81DF91CF910895F6
:1001E00061E08DE00C94130960E08DE00C9413093C
:1001F0000F931F93CF93DF93EC0166E371E08CE2E2
:1002000094E00E94B00BE091D403F091D503878174
:100210009085873D9140ECF511E001E0E091D40339
:10022000F091D50387819085873D914084F56CE4FA
:1002300071E08CE294E00E94B00B112319F00E944F
:10024000F00002C00E94F400102760ED77E080E02B
:1002500090E00E941F0867E571E08CE294E00E9444
:10026000B00B60E08AE00E94130964EF71E080E067
:1002700090E00E941F088091D4039091D5030696C8
:100280000E94CA0061E08AE00E941309C7CF0E9461
:10029000F4006BE671E08CE294E00E94B00B60E049
:1002A00088810E94130962E871E08CE294E00E9468
:1002B000B00B60E085E00E9413096BE871E08CE20E
:1002C00094E00E94B00B68E873E180E090E00E9447
:1002D0001F0861E085E00E94130963E971E08CE288
:1002E00094E00E94B00B68EC70E080E090E00E9427
:1002F0001F0861E088810E9413096CE971E08CE2BB
:1003000094E0DF91CF911F910F910C94B00BCF939C
:10031000DF93C0E0D0E0E091E403F091E503EC0F5F
:10032000FD1F61E080810E9413092196C430D10530
:1003300091F7DF91CF910895FF920F931F93CF9381
:10034000DF9340ED57E060E070E08CEE93E00E94B8
:100350008C0620E835E240E050E06CE274E08CEE80
:1003600093E00E949F068CEE93E00E94890666EA65
:1003700071E080911D0490911E040E94910B6AE02F
:1003800070E080E090E00E941F0841E060E08CEEA9
:1003900093E00E940A0726E040E855E260E070E042
:1003A0008CE294E00E942C0A40E550E060E070E0AE
:1003B0008CE294E00E94A10C61E085E00E94DA08E2
:1003C00061E08AE00E94DA0884E090E00E94430B3A
:1003D0009093E5038093E40323E0F22EFC01F08286
:1003E000E091E403F091E50304E00183E091E4038C
:1003F000F091E50385E082838AE083830E94870190
:1004000089E090E00E94430BFC011FEFCFEFDFEF8C
:10041000D283C1831383D583C4831683D087C783D4
:100420009093D5038093D4038FE08083E091D4032D
:10043000F091D50380E183838EE0868388E090E0AD
:100440000E94430BFC011183D383C2831583D7839E
:10045000C68314839093D3038093D203A091D403D3
:10046000B091D503F0822D913D914C91129721834B
:1004700032834383048313962D913D914C912583C0
:100480003683478361E083E00E94DA08E091D2037B
:10049000F091D30361E084810E94DA0860E08091EA
:1004A0000C010E94DA0883B7817F83BFA091060107
:1004B000B091070120E432E44FE050E00E94860E44
:1004C000AB01BC0186EE93E00E9436062FEF3FEFB2
:1004D000A9016DE870E086EE93E00E94460681E097
:1004E0008093E30368EB71E08CE294E0DF91CF91BD
:1004F0001F910F91FF900C94B00BEF92FF920F930E
:100500001F93CF93DF9360E08AE00E94130961EDAF
:1005100071E08CE294E00E94B00B6DE673E08CE237
:1005200094E00E94B00B00E010E0C0E0D0E06CED81
:1005300071E08CE294E00E94910B4AE050E0BE0131
:100540008CE294E00E946D0C68EE71E08CE294E025
:100550000E94B00BE090D203F090D303E00EF11EA6
:100560006BEE71E08CE294E00E94B00BC701019643
:100570000E94CA006DE673E08CE294E00E94B00B2A
:1005800021960C5F1F4FC230D10589F66FE072E0F3
:100590008CE294E00E94B00B8091D4039091D5033B
:1005A00006960E94CA006DE673E08CE294E00E9419
:1005B000B00B61E08AE00E94130968E272E08CE20D
:1005C00094E0DF91CF911F910F91FF90EF900C94E9
:1005D000B00BCF93DF93EC0164E372E08CE294E024
:1005E0000E94910B4AE050E0BE018CE294E00E9430
:1005F0006D0C68EE71E08CE294E00E94910B8CE24D
:1006000094E00E949A0BCE01880F991F880F991FC2
:100610002091D2033091D303820F931F0E94F800E0
:1006200068E572E08CE294E00E94910B4AE050E0B1
:10063000BE018CE294E00E946D0C8CE294E0DF91AC
:10064000CF910C949A0B9C01220F331F220F331F62
:10065000E091D203F091D303E20FF31F22813381A3
:100660002D3B324014F00C94E90266E772E08CE214
:1006700094E00E94910B8CE294E00C949A0BAF9260
:10068000BF92CF92DF92EF92FF920F931F93CF937F
:10069000DF9300D000D000D0CDB7DEB78C0161E091
:1006A00070E00E94E60D803329F41092E3036EE8B7
:1006B00072E08CC063E7C8010E94040EF801248137
:1006C0003581AC014F5F5F4FB801CE0101960E94AA
:1006D000080ECE0101960E944D0E6B017C01CE01E9
:1006E00001960E94A70C6CE972E08CE294E00E94F3
:1006F000910B4AE050E0B6018CE294E00E94750C48
:1007000061E070E0C8010E94E60D863609F03FC046
:1007100063EA72E08CE294E00E94910B62E070E088
:10072000C8010E94E60D682F8CE294E00E94C20B83
:10073000A090D203B090D30362E070E0C8010E94A1
:10074000E60DF50194E08902E00DF11D1124E05C55
:10075000F109D382C282A090D203B090D30362E0A9
:1007600070E0C8010E94E60DE4E08E02A00CB11C0E
:100770001124C501805C91095C016BEE71E08CE293
:1007800094E00E94B00BC50101960E94CA0061E08E
:1007900070E0C8010E94E60D873781F463EB72E0D8
:1007A0008CE294E00E94910B8091D4039091D50348
:1007B000FC01D086C78206960E94CA006EEB72E0EA
:1007C0008CE294E00E94B00B69EC72E08CE294E061
:1007D0000E94B00B26960FB6F894DEBF0FBECDBFB9
:1007E000DF91CF911F910F91FF90EF90DF90CF900D
:1007F000BF90AF90089583B7816083BF40E050E021
:1008000069E870E080E00E942607E4E6F0E080817D
:100810008160808380818460808380818062808326
:1008200080818064808380818068808383B78160D9
:1008300083BF889583B78E7F83BF83B78E7F83BF47
:1008400080818F77808380818F7B808380818F7D83
:10085000808380818B7F808380818E7F808380E016
:100860000E94460769ED72E08CE294E00E94B00BB2
:1008700060E570E080E090E00C941F086DE673E0A6
:100880008CED93E00E94150D809108019091090173
:10089000A0910A01B0910B018093D6039093D703E6
:1008A000A093D803B093D90308958CED93E00C94F2
:1008B000A70C8CE294E00E9449091816190664F40A
:1008C0008CE294E00E9462098093E203682F8CED31
:1008D00093E00E948F0DEDCF0895CF92DF92EF92BB
:1008E000FF920F931F93CF93DF9300D000D000D0DF
:1008F000CDB7DEB760EE72E08CE294E00E94910B1F
:100900008CE294E00E949A0B62E370E080E090E059
:100910000E941F080E9487018091DB03811102C0A1
:100920000E94FB037894C090D603D090D703E09048
:10093000D803F090D90362EF72E08CE294E00E9459
:10094000910B2AE030E0B701A6018CE294E00E940E
:10095000230C8CE294E00E949A0B8091DB038823A5
:1009600009F47DC000910601109107016BEF72E060
:100970008CE294E00E94910B4AE050E0B8018CE2D6
:1009800094E00E946D0C6FE073E08CE294E00E94B2
:10099000910B8CE294E00E949A0B1092DB030E9470
:1009A0007D0264E670E080E090E00E941F08C12CA8
:1009B000D12CE12CF12CE091D203F091D303EC0D7A
:1009C000FD1D0281138165E173E08CE294E00E94D9
:1009D000910B4AE050E0B8018CE294E00E946D0C6B
:1009E00062E273E08CE294E00E94910B4AE050E0F6
:1009F0006CEB72E08CE294E00E946D0C8CE294E06F
:100A00000E949A0BC7010E9423038FEFE81AF80A8D
:100A100084E0C80ED11C82E0E816F10461F60E9461
:100A2000870164E273E08CE294E00E94910B8CE217
:100A300094E00E949A0B6DE673E08CE294E00E94D1
:100A4000910B8CE294E00E949A0B6DE673E08CE2CD
:100A500094E00E94910B8CE294E00E949A0B8091AA
:100A6000DA03882309F464C063E373E08CE294E062
:100A70000E94910B8CE294E00E949A0B1092DA0390
:100A80000E94590469E473E08CE294E00E94910BA7
:100A90006CED73E08CE294E00E949E0B6CE573E0D9
:100AA000CE0101960E94150DBE016F5F7F4F8CED48
:100AB00093E00E94C60D182FCE0101960E94A70C4C
:100AC000112391F081E08093E3036CED73E0CE019C
:100AD00001960E94420DCE0101960E943F03CE0175
:100AE00001960E94A70C1EC08CED93E00E944D0E53
:100AF000613071058105910511F40E947D028CED34
:100B000093E00E944D0E623071058105910541F41C
:100B100080E090E00E94E90281E090E00E94E9021A
:100B20000E9487016DE673E08CED93E00E944B0D0F
:100B300026960FB6F894DEBF0FBECDBFDF91CF91E2
:100B40001F910F91FF90EF90DF90CF9008951F922B
:100B50000F920FB60F9211242F933F934F935F93F1
:100B60006F937F938F939F93AF93BF93EF93FF9375
:100B7000E091EA03F091EB030995FF91EF91BF91AA
:100B8000AF919F918F917F916F915F914F913F9125
:100B90002F910F900FBE0F901F901895FC01A3E0AE
:100BA000440F551F661F771FAA95D1F741155105B0
:100BB00081E06807710514F481E00EC033E075959B
:100BC0006795579547953A95D1F74115510581E0BD
:100BD000680771051CF482E0828331C023E07595BB
:100BE0006795579547952A95D1F74115510581E0AD
:100BF0006807710514F483E0EFCF92E0759567956F
:100C0000579547959A95D1F74115510581E06807A9
:100C1000710514F484E0E0CF82E0759567955795EF
:100C200047958A95D1F785E082834115510581E08A
:100C30006807710524F04FEF5FEF60E070E08FB759
:100C40008383F894518340835093870040938600B8
:100C500083818FBF80918100887F80938100809104
:100C600081009281892B80938100089510928000E9
:100C700020E1209381000C94CE05E1E8F0E0208192
:100C8000DC0112968C91282B208308950F931F93DB
:100C9000CF93DF93EC018B01BA01A901141615065D
:100CA0001606170614F40E94CE051D830C8381E0FE
:100CB00080936F00CE01DF91CF911F910F910C9423
:100CC0003D060F931F93CF93DF93EC01662359F0FA
:100CD0000E94F00769837A838B839C83DF91CF9195
:100CE0001F910F9108950E94F00709811A812B81AD
:100CF0003C81601B710B820B930B61327105810586
:100D0000910530F763E070E080E090E00E941F08FA
:100D1000EACF60E00C946106FC0113AA14AA15AA9C
:100D200016AA11821282138214824115510561059F
:100D3000710521F0CB01BA010C941F080895FB0145
:100D4000BA01A901DC01D296FC93EE93D19726E07B
:100D5000CF010C942C0A1F93CF93DF93EC01162F35
:100D60006EE573E089A99AA90E94910B4AE050E0D0
:100D7000612F89A99AA90E949A0C65E673E089A956
:100D80009AA90E94910B62E370E080E090E0DF910D
:100D9000CF911F910C941F081F93CF93DF93EC0109
:100DA000162F8D81882389F189A99AA9DC01ED91FB
:100DB000FC910480F581E02D0995892BA9F307C0EA
:100DC0002637310519F12835310509F41D8289A925
:100DD0009AA9DC01ED91FC910480F581E02D099543
:100DE0001816190694F489A99AA9DC01ED91FC91D1
:100DF0000680F781E02D09959C01332723363105C4
:100E0000F9F6612FCE010E94AB0683E6DF91CF9108
:100E10001F9108950F931F93CF93DF931F92CDB728
:100E2000DEB78C01662349F081E0F801858360E03C
:100E3000C80149830E94CC064981F80145830F907F
:100E4000DF91CF911F910F91089508958230E8F4BA
:100E5000E82FF0E0EE0FFF1FE25FFE4F718360832B
:100E6000813041F0809169008C7F842B80936900F0
:100E7000E89A089580916900440F551F440F551F4B
:100E8000837F842B80936900E99A0895823078F4F7
:100E9000813011F0E89801C0E998E82FF0E0EE0FFA
:100EA000FF1FE25FFE4F85E297E091838083089504
:100EB0001F920F920FB60F9211242F933F934F93CF
:100EC0005F936F937F938F939F93AF93BF93EF93B2
:100ED000FF93E0910E01F0910F010995FF91EF91C1
:100EE000BF91AF919F918F917F916F915F914F9142
:100EF0003F912F910F900FBE0F901F9018951F924A
:100F00000F920FB60F9211242F933F934F935F933D
:100F10006F937F938F939F93AF93BF93EF93FF93C1
:100F2000E0911001F09111010995FF91EF91BF91AE
:100F3000AF919F918F917F916F915F914F913F9171
:100F40002F910F900FBE0F901F9018951F920F9228
:100F50000FB60F9211242F933F938F939F93AF93CC
:100F6000BF938091240490912504A0912604B09110
:100F700027043091230423E0230F2D3720F401961A
:100F8000A11DB11D05C026E8230F0296A11DB11DAC
:100F9000209323048093240490932504A093260493
:100FA000B09327048091280490912904A0912A04E9
:100FB000B0912B040196A11DB11D8093280490933C
:100FC0002904A0932A04B0932B04BF91AF919F9161
:100FD0008F913F912F910F900FBE0F901F901895FA
:100FE0002FB7F89460912404709125048091260411
:100FF000909127042FBF08953FB7F894809128045B
:1010000090912904A0912A04B0912B0426B5A89BA5
:1010100005C02F3F19F00196A11DB11D3FBF6627E6
:10102000782F892F9A2F620F711D811D911D42E02B
:10103000660F771F881F991F4A95D1F708958F92E1
:101040009F92AF92BF92CF92DF92EF92FF926B018D
:101050007C010E94FC074B015C01C114D104E10436
:10106000F104F1F00E94580E0E94FC0768197909FA
:101070008A099B09683E73408105910570F321E060
:10108000C21AD108E108F10888EE880E83E0981EA4
:10109000A11CB11CC114D104E104F10429F7DDCF76
:1010A000FF90EF90DF90CF90BF90AF909F908F9088
:1010B0000895789484B5826084BD84B5816084BDD0
:1010C00085B5826085BD85B5816085BDEEE6F0E0C1
:1010D000808181608083E1E8F0E01082808182601D
:1010E0008083808181608083E0E8F0E0808181609E
:1010F0008083E1EBF0E0808184608083E0EBF0E0CE
:10110000808181608083EAE7F0E080818460808371
:10111000808182608083808181608083808180681B
:1011200080831092C10008958E3008F08E50877031
:101130002091120190E4299F90011124822B809329
:101140007C0080917A00806480937A0080917A009C
:1011500086FDFCCF809178002091790090E0922B61
:101160000895833081F028F4813099F08230A1F025
:1011700008958730A9F08830B9F08430D1F4809197
:1011800080008F7D03C0809180008F7780938000E6
:10119000089584B58F7702C084B58F7D84BD08958E
:1011A0008091B0008F7703C08091B0008F7D8093D5
:1011B000B0000895CF93DF9390E0FC01E458FF4F17
:1011C0002491FC01E057FF4F8491882349F190E07E
:1011D000880F991FFC01E255FF4FA591B4918C55E2
:1011E0009F4FFC01C591D4919FB7611108C0F8943D
:1011F0008C91209582238C93888182230AC062304F
:1012000051F4F8948C91322F309583238C938881FC
:10121000822B888304C0F8948C91822B8C939FBF7F
:10122000DF91CF9108950F931F93CF93DF931F9278
:10123000CDB7DEB7282F30E0F901E859FF4F849190
:10124000F901E458FF4F1491F901E057FF4F049161
:101250000023C9F0882321F069830E94B1086981C5
:10126000E02FF0E0EE0FFF1FEC55FF4FA591B4917A
:101270009FB7F8948C91611103C01095812301C030
:10128000812B8C939FBF0F90DF91CF911F910F9176
:101290000895FC01818D228D90E0805C9F4F821B20
:1012A00091098F7399270895FC01918D828D98176C
:1012B00031F0828DE80FF11D858D90E008958FEF5C
:1012C0009FEF0895FC01918D828D981761F0828DBA
:1012D000DF01A80FB11D5D968C91928D9F5F9F736A
:1012E000928F90E008958FEF9FEF089586EE9AE039
:1012F000892B49F080E090E0892B29F00E94E60AD2
:1013000081110C9400000895FC01848DDF01A80F69
:10131000B11DA35ABF4F2C91848D90E001968F731D
:101320009927848FA689B7892C93A089B1898C913C
:1013300080648C93938D848D981306C00288F38902
:10134000E02D80818F7D80830895CF93DF93EC0122
:10135000888D8823C9F0EA89FB89808185FD05C0D5
:10136000A889B9898C9186FD0FC00FB607FCF5CF0F
:10137000808185FFF2CFA889B9898C9185FFEDCF57
:10138000CE010E948409E7CFDF91CF910895CF92DB
:10139000DF92FF920F931F93CF93DF931F92CDB7EE
:1013A000DEB76C0181E0D60158968C9358975B9616
:1013B0009C915B975C968C915C97981307C05096B4
:1013C000ED91FC915197808185FD2EC0F601038D32
:1013D00010E00F5F1F4F0F731127F02EF601848D61
:1013E000F81211C00FB607FCF9CFD6015096ED9157
:1013F000FC915197808185FFF1CFC60169830E94DE
:1014000084096981EBCF838DE80FF11DE35AFF4F0B
:101410006083D6015B960C935B975296ED91FC919D
:101420005397808180620CC0D6015696ED91FC9155
:10143000579760835096ED91FC915197808180641D
:10144000808381E090E00F90DF91CF911F910F9109
:10145000FF90DF90CF900895BF92CF92DF92EF92EE
:10146000FF92CF93DF93EC016A017B01B22EE889F2
:10147000F98982E08083411581EE58076105710585
:10148000A1F060E079E08DE390E0A70196010E9471
:10149000590E215031094109510956954795379503
:1014A0002795211580E1380798F0E889F98910829D
:1014B00060E874E88EE190E0A70196010E94590E61
:1014C000215031094109510956954795379527957E
:1014D000EC85FD853083EE85FF852083188EEC89B1
:1014E000FD89B082EA89FB89808180618083EA89F5
:1014F000FB89808188608083EA89FB89808180689C
:101500008083EA89FB8980818F7D8083DF91CF9101
:10151000FF90EF90DF90CF90BF9008951F920F92B1
:101520000FB60F9211242F938F939F93EF93FF93F6
:10153000E0913C04F0913D048081E0914204F091FF
:10154000430482FD12C09081809145048F5F8F73A8
:1015500020914604821751F0E0914504F0E0E45DEB
:10156000FB4F958F8093450401C08081FF91EF91DF
:101570009F918F912F910F900FBE0F901F901895F4
:101580001F920F920FB60F9211242F933F934F93F8
:101590005F936F937F938F939F93AF93BF93EF93DB
:1015A000FF938CE294E00E948409FF91EF91BF9138
:1015B000AF919F918F917F916F915F914F913F91EB
:1015C0002F910F900FBE0F901F9018958CE294E012
:1015D0000E94490921E0892B09F420E0822F089517
:1015E00010922F0410922E0488EE93E0A0E0B0E059
:1015F0008093300490933104A0933204B093330469
:101600008AEB93E090932D0480932C0485EC90E07A
:10161000909339048093380484EC90E090933B04D9
:1016200080933A0480EC90E090933D0480933C04D6
:1016300081EC90E090933F0480933E0482EC90E034
:10164000909341048093400486EC90E0909343048F
:10165000809342041092450410924604109247046D
:1016600010924804089508950E9459080E94330B6F
:101670000E949C01C6E7D9E00E946D042097E1F327
:101680000E947609F9CF0C94A30ECF92DF92EF92CD
:10169000FF920F931F93CF93DF937C016A01EB01BD
:1016A00000E010E00C151D0571F06991D701ED9176
:1016B000FC910190F081E02DC7010995892B19F06B
:1016C0000F5F1F4FEFCFC801DF91CF911F910F9197
:1016D000FF90EF90DF90CF9008956115710581F034
:1016E000DB010D900020E9F7AD0141505109461B87
:1016F000570BDC01ED91FC910280F381E02D099400
:1017000080E090E00895DC01ED91FC91DB011496FE
:101710004D915C9115976D917C910280F381E02D44
:1017200009940C946D0BDC01ED91FC910190F0811A
:10173000E02D09946BE673E00C946D0B0F931F93EF
:10174000CF93DF93EC010E94830B8C01CE010E94AA
:101750009A0B800F911FDF91CF911F910F910895E8
:101760000F931F93CF93DF93EC010E946D0B8C01BD
:10177000CE010E949A0B800F911FDF91CF911F9194
:101780000F9108950F931F93CF93DF93EC010E9465
:10179000930B8C01CE010E949A0B800F911FDF9159
:1017A000CF911F910F9108958F929F92AF92BF9208
:1017B000DF92EF92FF920F931F93CF93DF93CDB7FA
:1017C000DEB7A1970FB6F894DEBF0FBECDBF7C0188
:1017D000F42FD52ECB0119A2223008F42AE08E0175
:1017E0000F5D1F4F822E912CA12CB12C6F2F7D2DC0
:1017F000A50194010E94590EF22FD32ECA01015067
:1018000011096A3014F4E0E301C0E7E3E60FD80100
:10181000EC93232B242B252B49F7B801C7010E94F9
:101820006D0BA1960FB6F894DEBF0FBECDBFDF9152
:10183000CF911F910F91FF90EF90DF90BF90AF90ED
:101840009F908F900895CF92DF92EF92FF920F9327
:101850001F93CF93DF93EC016A017B0121153105C2
:1018600079F4E881F9810190F081E02D642FDF9116
:10187000CF911F910F91FF90EF90DF90CF9009943F
:101880002A303105E9F477FF1AC06DE20E94930B0C
:101890008C0144275527BA014C195D096E097F094F
:1018A0002AE0CE010E94D40B800F911FDF91CF91CF
:1018B0001F910F91FF90EF90DF90CF9008952AE055
:1018C000B701A601CE01DF91CF911F910F91FF903B
:1018D000EF90DF90CF900C94D40B9A01AB01662768
:1018E00057FD6095762F0C94230C0F931F93CF9385
:1018F000DF93EC019A01AB01662757FD6095762FC7
:101900000E94230C8C01CE010E949A0B800F911F24
:10191000DF91CF911F910F9108952115310541F469
:10192000DC01ED91FC910190F081E02D642F099490
:101930000C94D40B9A01462F50E060E070E00C94B8
:101940008D0CFC0144835583668377830895FC01E5
:10195000808191810C943B0FCF93DF93EC018881C0
:101960009981009711F00E943B0F198218821D8205
:101970001C821B821A82DF91CF9108950F931F93CF
:10198000CF93DF93EC018B016F5F7F4F888199814B
:101990000E94CA0F009731F0998388831B830A83C2
:1019A00081E001C080E0DF91CF911F910F910895F8
:1019B000CF93DF93EC0188819981892B29F08A816B
:1019C0009B818617970760F4CE010E94BE0C882386
:1019D00041F08C819D81892B19F4E881F981108275
:1019E00081E0DF91CF910895EF92FF920F931F93C3
:1019F000CF93DF93EC017B018A01BA010E94D80CDE
:101A0000811104C0CE010E94AC0C07C01D830C8361
:101A1000B701888199810E94CF10CE01DF91CF91CB
:101A20001F910F91FF90EF900895FC011182108299
:101A300013821282158214826115710559F0FB011F
:101A400001900020E9F7AF0141505109461B570BA7
:101A50000C94F40C0895CF93DF93EC01FB018617EF
:101A6000970761F0608171816115710529F04481EA
:101A700055810E94F40C02C00E94AC0CCE01DF9193
:101A8000CF910895FC011182108213821282158277
:101A900014820C942B0DCF93DF93EC01611571052B
:101AA00061F0FB0101900020E9F7AF0141505109BD
:101AB000461B570B0E94F40C02C00E94AC0CCE01D6
:101AC000DF91CF910895EF92FF920F931F93CF93E1
:101AD000DF93EC017B010C811D816115710511F40F
:101AE00080E016C04115510591F0040F151FB80193
:101AF0000E94D80C8823A1F3288139818C819D8193
:101B0000B701820F931F0E94CF101D830C8381E0C9
:101B1000DF91CF911F910F91FF90EF900895CF9398
:101B2000DF9300D0CDB7DEB769831A8241E050E081
:101B3000BE016F5F7F4F0E94630D0F900F90DF918A
:101B4000CF910895FA01DB0114964D915C911597A0
:101B5000DC0114962D913C911597241B350B2E1703
:101B60003F0788F08D919C91009769F0DB016D91A2
:101B70007C916115710539F08E0F9F1F0E94D61060
:101B800021E0892B09F020E0822F0895FC01448197
:101B90005581FB01248135814217530720F040E035
:101BA00050E00C94A20D80E00895FC012481358161
:101BB0006217730748F480819181009729F0FC0136
:101BC000E60FF71F8081089580E008950C94D50DED
:101BD000CF93DF93FC01848195814817590778F4EE
:101BE000C081D181772767FD7095CE01840F951F45
:101BF0000E94C410009719F08C1B9D0B02C08FEF40
:101C00009FEFDF91CF91089540E050E00C94E80DF4
:101C1000BF92CF92DF92EF92FF920F931F93CF93D9
:101C2000DF936C017B01EA0189012417350720F459
:101C30008D2FE901042F182F6DE673E0C6010E9475
:101C4000150DD70114968D919C911597C817D9073A
:101C5000C8F48017910708F48C01D701ED91FC912D
:101C60001197E00FF11FB08010826D917C916C0F85
:101C70007D1FC6010E944B0DD701ED91FC91E00F35
:101C8000F11FB082C601DF91CF911F910F91FF909C
:101C9000EF90DF90CF90BF900895FC0180819181FB
:101CA000009711F00C94941060E070E0CB0108955F
:101CB0000895A1E21A2EAA1BBB1BFD010DC0AA1F8D
:101CC000BB1FEE1FFF1FA217B307E407F50720F0A5
:101CD000A21BB30BE40BF50B661F771F881F991F20
:101CE0001A9469F760957095809590959B01AC0169
:101CF000BD01CF0108950E94940EA59F900DB49F41
:101D0000900DA49F800D911D11240895B7FF0C9490
:101D10007B0E0E947B0E821B930B0895EE0FFF1F1C
:101D20000590F491E02D0994A29FB001B39FC001EA
:101D3000A39F700D811D1124911DB29F700D811DF7
:101D40001124911D0895CF93DF938230910510F4F3
:101D500082E090E0E091CB04F091CC0420E030E010
:101D6000A0E0B0E0309739F1408151814817590720
:101D7000B8F04817590771F482819381109729F0C0
:101D800013969C938E9312972CC09093CC048093BF
:101D9000CB0427C02115310531F04217530718F045
:101DA000A901DB0101C0EF019A01BD01DF01028041
:101DB000F381E02DD7CF21153105F9F0281B390B20
:101DC0002430310580F48A819B816115710521F0F1
:101DD000FB019383828304C09093CC048093CB0453
:101DE000FE01329644C0FE01E20FF31F81939193EE
:101DF00022503109398328833AC02091C904309197
:101E0000CA04232B41F42091020130910301309345
:101E1000CA042093C90420910001309101012115C9
:101E2000310541F42DB73EB74091040150910501B1
:101E3000241B350BE091C904F091CA04E217F307A3
:101E4000A0F42E1B3F0B2817390778F0AC014E5F2A
:101E50005F4F2417350748F04E0F5F1F5093CA0499
:101E60004093C9048193919302C0E0E0F0E0CF0178
:101E7000DF91CF910895CF93DF93009709F487C046
:101E8000FC01329713821282C091CB04D091CC0412
:101E9000209781F420813181280F391F8091C90456
:101EA0009091CA048217930779F5F093CA04E093DE
:101EB000C9046DC0DE0120E030E0AE17BF0750F46A
:101EC00012964D915C9113979D014115510509F1B1
:101ED000DA01F3CFB383A28340815181840F951F30
:101EE0008A179B0771F48D919C911197840F951F10
:101EF00002969183808312968D919C911397938380
:101F000082832115310529F4F093CC04E093CB04AE
:101F10003EC0D9011396FC93EE9312974D915D91BB
:101F2000A40FB51FEA17FB0779F480819181840F14
:101F3000951F0296D90111969C938E93828193816D
:101F400013969C938E931297E0E0F0E08A819B8138
:101F5000009719F0FE01EC01F9CFCE01029628811D
:101F60003981820F931F2091C9043091CA04281728
:101F7000390769F4309729F41092CC041092CB04FD
:101F800002C013821282D093CA04C093C904DF91A5
:101F9000CF910895A0E0B0E0E0EDFFE00C94FD10DB
:101FA000EC01CB01209719F40E94A30EB8C0FE01EA
:101FB000E60FF71F9E0122503109E217F30708F4DC
:101FC000ACC0D9010D911C91119706171707B8F0F5
:101FD0000530110508F49FC0A80144505109461767
:101FE000570708F498C002501109061B170B0193FC
:101FF00011936D937C93CF010E943B0F8CC05B01CA
:10200000A01AB10A4E01800E911EA091CB04B0918E
:10201000CC04612C712C60E070E0109709F449C089
:10202000A815B905C9F5ED90FC901197670142E03C
:10203000C40ED11CCA14DB0478F147018A189B082E
:10204000640142E0C40ED11C1296BC901297139604
:10205000AC91B5E0CB16D10440F0B282A38391825B
:102060008082D9018D939C9309C00E5F1F4F0E0D86
:102070001F1DF90111830083EB2DFA2F61157105E6
:1020800031F0DB011396FC93EE93129744C0F0936A
:10209000CC04E093CB043FC06D917C911197661600
:1020A000770608F43B01BD0112960D90BC91A02D5E
:1020B000B4CF6091C9047091CA0468157905E9F438
:1020C00068167906D0F44091000150910101411544
:1020D000510541F44DB75EB760910401709105015F
:1020E000461B570BE417F507C0F4F093CA04E093BE
:1020F000C904F901918380830EC00E94A30E7C0164
:10210000009759F0A801BE010E94BB10CE010E94A9
:102110003B0FC70104C0CE0102C080E090E0CDB704
:10212000DEB7EEE00C9419111F93FC019927882764
:10213000BC01E89411911032E9F3193010F01E300F
:10214000C8F31B3251F01D3249F4689406C00E9456
:10215000E410610F711D811D911D119110531A30F2
:10216000B0F33EF490958095709561957F4F8F4FB9
:102170009F4F1F910895FB01DC0102C001900D9259
:1021800041505040D8F70895FC018191861721F005
:102190008823D9F7992708953197CF010895FB0136
:1021A000DC0101900D920020E1F70895FB01DC01B4
:1021B0004150504030F08D910190801919F4002069
:1021C000B9F7881B990B0895592F482F372F262FC1
:1021D000660F771F881F991F660F771F881F991F2B
:1021E000620F731F841F951F660F771F881F991F2B
:1021F00008952F923F924F925F926F927F928F92AB
:102200009F92AF92BF92CF92DF92EF92FF920F9385
:102210001F93CF93DF93CDB7DEB7CA1BDB0B0FB68F
:10222000F894DEBF0FBECDBF09942A88398848884C
:102230005F846E847D848C849B84AA84B984C884E2
:10224000DF80EE80FD800C811B81AA81B981CE0FD9
:10225000D11D0FB6F894DEBF0FBECDBFED010895BE
:1022600010E0CCEBD0E004C0FE010E94900E22965C
:0A227000CE3BD107C9F7F894FFCF69
:10227A000000CD04800008002800000002002507A5
:10228A0025070120202053656E736F722E61736BD0
:10229A0028292056616C75653A200020204445564D
:1022AA00204D4F4445005354415254494E472054FF
:1022BA004F2057415445522E2E2E20004E4F205764
:1022CA004154455220210041534B494E4720464F25
:1022DA00522057415445522E2E2E004F4B20574123
:1022EA005445522C207761746572696E672E2E2EC2
:1022FA00200056414C5645204F4E0050554D502017
:10230A004F4E0050554D50204F46460056414C56B0
:10231A0045204F464600564D4450565F317C315F4A
:10232A00564D4450560D0A00496E697469616C69CC
:10233A00736174696F6E20636F6D706C6574652E5E
:10234A000053454E534F5253204F4E002D2D2046D9
:10235A004C4F574552202300203A00202020506C31
:10236A00616E742E61736B28292041736B696E67E5
:10237A0020687967726F6D657465722E2E2E002D36
:10238A002D2041736B696E672057617465725365BE
:10239A006E736F722E2E2E0053454E534F5253209A
:1023AA004F46460020202020426567696E6E696E9E
:1023BA0067206F66207761746572696E6720464C84
:1023CA004F5745522023200020202020456E6420AC
:1023DA006F66207761746572696E6720464C4F5745
:1023EA0045522023200020202020446F6E2774208D
:1023FA006E65656420746F207761746572002020B1
:10240A004465764D6F6465204F46460056616C20E0
:10241A003D20005461726765743A20666C6F776577
:10242A007220005461726765743A205753004465FC
:10243A00764D6F6465204F4E005072696E74206449
:10244A003020746F204F46460057616B6555700007
:10245A002D2D204379636C65205374617274202D8D
:10246A002D004379636C65203D200077616B6575AB
:10247A00702066726F6D2054494D45522028002005
:10248A007365632900437572722F416C6572743AE1
:10249A0020002F002D2D204379636C6520456E6442
:1024AA002D2D0077616B6575702066726F6D204205
:1024BA004C5545544F4F544800496E636F6D696ED1
:1024CA006720636F6D6D616E643A20006400564D3B
:1024DA004450435F005F564D4450430D0A00457215
:1024EA00726F723A20417474656D707420746F2033
:1024FA00736574206120726561642D6F6E6C79203A
:10250A007661726961626C65206F722064617461C0
:10251A002074797065206E6F7420737570706F7295
:10252A007465640D0A0000000000C709450B4909DB
:10253A0062095409A5096E616E00696E66006F76BC
:02254A00660029
:00000001FF
