:100000000C945F000C94F0030C9417040C9487007C
:100010000C9487000C9487000C9487000C94870044
:100020000C9487000C9487000C9487000C94870034
:100030000C9487000C943F020C9487000C9487006A
:100040000C943E040C9487000C9409070C943B0715
:100050000C9487000C9487000C9487000C94870004
:100060000C9487000C948700000000080002010037
:100070000003040700000000000000000102040863
:100080001020408001020408102001020408102002
:10009000040404040404040402020202020203032E
:1000A0000303030300000000250028002B000000CC
:1000B0000000240027002A0014026B073B021124D1
:1000C0001FBECFEFD8E0DEBFCDBF11E0A0E0B1E0B2
:1000D000E8ECF7E102C005900D92A23EB107D9F716
:1000E00022E0A2EEB1E001C01D92A03EB207E1F70E
:1000F00010E0CCEBD0E004C02297FE010E948C09F6
:10010000C83BD107C9F70E94AF070C94D70B0C94DA
:10011000000081E08093EA0108958091E6019091CA
:10012000E701A091E801B091E90140910A015091E5
:100130000B01662757FD6095762F841B950BA60B48
:10014000B70B8093E6019093E701A093E801B09389
:10015000E9018091E6019091E701A091E801B09159
:10016000E901181619061A061B069CF081E0809317
:10017000EB018091060190910701A0910801B091D7
:1001800009018093E6019093E701A093E801B09301
:10019000E9010895CF93DF93C0E0D0E0E091F7014B
:1001A000F091F801EC0FFD1F61E080810E948E0547
:1001B0002196C430D10591F7DF91CF9108951F9317
:1001C000CF93DF9340ED57E060E070E08FEF91E078
:1001D0000E94240320E835E240E050E06FE372E043
:1001E0008FEF91E00E9437038FEF91E00E9421038F
:1001F00066E171E080913002909131020E94FE0729
:100200006AE070E080E090E00E94B70441E060E0C6
:100210008FEF91E00E94A20326E040E855E260E003
:1002200070E08FE392E00E94A70640E550E060E0B6
:1002300070E08FE392E00E94CA0861E085E00E94CE
:10024000550561E08AE00E94550584E090E00E9437
:10025000BE079093F8018093F70125E0FC0122830B
:100260002AE0238380E090E00E94CA0089E090E0C9
:100270000E94BE07FC011FEF1083CFEFDFEFD28398
:10028000C1831383D583C483D087C7839093E5014B
:100290008093E4018EE0868388E090E00E94BE07B0
:1002A000FC011183D383C28310831583D783C68354
:1002B00014839093E3018093E20160E08091100148
:1002C0000E94550583B7817F83BFA0910A01B09139
:1002D0000B0120E432E44FE050E00E948209AB01C0
:1002E000BC0189EF91E00E94CE022FEF3FEFA90100
:1002F0006DE870E089EF91E00E94DE0281E080937A
:10030000F60168E271E08FE392E0DF91CF911F91F7
:100310000C940B0861E471E08FE392E00E94FE0709
:100320008FE392E00E94070883B7816083BF40E0BB
:1003300050E069E870E080E00E94BE03E4E6F0E08F
:1003400080818160808380818460808380818062FD
:10035000808380818064808380818068808383B78C
:10036000816083BF889583B78E7F83BF83B78E7F7D
:1003700083BF80818F77808380818F7B8083808122
:100380008F7D808380818B7F808380818E7F80833F
:1003900080E00E94DE036CE471E08FE392E00E9453
:1003A0000B0860E570E080E090E00C94B704CF9219
:1003B000DF92EF92FF9263E571E08FE392E00E949B
:1003C000FE078FE392E00E94070862E370E080E09E
:1003D00090E00E94B70480E090E00E94CA00809103
:1003E000EB01811102C00E948A017894C090E6015D
:1003F000D090E701E090E801F090E90165E671E056
:100400008FE392E00E94FE072AE030E0B701A601E8
:100410008FE392E00E946C088FE392E0FF90EF90F0
:10042000DF90CF900C9407086DE771E080EF91E0CA
:100430000E943E098091060190910701A091080158
:10044000B09109018093EC019093ED01A093EE012E
:10045000B093EF0180910C0190910D01A0910E01DC
:10046000B0910F018093E6019093E701A093E8011A
:10047000B093E901089580EF91E00C94D0081F92A9
:100480000F920FB60F9211242F933F934F935F93C8
:100490006F937F938F939F93AF93BF93EF93FF934C
:1004A000E091FD01F091FE010995FF91EF91BF915F
:1004B000AF919F918F917F916F915F914F913F91FC
:1004C0002F910F900FBE0F901F901895FC01A3E085
:1004D000440F551F661F771FAA95D1F74115510587
:1004E00081E06807710514F481E00EC033E0759572
:1004F0006795579547953A95D1F74115510581E094
:10050000680771051CF482E0828331C023E0759591
:100510006795579547952A95D1F74115510581E083
:100520006807710514F483E0EFCF92E07595679545
:10053000579547959A95D1F74115510581E0680780
:10054000710514F484E0E0CF82E0759567955795C6
:1005500047958A95D1F785E082834115510581E061
:100560006807710524F04FEF5FEF60E070E08FB730
:100570008383F8945183408350938700409386008F
:1005800083818FBF80918100887F809381008091DB
:1005900081009281892B80938100089510928000C0
:1005A00020E1209381000C946602E1E8F0E02081D4
:1005B000DC0112968C91282B208308950F931F93B2
:1005C000CF93DF93EC018B01BA01A9011416150634
:1005D0001606170614F40E9466021D830C8381E040
:1005E00080936F00CE01DF91CF911F910F910C94FA
:1005F000D5020F931F93CF93DF93EC01662359F03D
:100600000E94880469837A838B839C83DF91CF91D6
:100610001F910F9108950E94880409811A812B81EE
:100620003C81601B710B820B930B6132710581055C
:10063000910530F763E070E080E090E00E94B7043D
:10064000EACF60E00C94F902FC0113AA14AA15AADF
:1006500016AA118212821382148241155105610576
:10066000710521F0CB01BA010C94B7040895FB0188
:10067000BA01A901DC01D296FC93EE93D19726E052
:10068000CF010C94A7061F93CF93DF93EC01162F95
:100690006EE671E089A99AA90E94FE074AE050E03F
:1006A000612F89A99AA90E94C30865E771E089A909
:1006B0009AA90E94FE0762E370E080E090E0DF917B
:1006C000CF911F910C94B7041F93CF93DF93EC014C
:1006D000162F8D81882389F189A99AA9DC01ED91D2
:1006E000FC910480F581E02D0995892BA9F307C0C1
:1006F0002637310519F12835310509F41D8289A9FC
:100700009AA9DC01ED91FC910480F581E02D099519
:100710001816190694F489A99AA9DC01ED91FC91A7
:100720000680F781E02D09959C013327233631059A
:10073000F9F6612FCE010E94430383E6DF91CF914A
:100740001F9108950F931F93CF93DF931F92CDB7FF
:10075000DEB78C01662349F081E0F801858360E013
:10076000C80149830E9464034981F80145830F90C1
:10077000DF91CF911F910F91089508958230E8F491
:10078000E82FF0E0EE0FFF1FEE5EFE4F71836083F7
:10079000813041F0809169008C7F842B80936900C7
:1007A000E89A089580916900440F551F440F551F22
:1007B000837F842B80936900E99A0895823078F4CE
:1007C000813011F0E89801C0E998E82FF0E0EE0FD1
:1007D000FF1FEE5EFE4F8DEB93E0918380830895C3
:1007E0001F920F920FB60F9211242F933F934F93A6
:1007F0005F936F937F938F939F93AF93BF93EF9389
:10080000FF93E0911201F09113010995FF91EF918F
:10081000BF91AF919F918F917F916F915F914F9118
:100820003F912F910F900FBE0F901F9018951F9220
:100830000F920FB60F9211242F933F934F935F9314
:100840006F937F938F939F93AF93BF93EF93FF9398
:10085000E0911401F09115010995FF91EF91BF917D
:10086000AF919F918F917F916F915F914F913F9148
:100870002F910F900FBE0F901F9018951F920F92FF
:100880000FB60F9211242F933F938F939F93AF93A3
:10089000BF938091370290913802A0913902B091B4
:1008A0003A023091360223E0230F2D3720F40196CF
:1008B000A11DB11D05C026E8230F0296A11DB11D83
:1008C000209336028093370290933802A093390226
:1008D000B0933A0280913B0290913C02A0913D027C
:1008E000B0913E020196A11DB11D80933B029093F1
:1008F0003C02A0933D02B0933E02BF91AF919F9105
:100900008F913F912F910F900FBE0F901F901895D0
:100910002FB7F894609137027091380280913902B4
:1009200090913A022FBF08953FB7F89480913B020F
:1009300090913C02A0913D02B0913E0226B5A89B49
:1009400005C02F3F19F00196A11DB11D3FBF6627BD
:10095000782F892F9A2F620F711D811D911D42E002
:10096000660F771F881F991F4A95D1F708958F92B8
:100970009F92AF92BF92CF92DF92EF92FF926B0164
:100980007C010E9494044B015C01C114D104E10478
:10099000F104F1F00E9454090E9494046819790945
:1009A0008A099B09683E73408105910570F321E037
:1009B000C21AD108E108F10888EE880E83E0981E7B
:1009C000A11CB11CC114D104E104F10429F7DDCF4D
:1009D000FF90EF90DF90CF90BF90AF909F908F905F
:1009E0000895789484B5826084BD84B5816084BDA7
:1009F00085B5826085BD85B5816085BDEEE6F0E098
:100A0000808181608083E1E8F0E0108280818260F3
:100A10008083808181608083E0E8F0E08081816074
:100A20008083E1EBF0E0808184608083E0EBF0E0A4
:100A3000808181608083EAE7F0E080818460808348
:100A400080818260808380818160808380818068F2
:100A500080831092C1000895833081F028F48130A2
:100A600099F08230A1F008958730A9F08830B9F06C
:100A70008430D1F4809180008F7D03C0809180000C
:100A80008F7780938000089584B58F7702C084B5F6
:100A90008F7D84BD08958091B0008F7703C08091D1
:100AA000B0008F7D8093B0000895CF93DF9390E0E6
:100AB000FC01E458FF4F2491FC01E057FF4F849163
:100AC000882349F190E0880F991FFC01E255FF4F00
:100AD000A591B4918C559F4FFC01C591D4919FB7BE
:100AE000611108C0F8948C91209582238C938881A1
:100AF00082230AC0623051F4F8948C91322F3095E1
:100B000083238C938881822B888304C0F8948C91F2
:100B1000822B8C939FBFDF91CF9108950F931F93EA
:100B2000CF93DF931F92CDB7DEB7282F30E0F901C6
:100B3000E859FF4F8491F901E458FF4F1491F901EE
:100B4000E057FF4F04910023C9F0882321F0698307
:100B50000E942C056981E02FF0E0EE0FFF1FEC559D
:100B6000FF4FA591B4919FB7F8948C91611103C088
:100B70001095812301C0812B8C939FBF0F90DF9133
:100B8000CF911F910F910895FC01818D228D90E0EE
:100B9000805C9F4F821B91098F7399270895FC01F8
:100BA000918D828D981731F0828DE80FF11D858D22
:100BB00090E008958FEF9FEF0895FC01918D828D55
:100BC000981761F0828DDF01A80FB11D5D968C91A1
:100BD000928D9F5F9F73928F90E008958FEF9FEFAC
:100BE000089581E697E0892B49F080E090E0892B19
:100BF00029F00E94610781110C9400000895FC0106
:100C0000848DDF01A80FB11DA35ABF4F2C91848D95
:100C100090E001968F739927848FA689B7892C93CA
:100C2000A089B1898C9180648C93938D848D981365
:100C300006C00288F389E02D80818F7D808308952E
:100C4000CF93DF93EC01888D8823C9F0EA89FB8973
:100C5000808185FD05C0A889B9898C9186FD0FC06A
:100C60000FB607FCF5CF808185FFF2CFA889B9893F
:100C70008C9185FFEDCFCE010E94FF05E7CFDF917C
:100C8000CF910895CF92DF92FF920F931F93CF934E
:100C9000DF931F92CDB7DEB76C0181E0D601589685
:100CA0008C9358975B969C915B975C968C915C9724
:100CB000981307C05096ED91FC915197808185FD66
:100CC0002EC0F601038D10E00F5F1F4F0F73112729
:100CD000F02EF601848DF81211C00FB607FCF9CF83
:100CE000D6015096ED91FC915197808185FFF1CF0F
:100CF000C60169830E94FF056981EBCF838DE80FF0
:100D0000F11DE35AFF4F6083D6015B960C935B970E
:100D10005296ED91FC915397808180620CC0D60170
:100D20005696ED91FC91579760835096ED91FC910A
:100D3000519780818064808381E090E00F90DF9103
:100D4000CF911F910F91FF90DF90CF900895BF92A8
:100D5000CF92DF92EF92FF92CF93DF93EC016A0183
:100D60007B01B22EE889F98982E08083411581EE0A
:100D7000580761057105A1F060E079E08DE390E02E
:100D8000A70196010E9455092150310941095109D5
:100D90005695479537952795211580E1380798F0A6
:100DA000E889F989108260E874E88EE190E0A70193
:100DB00096010E9455092150310941095109569562
:100DC000479537952795EC85FD853083EE85FF8522
:100DD0002083188EEC89FD89B082EA89FB898081A5
:100DE00080618083EA89FB89808188608083EA89C9
:100DF000FB89808180688083EA89FB8980818F7D7F
:100E00008083DF91CF91FF90EF90DF90CF90BF90E4
:100E100008951F920F920FB60F9211242F938F9364
:100E20009F93EF93FF93E0914F02F09150028081E6
:100E3000E0915502F091560282FD12C0908180919E
:100E400058028F5F8F7320915902821751F0E09101
:100E50005802F0E0E15CFD4F958F8093580201C08D
:100E60008081FF91EF919F918F912F910F900FBEF5
:100E70000F901F9018951F920F920FB60F9211248A
:100E80002F933F934F935F936F937F938F939F9392
:100E9000AF93BF93EF93FF938FE392E00E94FF0520
:100EA000FF91EF91BF91AF919F918F917F916F9142
:100EB0005F914F913F912F910F900FBE0F901F9018
:100EC00018958FE392E00E94C40521E0892B09F474
:100ED00020E0822F0895109242021092410288EE83
:100EE00093E0A0E0B0E08093430290934402A0938B
:100EF0004502B09346028AEC91E0909340028093C1
:100F00003F0285EC90E090934C0280934B0284EC7E
:100F100090E090934E0280934D0280EC90E090938D
:100F2000500280934F0281EC90E0909352028093A4
:100F3000510282EC90E0909354028093530286EC2D
:100F400090E09093560280935502109258021092AE
:100F5000590210925A0210925B02089508950E945D
:100F6000F1040E94AE070E94DF00C1EFD5E00E94AD
:100F7000D7012097E1F30E94F105F9CF0C949F0966
:100F8000CF92DF92EF92FF920F931F93CF93DF9355
:100F90007C016A01EB0100E010E00C151D0571F009
:100FA0006991D701ED91FC910190F081E02DC7018D
:100FB0000995892B19F00F5F1F4FEFCFC801DF9103
:100FC000CF911F910F91FF90EF90DF90CF900895F8
:100FD0006115710581F0DB010D900020E9F7AD018D
:100FE00041505109461B570BDC01ED91FC910280E9
:100FF000F381E02D099480E090E008950C94E807D7
:10100000DC01ED91FC910190F081E02D09946BE7FA
:1010100071E00C94E8070F931F93CF93DF93EC01DB
:101020000E94E8078C01CE010E940708800F911FE3
:10103000DF91CF911F910F9108958F929F92AF9260
:10104000BF92DF92EF92FF920F931F93CF93DF93A4
:10105000CDB7DEB7A1970FB6F894DEBF0FBECDBFF8
:101060007C01F42FD52ECB0119A2223008F42AE0FE
:101070008E010F5D1F4F822E912CA12CB12C6F2F52
:101080007D2DA50194010E945509F22FD32ECA018E
:10109000015011096A3014F4E0E301C0E7E3E60F00
:1010A000D801EC93232B242B252B49F7B801C7013A
:1010B0000E94E807A1960FB6F894DEBF0FBECDBF21
:1010C000DF91CF911F910F91FF90EF90DF90BF9034
:1010D000AF909F908F900895CF92DF92EF92FF9202
:1010E0000F931F93CF93DF93EC016A017B012115CE
:1010F000310579F4E881F9810190F081E02D642FC8
:10110000DF91CF911F910F91FF90EF90DF90CF90E3
:1011100009942A303105E9F477FF1AC06DE20E9484
:1011200000088C0144275527BA014C195D096E0946
:101130007F092AE0CE010E941D08800F911FDF91D8
:10114000CF911F910F91FF90EF90DF90CF90089576
:101150002AE0B701A601CE01DF91CF911F910F9137
:10116000FF90EF90DF90CF900C941D082115310572
:1011700041F4DC01ED91FC910190F081E02D642FB0
:1011800009940C941D089A01462F50E060E070E02D
:101190000C94B608FC0144835583668377830895D5
:1011A000FC01808191810C94370ACF93DF93EC018D
:1011B00088819981009711F00E94370A198218825C
:1011C0001D821C821B821A82DF91CF9108950F939A
:1011D0001F93CF93DF93EC018B016F5F7F4F88816B
:1011E00099810E94C60A009731F0998388831B83F6
:1011F0000A8381E001C080E0DF91CF911F910F91C0
:101200000895CF93DF93EC0188819981892B29F090
:101210008A819B818617970760F4CE010E94E708B8
:10122000882341F08C819D81892B19F4E881F98113
:10123000108281E0DF91CF910895EF92FF920F939A
:101240001F93CF93DF93EC017B018A01BA010E94C7
:101250000109811104C0CE010E94D50807C01D8379
:101260000C83B701888199810E94990BCE01DF918F
:10127000CF911F910F91FF90EF900895FC01118283
:10128000108213821282158214826115710559F041
:10129000FB0101900020E9F7AF0141505109461BC5
:1012A000570B0C941D0908950895A1E21A2EAA1B4C
:1012B000BB1BFD010DC0AA1FBB1FEE1FFF1FA21706
:1012C000B307E407F50720F0A21BB30BE40BF50B03
:1012D000661F771F881F991F1A9469F7609570958C
:1012E000809590959B01AC01BD01CF0108950E94AE
:1012F0009009A59F900DB49F900DA49F800D911D06
:1013000011240895B7FF0C9477090E947709821B76
:10131000930B0895EE0FFF1F0590F491E02D0994B3
:10132000A29FB001B39FC001A39F700D811D112426
:10133000911DB29F700D811D1124911D0895CF93B1
:10134000DF938230910510F482E090E0E091DE02BC
:10135000F091DF0220E030E0A0E0B0E0309739F11A
:101360004081518148175907B8F04817590771F45F
:1013700082819381109729F013969C938E931297F4
:101380002CC09093DF028093DE0227C02115310527
:1013900031F04217530718F0A901DB0101C0EF013A
:1013A0009A01BD01DF010280F381E02DD7CF211525
:1013B0003105F9F0281B390B2430310580F48A817E
:1013C0009B816115710521F0FB019383828304C029
:1013D0009093DF028093DE02FE01329644C0FE014C
:1013E000E20FF31F819391932250310939832883AF
:1013F0003AC02091DC023091DD02232B41F4209190
:101400000201309103013093DD022093DC02209130
:101410000001309101012115310541F42DB73EB78E
:101420004091040150910501241B350BE091DC0231
:10143000F091DD02E217F307A0F42E1B3F0B2817F3
:10144000390778F0AC014E5F5F4F2417350748F03D
:101450004E0F5F1F5093DD024093DC028193919306
:1014600002C0E0E0F0E0CF01DF91CF910895CF938B
:10147000DF93009709F487C0FC0132971382128230
:10148000C091DE02D091DF02209781F4208131816A
:10149000280F391F8091DC029091DD02821793079B
:1014A00079F5F093DD02E093DC026DC0DE0120E00F
:1014B00030E0AE17BF0750F412964D915C91139730
:1014C0009D014115510509F1DA01F3CFB383A283E0
:1014D00040815181840F951F8A179B0771F48D916C
:1014E0009C911197840F951F029691838083129689
:1014F0008D919C911397938382832115310529F453
:10150000F093DF02E093DE023EC0D9011396FC9314
:10151000EE9312974D915D91A40FB51FEA17FB074B
:1015200079F480819181840F951F0296D9011196DB
:101530009C938E938281938113969C938E931297A2
:10154000E0E0F0E08A819B81009719F0FE01EC0158
:10155000F9CFCE01029628813981820F931F209105
:10156000DC023091DD022817390769F4309729F43D
:101570001092DF021092DE0202C013821282D09318
:10158000DD02C093DC02DF91CF910895A0E0B0E0CE
:10159000ECECFAE00C94A40BEC01CB01209719F4CD
:1015A0000E949F09B8C0FE01E60FF71F9E0122505E
:1015B0003109E217F30708F4ACC0D9010D911C9171
:1015C000119706171707B8F00530110508F49FC0EA
:1015D000A801445051094617570708F498C0025013
:1015E0001109061B170B019311936D937C93CF0187
:1015F0000E94370A8CC05B01A01AB10A4E01800E0E
:10160000911EA091DE02B091DF02612C712C60E08E
:1016100070E0109709F449C0A815B905C9F5ED9017
:10162000FC901197670142E0C40ED11CCA14DB0480
:1016300078F147018A189B08640142E0C40ED11C6E
:101640001296BC9012971396AC91B5E0CB16D104CC
:1016500040F0B282A38391828082D9018D939C93C2
:1016600009C00E5F1F4F0E0D1F1DF901118300836E
:10167000EB2DFA2F6115710531F0DB011396FC9308
:10168000EE93129744C0F093DF02E093DE023FC076
:101690006D917C9111976616770608F43B01BD01A8
:1016A00012960D90BC91A02DB4CF6091DC02709188
:1016B000DD0268157905E9F468167906D0F44091E1
:1016C0000001509101014115510541F44DB75EB73C
:1016D0006091040170910501461B570BE417F50753
:1016E000C0F4F093DD02E093DC02F9019183808382
:1016F0000EC00E949F097C01009759F0A801BE010D
:101700000E94900BCE010E94370AC70104C0CE018F
:1017100002C080E090E0CDB7DEB7EEE00C94C00BE5
:10172000FB01DC0102C001900D9241505040D8F7FE
:101730000895FB01DC0101900D920020E1F708956E
:101740002F923F924F925F926F927F928F929F92D1
:10175000AF92BF92CF92DF92EF92FF920F931F93BF
:10176000CF93DF93CDB7DEB7CA1BDB0B0FB6F89470
:10177000DEBF0FBECDBF09942A88398848885F84B0
:101780006E847D848C849B84AA84B984C884DF8021
:10179000EE80FD800C811B81AA81B981CE0FD11D05
:1017A0000FB6F894DEBF0FBECDBFED01089510E077
:1017B000CCEBD0E004C0FE010E948C092296CE3B07
:0817C000D107C9F7F894FFCF2F
:1017C8000000E00280002800000008002800000057
:1017D8000200BD03BD03564D4450565F317C315F56
:1017E800564D4450560D0A00496E697469616C691A
:1017F800736174696F6E20636F6D706C6574652EAC
:1018080000456E746572536C6565700057616B6551
:101818005570002D2D204379636C652053746172D7
:1018280074202D2D004379636C65203D2000564DB2
:101838004450435F005F564D4450430D0A004572C3
:10184800726F723A20417474656D707420746F20E1
:10185800736574206120726561642D6F6E6C7920E8
:101868007661726961626C65206F7220646174616F
:101878002074797065206E6F7420737570706F7244
:101888007465640D0A00000000004206C007C40524
:10189800DD05CF0520066E616E00696E66006F7605
:0218A8006600D8
:00000001FF
