:100000000C945F000C940F0A0C94360A0C94870031
:100010000C9487000C9487000C9487000C94870044
:100020000C9487000C9487000C9487000C94870034
:100030000C9487000C945E080C9487000C94870045
:100040000C945D0A0C9487000C94450D0C94770D6C
:100050000C9487000C9487000C9487000C94870004
:100060000C9487000C948700000000080002010037
:100070000003040700000000000000000102040863
:100080001020408001020408102001020408102002
:10009000040404040404040402020202020203032E
:1000A0000303030300000000250028002B000000CC
:1000B0000000240027002A001D07A70D3407112483
:1000C0001FBECFEFD8E0DEBFCDBF14E0A0E0B1E0AF
:1000D000EEEEF7E202C005900D92AE31B107D9F70E
:1000E00025E0AEE1B4E001C01D92AF31B207E1F707
:1000F00010E0CCEBD0E004C02297FE010E94351145
:10010000C83BD107C9F70E94EB0D0C94EA130C947D
:10011000000081E0809329040895CF92DF92EF924E
:10012000FF926B017C0163E171E08EE794E00E9435
:100130003C0E8EE794E00E94450EF601E855FC4F18
:1001400060E080810E94CA0B81E080932B04FF90C5
:10015000EF90DF90CF9008956BE171E08EE794E02F
:100160000E943C0E8EE794E00E94450E60E085E020
:100170000E94CA0B81E080932B040895CF92DF92F6
:10018000EF92FF926B017C0162E271E08EE794E0F6
:100190000E943C0E8EE794E00E94450EF601E85561
:1001A000FC4F61E080810E94CA0B81E080932B04A8
:1001B000FF90EF90DF90CF9008956BE271E08EE7B3
:1001C00094E00E943C0E8EE794E00E94450E61E0B0
:1001D00085E00E94CA0B81E080932B040895CF92A2
:1001E000DF92EF92FF92CF93DF936B017C0163E389
:1001F00071E08EE794E00E943C0E8EE794E00E944E
:10020000450E69E371E08EE794E00E943C0E2AE01F
:1002100030E0B701A6018EE794E00E94BC0E8EE7A5
:1002200094E00E94450EC0910601D091070160E460
:1002300071E08EE794E00E943C0E4AE050E0BE017F
:100240008EE794E00E94060F8EE794E00E94450E30
:10025000C0922504D0922604E0922704F09228044C
:1002600010922A04DF91CF91FF90EF90DF90CF9012
:1002700008956DE471E08EE794E00E943C0E8EE7F5
:1002800094E00E94450E80911F04909120040097F5
:1002900011F00E94FC0D1092200410921F0481E0C6
:1002A00080932B0408958091250490912604A091B9
:1002B0002704B09128044091060150910701662758
:1002C00057FD6095762F841B950BA60BB70B80937B
:1002D000250490932604A0932704B09328048091CA
:1002E000250490912604A0912704B09128041816A3
:1002F00019061A061B069CF081E080932A0480915F
:10030000080190910901A0910A01B0910B0180931D
:10031000250490932604A0932704B09328040895FD
:10032000CF93DF93EC0180913304811106C0888163
:100330000E944B0B9A83898306C063E771E08EE7C6
:1003400094E00E94490E6BE571E08EE794E00E9414
:100350003C0E69817A814AE050E08EE794E00E9489
:100360000E0F89819A81DF91CF910895CF92DF920C
:10037000EF92FF920F931F93CF93DF936B01209126
:100380001F0430912004DB010D911C9146E0409F39
:10039000F001419FF00D1124A9014E0F5F1F6DE880
:1003A00070E0EA0179836883AA2797FDA095BA2FA8
:1003B0008A839B83AC83BD83AF014A5F5F4F420F4B
:1003C000531F6CEA70E0EA01798368831A821B820A
:1003D0001C821D827F01DCE0ED0EF11CE20EF31E9B
:1003E0004FEE50E0E7015983488348E050E060E079
:1003F00070E04A835B836C837D83AF014E5E5F4F09
:10040000420F531F6DED70E0EA01798368831A8211
:100410001B821C821D827896E20FF31F2EEB30E0C8
:100420003183208382839383A483B5830C5F1F4F22
:10043000F60111830083DF91CF911F910F91FF90FF
:10044000EF90DF90CF900895CF93DF93C0E0D0E09E
:10045000E0913604F0913704EC0FFD1F61E08081DC
:100460000E94CA0B2196C430D10591F7DF91CF913C
:100470000895FF920F931F93CF93DF9340ED57E0C2
:1004800060E070E08EE394E00E94430920E835E2EA
:1004900040E050E06EE774E08EE394E00E9456097D
:1004A0008EE394E00E9440096EE771E080916F0452
:1004B000909170040E943C0E6AE070E080E090E051
:1004C0000E94D60A41E060E08EE394E00E94C109F8
:1004D00026E040E855E260E070E08EE794E00E949C
:1004E000E30C40E550E060E070E08EE794E00E94AD
:1004F0003A0F61E085E00E94910B61E08AE00E9482
:10050000910B84E090E00E94FA0D90933704809361
:10051000360423E0F22EFC01F082E0913604F091E3
:10052000370404E00183E0913604F091370485E05C
:1005300082838AE083830E94240289E090E00E9403
:10054000FA0DFC011FEFCFEFDFEFD283C1831383DE
:10055000D583C4831683D087C78390932404809364
:1005600023048FE08083E0912304F091240480E150
:1005700083838EE0868388E090E00E94FA0DFC0180
:100580001183D383C2831583D783C6831483909347
:10059000220480932104A0912304B0912404F082CA
:1005A0002D913D914C911297218332834383048393
:1005B00013962D913D914C9125833683478361E0BD
:1005C00083E00E94910BE0912104F091220461E00C
:1005D00084810E94910B60E080910C010E94910B3C
:1005E00083B7817F83BF8091080190910901A09119
:1005F0000A01B0910B018093250490932604A093E7
:100600002704B0932804A0910601B091070120E4CB
:1006100032E44FE050E00E942B11AB01BC0188E3B3
:1006200094E00E94ED082FEF3FEFA90163E571E030
:1006300088E394E00E94FD0881E0809333041092E7
:10064000200410921F0480932B0410921E0460E972
:1006500071E08EE794E0DF91CF911F910F91FF90B1
:100660000C94490E0E94240281E080932B0408958B
:10067000EF92FF920F931F93CF93DF9360E08AE096
:100680000E94CA0B69EA71E08EE794E00E94490E6D
:1006900069EB73E08EE794E00E94490E00E010E001
:1006A000C0E0D0E064EB71E08EE794E00E943C0E85
:1006B0004AE050E0BE018EE794E00E94060F60EC35
:1006C00071E08EE794E00E94490EE0902104F090E2
:1006D0002204E00EF11E63EC71E08EE794E00E94CC
:1006E000490EC70101960E94900169EB73E08EE705
:1006F00094E00E94490E21960C5F1F4FC230D10535
:1007000089F667EE71E08EE794E00E94490E8091D1
:1007100023049091240406960E94900169EB73E0F3
:100720008EE794E00E94490E61E08AE00E94CA0BC5
:100730006DEE71E08EE794E0DF91CF911F910F9104
:10074000FF90EF900C94490E0F931F93CF93DF937C
:1007500083E090E090933504809334040E94380342
:1007600000E010E0C0E0D0E0E0912104F09122042C
:10077000E00FF11F828193818D3B9240CCF08091FC
:100780003404909135040596909335048093340495
:1007900069EF71E08EE794E00E943C0E4AE050E081
:1007A000BE018EE794E00E94060F65E072E00FC084
:1007B00069EF71E08EE794E00E943C0E4AE050E061
:1007C000BE018EE794E00E94060F65E172E08EE7BD
:1007D00094E00E943C0E8EE794E00E94450E64E196
:1007E00070E080E090E00E94D60A21960C5F1F4FD7
:1007F0000830110509F0B8CFDF91CF911F910F910B
:100800000895CF92DF92EF92FF920F931F93CF93B1
:10081000DF9300D0CDB7DEB78C017B0110921E04B0
:100820006DE272E00E943B10882309F4ADC065E3DD
:1008300072E08EE794E00E943C0E8EE794E00E9406
:10084000450E0E94A403C0903404D090350462E4A5
:1008500072E08EE794E00E943C0E4AE050E0B60160
:100860008EE794E00E94060F8EE794E00E94450E0A
:100870002091340430913504213485E1380738F46F
:1008800046E0429FC001439F900D112402C08FEFAC
:100890009FEF0E94FA0D9093200480931F041A8208
:1008A0001982E0912104F0912204828193818D3B91
:1008B000924064F0BE016F5F7F4F80E090E00E9445
:1008C000B60189819A8101969A838983E0912104F6
:1008D000F0912204868197818D3B924064F0BE01A5
:1008E0006F5F7F4F81E090E00E94B60189819A811D
:1008F00001969A83898380911F049091200420910E
:1009000034043091350446E0429FF001439FF00DDE
:100910001124DF015297A80FB91F22E333E011968B
:100920003C932E9312961D921D921D921C92159728
:10093000DF011C97A80FB91F2FEE30E011963C93F2
:100940002E93409108015091090160910A01709124
:100950000B0112964D935D936D937C93159736978B
:10096000E80FF91F89E391E091838083128213825B
:10097000148215826EE472E08EE794E00E943C0ED1
:100980008EE794E00E94450E6DE572E0C8010E947A
:100990003B10882309F44DC064E672E08EE794E0D2
:1009A0000E943C0E8EE794E00E94450E0E942402B5
:1009B00060E070E0CB010E94390160E772E08EE7F1
:1009C00094E00E943C0E8EE794E00E94450E86E083
:1009D00090E090933504809334041A82198284E263
:1009E00090E00E94FA0D9093200480931F04BE01B2
:1009F0006F5F7F4FC7010E94B60120913404309190
:100A0000350446E0429FC001439F900D1124069794
:100A1000E0911F04F0912004E80FF91F89E391E0B1
:100A200091838083128213821482158281E08093E5
:100A30002B0464E170E080E090E00E94D60A0F9001
:100A40000F90DF91CF911F910F91FF90EF90DF906A
:100A5000CF900895AF92BF92CF92DF92EF92FF9224
:100A60000F931F93CF93DF9300D000D000D0CDB76A
:100A7000DEB78C0161E070E00E946B10803329F4D6
:100A80001092330465E872E08CC063E7C8010E94ED
:100A90008910F80124813581AC014F5F5F4FB801A7
:100AA000CE0101960E94AD10CE0101960E94F21077
:100AB0006B017C01CE0101960E94400F63E972E058
:100AC0008EE794E00E943C0E4AE050E0B6018EE7CB
:100AD00094E00E940E0F61E070E0C8010E946B106C
:100AE000803709F03FC06AE972E08EE794E00E9427
:100AF0003C0E62E070E0C8010E946B10682F8EE728
:100B000094E00E945B0EA0902104B090220462E069
:100B100070E0C8010E946B10F50194E08902E00DBD
:100B2000F11D1124E05CF109D382C282A09021045E
:100B3000B090220462E070E0C8010E946B10E4E013
:100B40008E02A00CB11C1124C501805C91095C01CE
:100B500063EC71E08EE794E00E94490EC5010196B6
:100B60000E94900161E070E0C8010E946B1087371D
:100B700081F469EA72E08EE794E00E943C0E809175
:100B8000230490912404FC01D086C78206960E941B
:100B9000900164EB72E08EE794E00E94490E6FEBE7
:100BA00072E08EE794E00E94490E26960FB6F89404
:100BB000DEBF0FBECDBFDF91CF911F910F91FF9090
:100BC000EF90DF90CF90BF90AF900895CF92DF92DB
:100BD000EF92FF92CF93DF93CDB7DEB72C970FB68E
:100BE000F894DEBF0FBECDBF60E070E08CE294E011
:100BF0000E946B10843659F46CE274E0CE010196C9
:100C00000E94DB0FCE0101960E942A05C2C060E05F
:100C100070E08CE294E00E946B10873709F06CC0A2
:100C20000E9438036CE373E0CE0107960E94AE0F7A
:100C3000BE01695F7F4F8CE294E00E94A910209171
:100C4000300430913104AC014F5F5F4F6CE274E0CF
:100C5000CE0101960E94AD10CE0101960E94F210C5
:100C60006B017C01CE0101960E94400FCE010796D8
:100C70000E94400FC601880F991F880F991FE091AD
:100C80002104F0912204E80FF91F828193818C3BAB
:100C9000924094F46FEC72E08EE794E00E943C0E78
:100CA0004AE050E0B6018EE794E00E94060F8EE71E
:100CB00094E00E94450E20C06CEE72E08EE794E056
:100CC0000E943C0E4AE050E0B6018EE794E00E949C
:100CD000060F8EE794E00E94450E6DE572E0CE01AE
:100CE00001960E94AE0FB601CE0101960E9401044A
:100CF000CE0101960E94400F60E070E08CE294E02B
:100D00000E946B10863609F048C06CE373E0CE0198
:100D100007960E94AE0FBE01695F7F4F8CE294E0A0
:100D20000E94A9102091300430913104AC014F5F32
:100D30005F4F6CE274E0CE0101960E94AD10CE01CF
:100D400001960E94F2106B017C01CE0101960E9477
:100D5000400FCE0107960E94400F6EE073E08EE7D1
:100D600094E00E943C0E4AE050E0B6018EE794E029
:100D70000E94060F8EE794E00E94450E6DE572E03A
:100D8000CE0101960E94AE0FB601CE0101960E94DF
:100D90000104CE0101960E94400F2C960FB6F894E4
:100DA000DEBF0FBECDBFDF91CF91FF90EF90DF9000
:100DB000CF90089583B7816083BF40E050E069E839
:100DC00070E080E00E94DD09E4E6F0E0808181606F
:100DD0008083808184608083808180628083808141
:100DE0008064808380818068808383B7816083BFD3
:100DF000889583B78E7F83BF83B78E7F83BF8081C3
:100E00008F77808380818F7B808380818F7D8083BB
:100E100080818B7F808380818E7F808380E00E94B1
:100E2000FD0967E373E08EE794E00E94490E60E5F8
:100E300070E080E090E00C94D60A69EB73E08CE2FD
:100E400094E00E94AE0F8091080190910901A09159
:100E50000A01B0910B018093250490932604A0937E
:100E60002704B093280408958CE294E00C94400F7A
:100E700069EB73E08CE294E00E94E40F8EE794E06B
:100E80000E94000C1816190664F48EE794E00E9484
:100E9000190C80933204682F8CE294E00E94281091
:100EA000EDCF08951F93CF93DF9300D000D000D0F3
:100EB000CDB7DEB76EE373E08EE794E00E943C0EA0
:100EC0008EE794E00E94450E809129048823E1F08A
:100ED0001092290467E473E08EE794E00E943C0ED0
:100EE0008EE794E00E94450E0E9438076CE274E0A1
:100EF000CE0101960E94DB0FCE0101960E94E6050D
:100F0000CE0101960E94400F80912A04811105C0F4
:100F100080912B04882309F481C010922B04109235
:100F20002A046EE673E08EE794E00E943C0E8EE7A2
:100F300094E00E94450E80911F0490912004892B1B
:100F4000D1F461E573E08EE794E00E943C0E8EE7F9
:100F500094E00E94450E6DE272E0CE0101960E947F
:100F6000AE0F6FEF7FEFCE0101960E940104CE011C
:100F700001960E94400F10911E046FE573E08EE70A
:100F800094E00E943C0E4AE050E0612F8EE794E02E
:100F90000E94330F8EE794E00E94450E80911E045C
:100FA000E0911F04F091200496E0899FE00DF11D6F
:100FB000112462817381848195810190F081E02DFB
:100FC000099510911E041F5F10931E046DE573E0D8
:100FD0008EE794E00E943C0E612F70E06150710931
:100FE0004AE050E08EE794E00E94060F8EE794E01E
:100FF0000E94450E67E673E08EE794E00E943C0E87
:101000008EE794E00E94450E26960FB6F894DEBF58
:101010000FBECDBFDF91CF911F9108956AE973E0B4
:101020008EE794E00E943C0E8EE794E00E94450E0D
:1010300010922B0410922A0440912504509126040A
:1010400060912704709128042AE030E08EE794E054
:101050000E94BC0E67E873E08EE794E00E943C0EAD
:101060008EE794E00E94450E6091060170910701A1
:101070004AE050E08EE794E00E94060F6CE873E0CF
:101080008EE794E00E943C0E8EE794E00E94450EAD
:1010900064E670E080E090E00E94D60A0E94DA06E2
:1010A00040E050E069E870E080E00E94DD0969E915
:1010B00073E08EE794E00E943C0E98CF1F920F924F
:1010C0000FB60F9211242F933F934F935F936F931B
:1010D0007F938F939F93AF93BF93EF93FF93E09191
:1010E0003C04F0913D040995FF91EF91BF91AF91C0
:1010F0009F918F917F916F915F914F913F912F9130
:101100000F900FBE0F901F901895FC01A3E0440FA5
:10111000551F661F771FAA95D1F74115510581E02C
:101120006807710514F481E00EC033E0759567958A
:10113000579547953A95D1F74115510581E06807D4
:1011400071051CF482E0828331C023E075956795B8
:10115000579547952A95D1F74115510581E06807C4
:10116000710514F483E0EFCF92E07595679557957C
:1011700047959A95D1F74115510581E068077105AA
:1011800014F484E0E0CF82E0759567955795479514
:101190008A95D1F785E082834115510581E0680782
:1011A000710524F04FEF5FEF60E070E08FB783834D
:1011B000F894518340835093870040938600838145
:1011C0008FBF80918100887F809381008091810012
:1011D0009281892B8093810008951092800020E1F4
:1011E000209381000C948508E1E8F0E02081DC0187
:1011F00012968C91282B208308950F931F93CF93E1
:10120000DF93EC018B01BA01A9011416150616062D
:10121000170614F40E9485081D830C8381E08093D7
:101220006F00CE01DF91CF911F910F910C94F408C4
:101230000F931F93CF93DF93EC01662359F00E9425
:10124000A70A69837A838B839C83DF91CF911F9157
:101250000F9108950E94A70A09811A812B813C8170
:10126000601B710B820B930B613271058105910537
:1012700030F763E070E080E090E00E94D60AEACFA9
:1012800060E00C941809FC0113AA14AA15AA16AA66
:101290001182128213821482411551056105710574
:1012A00021F0CB01BA010C94D60A0895FB01BA01D2
:1012B000A901DC01D296FC93EE93D19726E0CF01F1
:1012C0000C94E30C1F93CF93DF93EC01162F6AEA83
:1012D00073E089A99AA90E943C0E4AE050E0612F70
:1012E00089A99AA90E94330F61EB73E089A99AA991
:1012F0000E943C0E62E370E080E090E0DF91CF91CD
:101300001F910C94D60A1F93CF93DF93EC01162FF5
:101310008D81882389F189A99AA9DC01ED91FC913D
:101320000480F581E02D0995892BA9F307C02637A4
:10133000310519F12835310509F41D8289A99AA9C9
:10134000DC01ED91FC910480F581E02D09951816E2
:10135000190694F489A99AA9DC01ED91FC91068003
:10136000F781E02D09959C01332723363105F9F6E5
:10137000612FCE010E94620983E6DF91CF911F9118
:1013800008950F931F93CF93DF931F92CDB7DEB7CE
:101390008C01662349F081E0F801858360E0C80193
:1013A00049830E9483094981F80145830F90DF91A9
:1013B000CF911F910F91089508958230E8F4E82F9E
:1013C000F0E0EE0FFF1FE25FFE4F7183608381301C
:1013D00041F0809169008C7F842B80936900E89AAA
:1013E000089580916900440F551F440F551F837F56
:1013F000842B80936900E99A0895823078F48130D3
:1014000011F0E89801C0E998E82FF0E0EE0FFF1F17
:10141000E25FFE4F8CED99E09183808308951F92E7
:101420000F920FB60F9211242F933F934F935F9318
:101430006F937F938F939F93AF93BF93EF93FF939C
:10144000E0910E01F0910F010995FF91EF91BF918D
:10145000AF919F918F917F916F915F914F913F914C
:101460002F910F900FBE0F901F9018951F920F9203
:101470000FB60F9211242F933F934F935F936F9367
:101480007F938F939F93AF93BF93EF93FF93E091DD
:101490001001F09111010995FF91EF91BF91AF916A
:1014A0009F918F917F916F915F914F913F912F917C
:1014B0000F900FBE0F901F9018951F920F920FB6AE
:1014C0000F9211242F933F938F939F93AF93BF93CA
:1014D0008091760490917704A0917804B09179047A
:1014E0003091750423E0230F2D3720F40196A11DC0
:1014F000B11D05C026E8230F0296A11DB11D209342
:1015000075048093760490937704A0937804B09345
:10151000790480917A0490917B04A0917C04B0912D
:101520007D040196A11DB11D80937A0490937B04E4
:10153000A0937C04B0937D04BF91AF919F918F9154
:101540003F912F910F900FBE0F901F9018952FB7BE
:10155000F89460917604709177048091780490916A
:1015600079042FBF08953FB7F89480917A04909141
:101570007B04A0917C04B0917D0426B5A89B05C096
:101580002F3F19F00196A11DB11D3FBF6627782F8F
:10159000892F9A2F620F711D811D911D42E0660FE8
:1015A000771F881F991F4A95D1F708958F929F92B0
:1015B000AF92BF92CF92DF92EF92FF926B017C01CC
:1015C0000E94B30A4B015C01C114D104E104F1048F
:1015D000F1F00E94FD100E94B30A681979098A0986
:1015E0009B09683E73408105910570F321E0C21AA2
:1015F000D108E108F10888EE880E83E0981EA11C4E
:10160000B11CC114D104E104F10429F7DDCFFF902E
:10161000EF90DF90CF90BF90AF909F908F90089504
:10162000789484B5826084BD84B5816084BD85B5BD
:10163000826085BD85B5816085BDEEE6F0E0808184
:1016400081608083E1E8F0E01082808182608083A5
:10165000808181608083E0E8F0E080818160808328
:10166000E1EBF0E0808184608083E0EBF0E080815A
:1016700081608083EAE7F0E08081846080838081FC
:1016800082608083808181608083808180688083A4
:101690001092C10008958E3008F08E50877020910E
:1016A000120190E4299F90011124822B80937C00E9
:1016B00080917A00806480937A0080917A0086FD20
:1016C000FCCF809178002091790090E0922B0895D2
:1016D000833081F028F4813099F08230A1F00895B0
:1016E0008730A9F08830B9F08430D1F4809180003F
:1016F0008F7D03C0809180008F7780938000089554
:1017000084B58F7702C084B58F7D84BD08958091A4
:10171000B0008F7703C08091B0008F7D8093B000C0
:101720000895CF93DF9390E0FC01E458FF4F24919C
:10173000FC01E057FF4F8491882349F190E0880F26
:10174000991FFC01E255FF4FA591B4918C559F4F15
:10175000FC01C591D4919FB7611108C0F8948C9198
:10176000209582238C93888182230AC0623051F4B1
:10177000F8948C91322F309583238C938881822B1F
:10178000888304C0F8948C91822B8C939FBFDF9147
:10179000CF9108950F931F93CF93DF931F92CDB7EF
:1017A000DEB7282F30E0F901E859FF4F8491F901A5
:1017B000E458FF4F1491F901E057FF4F04910023C3
:1017C000C9F0882321F069830E94680B6981E02FAA
:1017D000F0E0EE0FFF1FEC55FF4FA591B4919FB7BE
:1017E000F8948C91611103C01095812301C0812B65
:1017F0008C939FBF0F90DF91CF911F910F91089510
:10180000FC01818D228D90E0805C9F4F821B9109AD
:101810008F7399270895FC01918D828D981731F06F
:10182000828DE80FF11D858D90E008958FEF9FEF79
:101830000895FC01918D828D981761F0828DDF01F2
:10184000A80FB11D5D968C91928D9F5F9F73928FB3
:1018500090E008958FEF9FEF08958DE99DE0892B2B
:1018600049F080E090E0892B29F00E949D0D8111C4
:101870000C9400000895FC01848DDF01A80FB11DB8
:10188000A35ABF4F2C91848D90E001968F739927B6
:10189000848FA689B7892C93A089B1898C918064A3
:1018A0008C93938D848D981306C00288F389E02D64
:1018B00080818F7D80830895CF93DF93EC01888DA5
:1018C0008823C9F0EA89FB89808185FD05C0A88944
:1018D000B9898C9186FD0FC00FB607FCF5CF8081CA
:1018E00085FFF2CFA889B9898C9185FFEDCFCE0114
:1018F0000E943B0CE7CFDF91CF910895CF92DF920A
:10190000FF920F931F93CF93DF931F92CDB7DEB754
:101910006C0181E0D60158968C9358975B969C9108
:101920005B975C968C915C97981307C05096ED91ED
:10193000FC915197808185FD2EC0F601038D10E04A
:101940000F5F1F4F0F731127F02EF601848DF812D1
:1019500011C00FB607FCF9CFD6015096ED91FC915E
:101960005197808185FFF1CFC60169830E943B0CAE
:101970006981EBCF838DE80FF11DE35AFF4F608340
:10198000D6015B960C935B975296ED91FC91539721
:10199000808180620CC0D6015696ED91FC915797DC
:1019A00060835096ED91FC91519780818064808393
:1019B00081E090E00F90DF91CF911F910F91FF9008
:1019C000DF90CF900895BF92CF92DF92EF92FF9277
:1019D000CF93DF93EC016A017B01B22EE889F9898C
:1019E00082E08083411581EE580761057105A1F001
:1019F00060E079E08DE390E0A70196010E94FE107F
:101A00002150310941095109569547953795279538
:101A1000211580E1380798F0E889F989108260E89B
:101A200074E88EE190E0A70196010E94FE1021501B
:101A30003109410951095695479537952795EC8508
:101A4000FD853083EE85FF852083188EEC89FD8926
:101A5000B082EA89FB89808180618083EA89FB8981
:101A6000808188608083EA89FB89808180688083A7
:101A7000EA89FB8980818F7D8083DF91CF91FF9000
:101A8000EF90DF90CF90BF9008951F920F920FB606
:101A90000F9211242F938F939F93EF93FF93E091D5
:101AA0008E04F0918F048081E0919404F09195046C
:101AB00082FD12C09081809197048F5F8F73209177
:101AC0009804821751F0E0919704F0E0E258FB4F40
:101AD000958F8093970401C08081FF91EF919F9132
:101AE0008F912F910F900FBE0F901F9018951F92FE
:101AF0000F920FB60F9211242F933F934F935F9342
:101B00006F937F938F939F93AF93BF93EF93FF93C5
:101B10008EE794E00E943B0CFF91EF91BF91AF9153
:101B20009F918F917F916F915F914F913F912F91F5
:101B30000F900FBE0F901F9018958EE794E00E94B3
:101B4000000C21E0892B09F420E0822F08951092E7
:101B500081041092800488EE93E0A0E0B0E08093CE
:101B6000820490938304A0938404B093850486E058
:101B700094E090937F0480937E0485EC90E09093B2
:101B80008B0480938A0484EC90E090938D0480937E
:101B90008C0480EC90E090938F0480938E0481EC11
:101BA00090E0909391048093900482EC90E0909365
:101BB00093048093920486EC90E090939504809334
:101BC0009404109297041092980410929904109221
:101BD0009A04089508950E94100B0E94EA0D0E9435
:101BE0003902CDE2DCE00E9452072097E1F30E9427
:101BF0002D0CF9CF0C9448110C94E011CF92DF9288
:101C0000EF92FF920F931F93CF93DF937C016A01B2
:101C1000EB0100E010E00C151D0571F06991D70192
:101C2000ED91FC910190F081E02DC7010995892B80
:101C300019F00F5F1F4FEFCFC801DF91CF911F91B8
:101C40000F91FF90EF90DF90CF900895611571058F
:101C500081F0DB010D900020E9F7AD014150510901
:101C6000461B570BDC01ED91FC910280F381E02DC6
:101C7000099480E090E008950C94260EDC01ED912B
:101C8000FC910190F081E02D099467EB73E00C94D6
:101C9000260E0F931F93CF93DF93EC010E94260E25
:101CA0008C01CE010E94450E800F911FDF91CF91D4
:101CB0001F910F9108950F931F93CF93DF93EC0122
:101CC0000E943E0E8C01CE010E94450E800F911F96
:101CD000DF91CF911F910F9108958F929F92AF92B4
:101CE000BF92DF92EF92FF920F931F93CF93DF93F8
:101CF000CDB7DEB7A1970FB6F894DEBF0FBECDBF4C
:101D00007C01F42FD52ECB0119A2223008F42AE051
:101D10008E010F5D1F4F822E912CA12CB12C6F2FA5
:101D20007D2DA50194010E94FE10F22FD32ECA0131
:101D3000015011096A3014F4E0E301C0E7E3E60F53
:101D4000D801EC93232B242B252B49F7B801C7018D
:101D50000E94260EA1960FB6F894DEBF0FBECDBF2F
:101D6000DF91CF911F910F91FF90EF90DF90BF9087
:101D7000AF909F908F900895CF92DF92EF92FF9255
:101D80000F931F93CF93DF93EC016A017B01211521
:101D9000310579F4E881F9810190F081E02D642F1B
:101DA000DF91CF911F910F91FF90EF90DF90CF9037
:101DB00009942A303105E9F477FF1AC06DE20E94D8
:101DC0003E0E8C0144275527BA014C195D096E0956
:101DD0007F092AE0CE010E946D0E800F911FDF91D6
:101DE000CF911F910F91FF90EF90DF90CF900895CA
:101DF0002AE0B701A601CE01DF91CF911F910F918B
:101E0000FF90EF90DF90CF900C946D0E9A01AB0194
:101E1000662757FD6095762F0C94BC0E0F931F9389
:101E2000CF93DF93EC019A01AB01662757FD6095D4
:101E3000762F0E94BC0E8C01CE010E94450E800FB1
:101E4000911FDF91CF911F910F91089521153105B9
:101E500041F4DC01ED91FC910190F081E02D642FC3
:101E600009940C946D0E9A01462F50E060E070E0EA
:101E70000C94260FFC014483558366837783089571
:101E8000FC01808191810C94E011CF93DF93EC01F0
:101E900088819981009711F00E94E01119821882BF
:101EA0001D821C821B821A82DF91CF9108950F93AD
:101EB0001F93CF93DF93EC018B016F5F7F4F88817E
:101EC00099810E946F12009731F0998388831B8358
:101ED0000A8381E001C080E0DF91CF911F910F91D3
:101EE0000895CF93DF93EC0188819981892B29F0A4
:101EF0008A819B818617970760F4CE010E94570F55
:101F0000882341F08C819D81892B19F4E881F98126
:101F1000108281E0DF91CF910895EF92FF920F93AD
:101F20001F93CF93DF93EC017B018A01BA010E94DA
:101F3000710F811104C0CE010E94450F07C01D839F
:101F40000C83B701888199810E947D13CE01DF91B6
:101F5000CF911F910F91FF90EF900895FC01118296
:101F6000108213821282158214826115710559F054
:101F7000FB0101900020E9F7AF0141505109461BD8
:101F8000570B0C948D0F0895CF93DF93EC01FB0159
:101F90008617970761F0608171816115710529F0DD
:101FA000448155810E948D0F02C00E94450FCE01D1
:101FB000DF91CF910895FC01118210821382128269
:101FC000158214820C94C40FCF93DF93EC0161153A
:101FD000710561F0FB0101900020E9F7AF0141506C
:101FE0005109461B570B0E948D0F02C00E94450FDE
:101FF000CE01DF91CF910895EF92FF920F931F933F
:10200000CF93DF93EC017B010C811D81611571057C
:1020100011F480E016C04115510591F0040F151F11
:10202000B8010E94710F8823A1F3288139818C8126
:102030009D81B701820F931F0E947D131D830C8326
:1020400081E0DF91CF911F910F91FF90EF90089564
:10205000CF93DF9300D0CDB7DEB769831A8241E01A
:1020600050E0BE016F5F7F4F0E94FC0F0F900F90FA
:10207000DF91CF910895FC0124813581232B31F428
:1020800021E061157105A1F0FB0108C0FC01808110
:1020900091816115710531F421E0FC018081882373
:1020A00039F005C00E94741321E0892B09F020E06B
:1020B000822F0895FC01248135816217730748F44B
:1020C00080819181009729F0FC01E60FF71F808144
:1020D000089580E008950C945A10CF93DF93FC018B
:1020E000848195814817590778F4C081D181772779
:1020F00067FD7095CE01840F951F0E9469130097AC
:1021000019F08C1B9D0B02C08FEF9FEFDF91CF91D9
:10211000089540E050E00C946D10CF93DF93FC01E4
:10212000848195814817590778F4C081D181FB01DA
:1021300060817181CE01840F951F0E9484130097E6
:1021400019F08C1B9D0B02C08FEF9FEFDF91CF9199
:10215000089540E050E00C948D10BF92CF92DF9232
:10216000EF92FF920F931F93CF93DF936C017B014C
:10217000EA0189012417350720F48D2FE901042F86
:10218000182F69EB73E0C6010E94AE0FD7011496B9
:102190008D919C911597C817D907C8F4801791079E
:1021A00008F48C01D701ED91FC911197E00FF11F1C
:1021B000B08010826D917C916C0F7D1FC6010E94D2
:1021C000E40FD701ED91FC91E00FF11FB082C60141
:1021D000DF91CF911F910F91FF90EF90DF90CF9003
:1021E000BF900895FC0180819181009711F00C94BB
:1021F000391360E070E0CB0108950895A1E21A2E32
:10220000AA1BBB1BFD010DC0AA1FBB1FEE1FFF1F9A
:10221000A217B307E407F50720F0A21BB30BE40BEA
:10222000F50B661F771F881F991F1A9469F7609531
:102230007095809590959B01AC01BD01CF010895EB
:102240000E943911A59F900DB49F900DA49F800D01
:10225000911D11240895B7FF0C9420110E942011A4
:10226000821B930B0895EE0FFF1F0590F491E02D54
:102270000994A29FB001B39FC001A39F700D811D5F
:102280001124911DB29F700D811D1124911D08957F
:10229000CF93DF938230910510F482E090E0E091DB
:1022A0001D05F0911E0520E030E0A0E0B0E0309781
:1022B00039F14081518148175907B8F0481759073B
:1022C00071F482819381109729F013969C938E93D9
:1022D00012972CC090931E0580931D0527C02115D1
:1022E000310531F04217530718F0A901DB0101C095
:1022F000EF019A01BD01DF010280F381E02DD7CF0C
:1023000021153105F9F0281B390B2430310580F4F3
:102310008A819B816115710521F0FB019383828382
:1023200004C090931E0580931D05FE01329644C0A3
:10233000FE01E20FF31F81939193225031093983FB
:1023400028833AC020911B0530911C05232B41F4B2
:10235000209102013091030130931C0520931B054D
:1023600020910001309101012115310541F42DB773
:102370003EB74091040150910501241B350BE091BB
:102380001B05F0911C05E217F307A0F42E1B3F0B71
:102390002817390778F0AC014E5F5F4F24173507D7
:1023A00048F04E0F5F1F50931C0540931B0581930F
:1023B000919302C0E0E0F0E0CF01DF91CF9108956A
:1023C000CF93DF93009709F487C0FC013297138203
:1023D0001282C0911D05D0911E05209781F42081A5
:1023E0003181280F391F80911B0590911C058217A0
:1023F000930779F5F0931C05E0931B056DC0DE0192
:1024000020E030E0AE17BF0750F412964D915C917A
:1024100013979D014115510509F1DA01F3CFB383FB
:10242000A28340815181840F951F8A179B0771F405
:102430008D919C911197840F951F029691838083B3
:1024400012968D919C911397938382832115310568
:1024500029F4F0931E05E0931D053EC0D9011396A3
:10246000FC93EE9312974D915D91A40FB51FEA175F
:10247000FB0779F480819181840F951F0296D90121
:1024800011969C938E938281938113969C938E9345
:102490001297E0E0F0E08A819B81009719F0FE013D
:1024A000EC01F9CFCE01029628813981820F931F6A
:1024B00020911B0530911C052817390769F43097C6
:1024C00029F410921E0510921D0502C0138212827B
:1024D000D0931C05C0931B05DF91CF910895A0E018
:1024E000B0E0E5E7F2E10C94B713EC01CB012097E3
:1024F00019F40E944811B8C0FE01E60FF71F9E01B3
:1025000022503109E217F30708F4ACC0D9010D914C
:102510001C91119706171707B8F00530110508F43C
:102520009FC0A801445051094617570708F498C0A6
:1025300002501109061B170B019311936D937C93A5
:10254000CF010E94E0118CC05B01A01AB10A4E01BC
:10255000800E911EA0911D05B0911E05612C712C5D
:1025600060E070E0109709F449C0A815B905C9F5F5
:10257000ED90FC901197670142E0C40ED11CCA1483
:10258000DB0478F147018A189B08640142E0C40E1D
:10259000D11C1296BC9012971396AC91B5E0CB1655
:1025A000D10440F0B282A38391828082D9018D93BD
:1025B0009C9309C00E5F1F4F0E0D1F1DF901118363
:1025C0000083EB2DFA2F6115710531F0DB011396B5
:1025D000FC93EE93129744C0F0931E05E0931D0503
:1025E0003FC06D917C9111976616770608F43B0108
:1025F000BD0112960D90BC91A02DB4CF60911B052A
:1026000070911C0568157905E9F468167906D0F40F
:1026100040910001509101014115510541F44DB720
:102620005EB76091040170910501461B570BE417DA
:10263000F507C0F4F0931C05E0931B05F9019183A5
:1026400080830EC00E9448117C01009759F0A801B8
:10265000BE010E946013CE010E94E011C70104C0B8
:10266000CE0102C080E090E0CDB7DEB7EEE00C9482
:10267000D3131F93FC0199278827BC01E89411917B
:102680001032E9F3193010F01E30C8F31B3251F04C
:102690001D3249F4689406C00E949E13610F711D9B
:1026A000811D911D119110531A30B0F33EF4909595
:1026B0008095709561957F4F8F4F9F4F1F91089523
:1026C000FB01DC0102C001900D9241505040D8F74F
:1026D0000895FC018191861721F08823D9F7992765
:1026E00008953197CF010895FB01DC018D91019090
:1026F00080190110D9F3990B0895FB01DC010190B9
:102700000D920020E1F70895FB0151915523A9F0A6
:10271000BF01DC014D9145174111E1F759F4CD019D
:102720000190002049F04D9140154111C9F3FB0182
:102730004111EFCF81E090E001970895592F482F84
:10274000372F262F660F771F881F991F660F771F59
:10275000881F991F620F731F841F951F660F771FB5
:10276000881F991F08952F923F924F925F926F9208
:102770007F928F929F92AF92BF92CF92DF92EF9211
:10278000FF920F931F93CF93DF93CDB7DEB7CA1B92
:10279000DB0B0FB6F894DEBF0FBECDBF09942A88BD
:1027A000398848885F846E847D848C849B84AA8465
:1027B000B984C884DF80EE80FD800C811B81AA81F2
:1027C000B981CE0FD11D0FB6F894DEBF0FBECDBFBD
:1027D000ED01089510E0CCEBD0E004C0FE010E94B2
:0E27E00035112296CE3BD107C9F7F894FFCFF2
:1027EE0000001F0580000800280000000200DC0920
:1027FE00DC090156616C76654F6E0050756D704F39
:10280E006E0056616C76654F46460050756D704F82
:10281E00464600536C65657000736563203D20006D
:10282E0074696D5F6379636C65203D20005265733A
:10283E0065745363686564756C650020202053656C
:10284E006E736F722E61736B28292056616C7565DD
:10285E003A20002020444556204D4F444500564D09
:10286E004450565F317C315F564D4450560D0A0030
:10287E00496E697469616C69736174696F6E206306
:10288E006F6D706C6574652E0053454E534F5253E9
:10289E00204F4E002D2D20464C4F574552202300E1
:1028AE00203A00202020506C616E742E61736B28CC
:1028BE00292041736B696E6720687967726F6D6549
:1028CE007465722E2E2E002D2D2057530053454E1B
:1028DE00534F5253204F46460054686520666C6F26
:1028EE007765722000206E6565647320776174656C
:1028FE0072696E670020646F6573206E6F74206E50
:10290E00656564207761746572696E6700646566DB
:10291E0061756C740064656661756C74206D6F64AE
:10292E0065007363682073697A65203D20005363E8
:10293E00686564756C65206275696C740063757387
:10294E00746F6D00637573746F6D206D6F646500C9
:10295E0044656C65746564204F4C442073636865F0
:10296E0064756C650020204465764D6F6465204F5C
:10297E0046460056616C203D2000546172676574B6
:10298E003A20706C616E7420005461726765743AFF
:10299E00205753004465764D6F6465204F4E0050AE
:1029AE0072696E7420643020746F204F4646004466
:1029BE006F6E2774206E6565642077617465726929
:1029CE006E6720706C616E7420232000426567690B
:1029DE006E20746F20637573746F6D2077617465EC
:1029EE0072696E6720706C616E74202320004265E0
:1029FE0067696E20746F20637573746F6D20464F18
:102A0E0052434544207761746572696E6720706C1D
:102A1E00616E742023200057616B655570004E6502
:102A2E0077204C6F6F700057616B65757020425444
:102A3E00004E6F207363686564756C65002F2053BC
:102A4E00746570202320002F204C6F6F700057612B
:102A5E006B6575702054494D4552202F204E4558B8
:102A6E005420535445500020736563002074696DE3
:102A7E006572206379636C65002F536C65657020F9
:102A8E0073656374696F6E000304564D4450435F63
:102A9E00005F564D4450430D0A004572726F723AF4
:102AAE0020417474656D707420746F20736574208A
:102ABE006120726561642D6F6E6C7920766172692A
:102ACE0061626C65206F722064617461207479702C
:102ADE0065206E6F7420737570706F727465640DFF
:102AEE000A00000000007E0CFE0D000C190C0B0CF1
:0E2AFE005C0C6E616E00696E66006F7666009D
:00000001FF
