:100000000C945F000C94A5080C94CC080C94870009
:100010000C9487000C9487000C9487000C94870044
:100020000C9487000C9487000C9487000C94870034
:100030000C9487000C94F4060C9487000C948700B1
:100040000C94F3080C9487000C94DB0B0C940D0CAF
:100050000C9487000C9487000C9487000C94870004
:100060000C9487000C948700000000080002010037
:100070000003040700000000000000000102040863
:100080001020408001020408102001020408102002
:10009000040404040404040402020202020203032E
:1000A0000303030300000000250028002B000000CC
:1000B0000000240027002A008C053D0CA305112414
:1000C0001FBECFEFD8E0DEBFCDBF14E0A0E0B1E0AF
:1000D000E6E5F4E202C005900D92A837B107D9F722
:1000E00025E0A8E7B4E001C01D92A737B207E1F709
:1000F00010E0CCEBD0E004C02297FE010E948C0FF0
:10010000C83BD107C9F70E94810C0C941E120C94B5
:10011000000081E0809383040895CF92DF92EF92F4
:10012000FF926B017C0163E171E086ED94E00E9437
:10013000D20C86ED94E00E94DB0CF601EE5FFB4FE3
:1001400060E080810E94600A81E080938504FF90D6
:10015000EF90DF90CF9008956BE171E086ED94E031
:100160000E94D20C86ED94E00E94DB0C60E085E0FA
:100170000E94600A81E0809385040895CF92DF9207
:10018000EF92FF926B017C0162E271E086ED94E0F8
:100190000E94D20C86ED94E00E94DB0CF601EE5F2B
:1001A000FB4F61E080810E94600A81E080938504BA
:1001B000FF90EF90DF90CF9008956BE271E086EDB5
:1001C00094E00E94D20C86ED94E00E94DB0C61E08A
:1001D00085E00E94600A81E0809385040895CF92B3
:1001E000DF92EF92FF92CF93DF936B017C0163E389
:1001F00071E086ED94E00E94D20C86ED94E00E94BE
:10020000DB0C69E371E086ED94E00E94D20C2AE0F9
:1002100030E0B701A60186ED94E00E94520D86ED14
:1002200094E00E94DB0CC0910601D091070160E4CC
:1002300071E086ED94E00E94D20C4AE050E0BE01ED
:1002400086ED94E00E949C0D86ED94E00E94DB0C0C
:10025000C0927F04D0928004E0928104F0928204E4
:1002600010928404DF91CF91FF90EF90DF90CF90B8
:1002700008956DE471E086ED94E00E94D20C86ED65
:1002800094E00E94DB0C8091790490917A040097AD
:1002900011F00E94920C10927A041092790481E07D
:1002A00080938504089580917F0490918004A091AB
:1002B0008104B091820440910601509107016627A4
:1002C00057FD6095762F841B950BA60BB70B80937B
:1002D0007F0490938004A0938104B0938204809162
:1002E0007F0490918004A0918104B091820418163B
:1002F00019061A061B069CF081E080938404809105
:10030000080190910901A0910A01B0910B0180931D
:100310007F0490938004A0938104B0938204089595
:10032000CF93DF93EC0180918D04811106C0888109
:100330000E94E1099A83898306C063E771E086ED34
:1003400094E00E94DF0C6BE571E086ED94E00E9482
:10035000D20C69817A814AE050E086ED94E00E94F7
:10036000A40D89819A81DF91CF910895CF92DF9278
:10037000EF92FF920F931F93CF93DF936B01209126
:10038000790430917A04DB010D911C9146E0409F85
:10039000F001419FF00D1124A9014E0F5F1F6DE880
:1003A00070E0EA0179836883AA2797FDA095BA2FA8
:1003B0008A839B83AC83BD83AF014A5F5F4F420F4B
:1003C000531F6CEA70E0EA01798368831A821B820A
:1003D0001C821D827F01DCE0ED0EF11CE20EF31E9B
:1003E0004FEE50E0E7015983488340E150E060E080
:1003F00070E04A835B836C837D83AF014E5E5F4F09
:10040000420F531F6DED70E0EA01798368831A8211
:100410001B821C821D827896E20FF31F2EEB30E0C8
:100420003183208382839383A483B5830C5F1F4F22
:10043000F60111830083DF91CF911F910F91FF90FF
:10044000EF90DF90CF900895CF93DF93C0E0D0E09E
:10045000E0918E04F0918F04EC0FFD1F61E080812C
:100460000E94600A2196C430D10591F7DF91CF91A7
:100470000895FF920F931F93CF93DF9340ED57E0C2
:1004800060E070E086E994E00E94D90720E835E258
:1004900040E050E066ED74E086E994E00E94EC07ED
:1004A00086E994E00E94D6076EEE71E08091C70461
:1004B0009091C8040E94D20C6AE070E080E090E065
:1004C0000E946C0941E060E086E994E00E945708D0
:1004D00026E040E855E260E070E086ED94E00E949E
:1004E000790B40E550E060E070E086ED94E00E941A
:1004F000D00D61E085E00E94270A61E08AE00E9459
:10050000270A84E090E00E94900C90938F048093DF
:100510008E0423E0F22EFC01F082E0918E04F09133
:100520008F0404E00183E0918E04F0918F0485E054
:1005300082838AE083830E94240289E090E00E9403
:10054000900CFC011FEFCFEFDFEFD283C183138349
:10055000D583C4831683D087C78390937E0480930A
:100560007D048FE08083E0917D04F0917E0480E142
:1005700083838EE0868388E090E00E94900CFC01EB
:100580001183D383C2831583D783C6831483909347
:100590007C0480937B04A0917D04B0917E04F08262
:1005A0002D913D914C911297218332834383048393
:1005B00013962D913D914C9125833683478361E0BD
:1005C00083E00E94270AE0917B04F0917C0461E0C3
:1005D00084810E94270A60E080910C010E94270A12
:1005E00083B7817F83BF8091080190910901A09119
:1005F0000A01B0910B0180937F0490938004A09333
:100600008104B0938204A0910601B091070120E417
:1006100032E44FE050E00E94820FAB01BC0180E960
:1006200094E00E9483072FEF3FEFA90163E571E09B
:1006300080E994E00E94930781E080938D041092FA
:100640007A0410927904809385041092780460E013
:1006500072E086ED94E0DF91CF911F910F91FF90B2
:100660000C94DF0CEF92FF920F931F93CF93DF93C5
:1006700060E08AE00E94600A69E172E086ED94E041
:100680000E94DF0C63E174E086ED94E00E94DF0CD1
:1006900000E010E0C0E0D0E064E272E086ED94E0BB
:1006A0000E94D20C4AE050E0BE0186ED94E00E9428
:1006B0009C0D60E372E086ED94E00E94DF0CE09018
:1006C0007B04F0907C04E00EF11E63E372E086EDA3
:1006D00094E00E94DF0CC70101960E94900163E143
:1006E00074E086ED94E00E94DF0C21960C5F1F4FB2
:1006F000C230D10589F667E572E086ED94E00E948C
:10070000DF0C80917D0490917E0406960E949001FA
:1007100063E174E086ED94E00E94DF0C61E08AE022
:100720000E94600A60E772E086ED94E0DF91CF916D
:100730001F910F91FF90EF900C94DF0CAF92BF923E
:10074000CF92DF92EF92FF920F931F93CF93DF939D
:1007500000D000D000D0CDB7DEB78C0161E070E0F2
:100760000E94E20E803329F410928D0466ED72E04F
:100770008CC063E7C8010E94000FF8012481358115
:10078000AC014F5F5F4FB801CE0101960E94040F8C
:10079000CE0101960E94490F6B017C01CE010196AA
:1007A0000E94D60D64EE72E086ED94E00E94D20CB9
:1007B0004AE050E0B60186ED94E00E94A40D61E0AD
:1007C00070E0C8010E94E20E863609F03FC06BEE71
:1007D00072E086ED94E00E94D20C62E070E0C80105
:1007E0000E94E20E682F86ED94E00E94F10CA0902A
:1007F0007B04B0907C0462E070E0C8010E94E20ECD
:10080000F50194E08902E00DF11D1124E05CF1098D
:10081000D382C282A0907B04B0907C0462E070E03E
:10082000C8010E94E20EE4E08E02A00CB11C11246B
:10083000C501805C91095C0163E372E086ED94E0A0
:100840000E94DF0CC50101960E94900161E070E0FA
:10085000C8010E94E20E873781F46BEF72E086EDEB
:1008600094E00E94D20C80917D0490917E04FC0162
:10087000D086C78206960E94900166E073E086EDFE
:1008800094E00E94DF0C61E173E086ED94E00E9449
:10089000DF0C26960FB6F894DEBF0FBECDBFDF91FA
:1008A000CF911F910F91FF90EF90DF90CF90BF906D
:1008B000AF90089583B7816083BF40E050E069E85E
:1008C00070E080E00E947308E4E6F0E080818160DF
:1008D0008083808184608083808180628083808146
:1008E0008064808380818068808383B7816083BFD8
:1008F000889583B78E7F83BF83B78E7F83BF8081C8
:100900008F77808380818F7B808380818F7D8083C0
:1009100080818B7F808380818E7F808380E00E94B6
:10092000930861E273E086ED94E00E94DF0C60E5DD
:1009300070E080E090E00C946C09CF92DF92EF922F
:10094000FF920F931F93CF93DF9300D0CDB7DEB705
:10095000109278040E943203C12CD12CE12CF12C8E
:1009600002E010E0E0917B04F0917C04EC0DFD1DB1
:10097000828193818D3B924094F00B5F1F4F68E220
:1009800073E086ED94E00E94D20C4AE050E0B7019B
:1009900086ED94E00E949C0D64E373E00FC068E272
:1009A00073E086ED94E00E94D20C4AE050E0B7017B
:1009B00086ED94E00E949C0D64E473E086ED94E083
:1009C0000E94D20C86ED94E00E94DB0C64E170E0A2
:1009D00080E090E00E946C098FEFE81AF80A24E0AA
:1009E000C20ED11C88E0C816D10409F0BBCF6CE55B
:1009F00073E086ED94E00E94D20C4AE050E0B8012A
:100A000086ED94E00E949C0D86ED94E00E94DB0C44
:100A1000013425E1120738F426E0209FC001219F10
:100A2000900D112402C08FEF9FEF0E94900C9093C5
:100A30007A04809379041A821982E0917B04F09100
:100A40007C04828193818D3B924064F0BE016F5F94
:100A50007F4F80E090E00E94B60189819A810196E3
:100A60009A838983E0917B04F0917C04868197814D
:100A70008D3B924064F0BE016F5F7F4F81E090E05C
:100A80000E94B60189819A8101969A838983209177
:100A9000790430917A0486E0809FA001819F500DF7
:100AA0001124FA013C97E20FF31F8FEE90E091833F
:100AB00080838091080190910901A0910A01B09171
:100AC0000B0182839383A483B583FA013697E20FE7
:100AD000F31F89E391E09183808312821382148251
:100AE000158268E673E086ED94E00E94D20C86EDF4
:100AF00094E00E94DB0C64E170E080E090E00E94F2
:100B00006C090F900F90DF91CF911F910F91FF9083
:100B1000EF90DF90CF90089563E174E086E894E071
:100B20000E94440E8091080190910901A0910A0150
:100B3000B0910B0180937F0490938004A093810473
:100B4000B0938204089586E894E00C94D60D63E196
:100B500074E086E894E00E947A0E86ED94E00E94AC
:100B6000960A1816190664F486ED94E00E94AF0AFE
:100B700080938C04682F86E894E00E94BE0EEDCF2F
:100B800008951F93CF93DF9300D000D000D0CDB74E
:100B9000DEB71091830467E773E086ED94E00E946E
:100BA000D20C612F70E04AE050E086ED94E00E94A4
:100BB0009C0D86ED94E00E94DB0C1091840462E8A9
:100BC00073E086ED94E00E94D20C612F70E04AE061
:100BD00050E086ED94E00E949C0D86ED94E00E942A
:100BE000DB0C1091850460E973E086ED94E00E94CF
:100BF000D20C612F70E04AE050E086ED94E00E9454
:100C00009C0D86ED94E00E94DB0C6AE973E086EDB2
:100C100094E00E94D20C86ED94E00E94DB0C80915F
:100C200083048823E1F01092830463EA73E086ED85
:100C300094E00E94D20C86ED94E00E94DB0C0E94AE
:100C4000A70566E874E0CE0101960E94710ECE0100
:100C500001960E949E03CE0101960E94D60D8091BE
:100C60008404811105C080918504882309F473C030
:100C700068EC73E086ED94E00E94D20C86ED94E07F
:100C80000E94DB0C109285041092840480917904F8
:100C900090917A04892B61F46DEA73E086ED94E01B
:100CA0000E94D20C86ED94E00E94DB0C0E949D0411
:100CB000109178046BEB73E086ED94E00E94D20C07
:100CC0004AE050E0612F86ED94E00E94C90D86ED68
:100CD00094E00E94DB0C80917804E0917904F0911B
:100CE0007A0496E0899FE00DF11D112462817381E1
:100CF000848195810190F081E02D0995109178040F
:100D00001F5F1093780469EB73E086ED94E00E9416
:100D1000D20C612F70E0615071094AE050E086ED1D
:100D200094E00E949C0D86ED94E00E94DB0C61EC47
:100D300073E086ED94E00E94D20C86ED94E00E9470
:100D4000DB0C26960FB6F894DEBF0FBECDBFDF9149
:100D5000CF911F91089564EF73E086ED94E00E94B7
:100D6000D20C86ED94E00E94DB0C10928504109268
:100D7000840440917F0450918004609181047091BB
:100D800082042AE030E086ED94E00E94520D61EE8C
:100D900073E086ED94E00E94D20C86ED94E00E9410
:100DA000DB0C60910601709107014AE050E086ED8E
:100DB00094E00E949C0D66EE73E086ED94E00E9444
:100DC000D20C86ED94E00E94DB0C62E370E080E0E0
:100DD00090E00E946C090E945A0463EF73E086ED74
:100DE00094E00E94D20C9FCF1F920F920FB60F92E9
:100DF00011242F933F934F935F936F937F938F9320
:100E00009F93AF93BF93EF93FF93E0919404F0917E
:100E100095040995FF91EF91BF91AF919F918F91AB
:100E20007F916F915F914F913F912F910F900FBEE6
:100E30000F901F901895FC01A3E0440F551F661FEB
:100E4000771FAA95D1F74115510581E06807710513
:100E500014F481E00EC033E075956795579547957A
:100E60003A95D1F74115510581E0680771051CF4E9
:100E700082E0828331C023E0759567955795479549
:100E80002A95D1F74115510581E06807710514F4E1
:100E900083E0EFCF92E075956795579547959A95C2
:100EA000D1F74115510581E06807710514F484E01C
:100EB000E0CF82E075956795579547958A95D1F76C
:100EC00085E082834115510581E06807710524F0B2
:100ED0004FEF5FEF60E070E08FB78383F89451834A
:100EE0004083509387004093860083818FBF809119
:100EF0008100887F80938100809181009281892B7D
:100F00008093810008951092800020E12093810059
:100F10000C941B07E1E8F0E02081DC0112968C9133
:100F2000282B208308950F931F93CF93DF93EC0119
:100F30008B01BA01A901141615061606170614F43A
:100F40000E941B071D830C8381E080936F00CE01FC
:100F5000DF91CF911F910F910C948A070F931F93EC
:100F6000CF93DF93EC01662359F00E943D0969831A
:100F70007A838B839C83DF91CF911F910F9108958A
:100F80000E943D0909811A812B813C81601B710BF4
:100F9000820B930B613271058105910530F763E097
:100FA00070E080E090E00E946C09EACF60E00C9471
:100FB000AE07FC0113AA14AA15AA16AA118212825E
:100FC00013821482411551056105710521F0CB0191
:100FD000BA010C946C090895FB01BA01A901DC0166
:100FE000D296FC93EE93D19726E0CF010C94790B27
:100FF0001F93CF93DF93EC01162F64E074E089A96F
:101000009AA90E94D20C4AE050E0612F89A99AA9BE
:101010000E94C90D6BE074E089A99AA90E94D20CC4
:1010200062E370E080E090E0DF91CF911F910C943B
:101030006C091F93CF93DF93EC01162F8D818823CA
:1010400089F189A99AA9DC01ED91FC910480F581CF
:10105000E02D0995892BA9F307C02637310519F131
:101060002835310509F41D8289A99AA9DC01ED9181
:10107000FC910480F581E02D09951816190694F469
:1010800089A99AA9DC01ED91FC910680F781E02DF8
:1010900009959C01332723363105F9F6612FCE01DE
:1010A0000E94F80783E6DF91CF911F9108950F9377
:1010B0001F93CF93DF931F92CDB7DEB78C016623CA
:1010C00049F081E0F801858360E0C80149830E940E
:1010D00019084981F80145830F90DF91CF911F9145
:1010E0000F91089508958230E8F4E82FF0E0EE0FB4
:1010F000FF1FE25FFE4F71836083813041F080917A
:1011000069008C7F842B80936900E89A0895809110
:101110006900440F551F440F551F837F842B809314
:101120006900E99A0895823078F4813011F0E898E6
:1011300001C0E998E82FF0E0EE0FFF1FE25FFE4FDD
:1011400082E798E09183808308951F920F920FB6F3
:101150000F9211242F933F934F935F936F937F933D
:101160008F939F93AF93BF93EF93FF93E0910E0103
:10117000F0910F010995FF91EF91BF91AF919F9170
:101180008F917F916F915F914F913F912F910F9030
:101190000FBE0F901F9018951F920F920FB60F92CF
:1011A00011242F933F934F935F936F937F938F936C
:1011B0009F93AF93BF93EF93FF93E0911001F09152
:1011C00011010995FF91EF91BF91AF919F918F917F
:1011D0007F916F915F914F913F912F910F900FBE33
:1011E0000F901F9018951F920F920FB60F92112417
:1011F0002F933F938F939F93AF93BF938091CE0490
:101200009091CF04A091D004B091D1043091CD043D
:1012100023E0230F2D3720F40196A11DB11D05C039
:1012200026E8230F0296A11DB11D2093CD048093C3
:10123000CE049093CF04A093D004B093D1048091B6
:10124000D2049091D304A091D404B091D504019616
:10125000A11DB11D8093D2049093D304A093D40414
:10126000B093D504BF91AF919F918F913F912F91F2
:101270000F900FBE0F901F9018952FB7F8946091A4
:10128000CE047091CF048091D0049091D1042FBFEF
:1012900008953FB7F8948091D2049091D304A0911F
:1012A000D404B091D50426B5A89B05C02F3F19F0F2
:1012B0000196A11DB11D3FBF6627782F892F9A2F58
:1012C000620F711D811D911D42E0660F771F881FFF
:1012D000991F4A95D1F708958F929F92AF92BF922E
:1012E000CF92DF92EF92FF926B017C010E9449093D
:1012F0004B015C01C114D104E104F104F1F00E943E
:10130000540F0E944909681979098A099B09683EA6
:1013100073408105910570F321E0C21AD108E108FC
:10132000F10888EE880E83E0981EA11CB11CC11440
:10133000D104E104F10429F7DDCFFF90EF90DF90B5
:10134000CF90BF90AF909F908F900895789484B580
:10135000826084BD84B5816084BD85B5826085BDB1
:1013600085B5816085BDEEE6F0E080818160808397
:10137000E1E8F0E01082808182608083808181607A
:101380008083E0E8F0E0808181608083E1EBF0E041
:10139000808184608083E0EBF0E0808181608083E5
:1013A000EAE7F0E0808184608083808182608083CE
:1013B0008081816080838081806880831092C100F9
:1013C00008958E3008F08E5087702091120190E4BD
:1013D000299F90011124822B80937C0080917A00B8
:1013E000806480937A0080917A0086FDFCCF8091A2
:1013F00078002091790090E0922B0895833081F05D
:1014000028F4813099F08230A1F008958730A9F056
:101410008830B9F08430D1F4809180008F7D03C092
:10142000809180008F7780938000089584B58F77B6
:1014300002C084B58F7D84BD08958091B0008F7700
:1014400003C08091B0008F7D8093B0000895CF934A
:10145000DF9390E0FC01E458FF4F2491FC01E0573A
:10146000FF4F8491882349F190E0880F991FFC0178
:10147000E255FF4FA591B4918C559F4FFC01C5914A
:10148000D4919FB7611108C0F8948C912095822364
:101490008C93888182230AC0623051F4F8948C9135
:1014A000322F309583238C938881822B888304C0CC
:1014B000F8948C91822B8C939FBFDF91CF910895EC
:1014C0000F931F93CF93DF931F92CDB7DEB7282FD3
:1014D00030E0F901E859FF4F8491F901E458FF4FDA
:1014E0001491F901E057FF4F04910023C9F08823BC
:1014F00021F069830E94FE096981E02FF0E0EE0F80
:10150000FF1FEC55FF4FA591B4919FB7F8948C91B4
:10151000611103C01095812301C0812B8C939FBF63
:101520000F90DF91CF911F910F910895FC01818D54
:10153000228D90E0805C9F4F821B91098F739927C9
:101540000895FC01918D828D981731F0828DE80FFE
:10155000F11D858D90E008958FEF9FEF0895FC01B8
:10156000918D828D981761F0828DDF01A80FB11DDA
:101570005D968C91928D9F5F9F73928F90E00895FE
:101580008FEF9FEF089583E39CE0892B49F080E083
:1015900090E0892B29F00E94330C81110C940000FB
:1015A0000895FC01848DDF01A80FB11DA35ABF4F20
:1015B0002C91848D90E001968F739927848FA68952
:1015C000B7892C93A089B1898C9180648C93938D79
:1015D000848D981306C00288F389E02D80818F7D69
:1015E00080830895CF93DF93EC01888D8823C9F021
:1015F000EA89FB89808185FD05C0A889B9898C911C
:1016000086FD0FC00FB607FCF5CF808185FFF2CFB6
:10161000A889B9898C9185FFEDCFCE010E94D10AAE
:10162000E7CFDF91CF910895CF92DF92FF920F9392
:101630001F93CF93DF931F92CDB7DEB76C0181E08C
:10164000D60158968C9358975B969C915B975C96C5
:101650008C915C97981307C05096ED91FC9151972F
:10166000808185FD2EC0F601038D10E00F5F1F4FB6
:101670000F731127F02EF601848DF81211C00FB6EA
:1016800007FCF9CFD6015096ED91FC9151978081DE
:1016900085FFF1CFC60169830E94D10A6981EBCF32
:1016A000838DE80FF11DE35AFF4F6083D6015B96EF
:1016B0000C935B975296ED91FC91539780818062D9
:1016C0000CC0D6015696ED91FC91579760835096C9
:1016D000ED91FC91519780818064808381E090E05E
:1016E0000F90DF91CF911F910F91FF90DF90CF90DE
:1016F0000895BF92CF92DF92EF92FF92CF93DF9344
:10170000EC016A017B01B22EE889F98982E08083CD
:10171000411581EE580761057105A1F060E079E09F
:101720008DE390E0A70196010E94550F21503109E9
:10173000410951095695479537952795211580E11F
:10174000380798F0E889F989108260E874E88EE13A
:1017500090E0A70196010E94550F215031094109DF
:1017600051095695479537952795EC85FD8530832A
:10177000EE85FF852083188EEC89FD89B082EA8989
:10178000FB89808180618083EA89FB898081886010
:101790008083EA89FB89808180688083EA89FB896C
:1017A00080818F7D8083DF91CF91FF90EF90DF90DC
:1017B000CF90BF9008951F920F920FB60F921124F1
:1017C0002F938F939F93EF93FF93E091E604F09113
:1017D000E7048081E091EC04F091ED0482FD12C0F9
:1017E00090818091EF048F5F8F732091F0048217B6
:1017F00051F0E091EF04F0E0EA52FB4F958F8093B7
:10180000EF0401C08081FF91EF919F918F912F9103
:101810000F900FBE0F901F9018951F920F920FB64A
:101820000F9211242F933F934F935F936F937F9366
:101830008F939F93AF93BF93EF93FF9386ED94E0C5
:101840000E94D10AFF91EF91BF91AF919F918F912B
:101850007F916F915F914F913F912F910F900FBEAC
:101860000F901F90189586ED94E00E94960A21E053
:10187000892B09F420E0822F08951092D904109248
:10188000D80488EE93E0A0E0B0E08093DA0490936F
:10189000DB04A093DC04B093DD0480E694E0909335
:1018A000D7048093D60485EC90E09093E304809372
:1018B000E20484EC90E09093E5048093E40480ECEF
:1018C00090E09093E7048093E60481EC90E090939D
:1018D000E9048093E80482EC90E09093EB04809319
:1018E000EA0486EC90E09093ED048093EC0410926F
:1018F000EF041092F0041092F1041092F204089593
:1019000008950E94A6090E94800C0E943902C3EC2F
:10191000DAE00E94C1052097E1F30E94C30AF9CFE3
:101920000C949F0F0C943710CF92DF92EF92FF929E
:101930000F931F93CF93DF937C016A01EB0100E0CB
:1019400010E00C151D0571F06991D701ED91FC9126
:101950000190F081E02DC7010995892B19F00F5FE7
:101960001F4FEFCFC801DF91CF911F910F91FF90D3
:10197000EF90DF90CF9008956115710581F0DB0144
:101980000D900020E9F7AD0141505109461B570B5E
:10199000DC01ED91FC910280F381E02D099480E05F
:1019A00090E008950C94BC0CDC01ED91FC91019049
:1019B000F081E02D099461E174E00C94BC0C0F936C
:1019C0001F93CF93DF93EC010E94BC0C8C01CE01DE
:1019D0000E94DB0C800F911FDF91CF911F910F911F
:1019E00008950F931F93CF93DF93EC010E94D40CC3
:1019F0008C01CE010E94DB0C800F911FDF91CF91F3
:101A00001F910F9108958F929F92AF92BF92DF9294
:101A1000EF92FF920F931F93CF93DF93CDB7DEB773
:101A2000A1970FB6F894DEBF0FBECDBF7C01F42F97
:101A3000D52ECB0119A2223008F42AE08E010F5DC9
:101A40001F4F822E912CA12CB12C6F2F7D2DA50123
:101A500094010E94550FF22FD32ECA010150110993
:101A60006A3014F4E0E301C0E7E3E60FD801EC9339
:101A7000232B242B252B49F7B801C7010E94BC0C4E
:101A8000A1960FB6F894DEBF0FBECDBFDF91CF9108
:101A90001F910F91FF90EF90DF90BF90AF909F90BC
:101AA0008F900895CF92DF92EF92FF920F931F9342
:101AB000CF93DF93EC016A017B012115310579F4A5
:101AC000E881F9810190F081E02D642FDF91CF91C1
:101AD0001F910F91FF90EF90DF90CF9009942A30E3
:101AE0003105E9F477FF1AC06DE20E94D40C8C0135
:101AF00044275527BA014C195D096E097F092AE070
:101B0000CE010E94030D800F911FDF91CF911F9195
:101B10000F91FF90EF90DF90CF9008952AE0B701EA
:101B2000A601CE01DF91CF911F910F91FF90EF9011
:101B3000DF90CF900C94030D9A01AB01662757FDFF
:101B40006095762F0C94520D0F931F93CF93DF93D4
:101B5000EC019A01AB01662757FD6095762F0E9434
:101B6000520D8C01CE010E94DB0C800F911FDF9182
:101B7000CF911F910F9108952115310541F4DC019A
:101B8000ED91FC910190F081E02D642F09940C946B
:101B9000030D9A01462F50E060E070E00C94BC0DFC
:101BA000FC0144835583668377830895FC0180811B
:101BB00091810C943710CF93DF93EC018881998148
:101BC000009711F00E943710198218821D821C8222
:101BD0001B821A82DF91CF9108950F931F93CF93A9
:101BE000DF93EC018B016F5F7F4F888199810E94A9
:101BF000C610009731F0998388831B830A8381E0A4
:101C000001C080E0DF91CF911F910F910895CF9394
:101C1000DF93EC0188819981892B29F08A819B814E
:101C20008617970760F4CE010E94ED0D882341F0DE
:101C30008C819D81892B19F4E881F981108281E0E2
:101C4000DF91CF910895EF92FF920F931F93CF935F
:101C5000DF93EC017B018A01BA010E94070E81111A
:101C600004C0CE010E94DB0D07C01D830C83B701A9
:101C7000888199810E94CB11CE01DF91CF911F9174
:101C80000F91FF90EF900895FC0111821082138252
:101C90001282158214826115710559F0FB010190C1
:101CA0000020E9F7AF0141505109461B570B0C9436
:101CB000230E0895CF93DF93EC01FB01861797075E
:101CC00061F0608171816115710529F04481558150
:101CD0000E94230E02C00E94DB0DCE01DF91CF9146
:101CE0000895FC01118210821382128215821482DF
:101CF0000C945A0ECF93DF93EC016115710561F0DE
:101D0000FB0101900020E9F7AF0141505109461B4A
:101D1000570B0E94230E02C00E94DB0DCE01DF9103
:101D2000CF910895EF92FF920F931F93CF93DF937C
:101D3000EC017B010C811D816115710511F480E0BE
:101D400016C04115510591F0040F151FB8010E94EE
:101D5000070E8823A1F3288139818C819D81B701E9
:101D6000820F931F0E94CB111D830C8381E0DF91B2
:101D7000CF911F910F91FF90EF900895CF93DF9334
:101D800000D0CDB7DEB769831A8241E050E0BE01D2
:101D90006F5F7F4F0E94920E0F900F90DF91CF9157
:101DA0000895FC01248135816217730748F480810E
:101DB0009181009729F0FC01E60FF71F80810895BB
:101DC00080E008950C94D10ECF93DF93FC018481C1
:101DD00095814817590778F4C081D181772767FD2D
:101DE0007095CE01840F951F0E94C011009719F0C5
:101DF0008C1B9D0B02C08FEF9FEFDF91CF91089559
:101E000040E050E00C94E40EBF92CF92DF92EF924C
:101E1000FF920F931F93CF93DF936C017B01EA0135
:101E200089012417350720F48D2FE901042F182F7D
:101E300063E174E0C6010E94440ED70114968D91AF
:101E40009C911597C817D907C8F48017910708F413
:101E50008C01D701ED91FC911197E00FF11FB0803B
:101E600010826D917C916C0F7D1FC6010E947A0ECD
:101E7000D701ED91FC91E00FF11FB082C601DF9117
:101E8000CF911F910F91FF90EF90DF90CF90BF9077
:101E90000895FC0180819181009711F00C949011BC
:101EA00060E070E0CB0108950895A1E21A2EAA1B0C
:101EB000BB1BFD010DC0AA1FBB1FEE1FFF1FA217FA
:101EC000B307E407F50720F0A21BB30BE40BF50BF7
:101ED000661F771F881F991F1A9469F76095709580
:101EE000809590959B01AC01BD01CF0108950E94A2
:101EF000900FA59F900DB49F900DA49F800D911DF4
:101F000011240895B7FF0C94770F0E94770F821B5E
:101F1000930B0895EE0FFF1F0590F491E02D0994A7
:101F2000A29FB001B39FC001A39F700D811D11241A
:101F3000911DB29F700D811D1124911D0895CF93A5
:101F4000DF938230910510F482E090E0E091750516
:101F5000F091760520E030E0A0E0B0E0309739F174
:101F60004081518148175907B8F04817590771F453
:101F700082819381109729F013969C938E931297E8
:101F80002CC0909376058093750527C021153105E7
:101F900031F04217530718F0A901DB0101C0EF012E
:101FA0009A01BD01DF010280F381E02DD7CF211519
:101FB0003105F9F0281B390B2430310580F48A8172
:101FC0009B816115710521F0FB019383828304C01D
:101FD0009093760580937505FE01329644C0FE010C
:101FE000E20FF31F819391932250310939832883A3
:101FF0003AC02091730530917405232B41F4209150
:1020000002013091030130937405209373052091F0
:102010000001309101012115310541F42DB73EB782
:102020004091040150910501241B350BE09173058B
:10203000F0917405E217F307A0F42E1B3F0B28174D
:10204000390778F0AC014E5F5F4F2417350748F031
:102050004E0F5F1F509374054093730581939193C6
:1020600002C0E0E0F0E0CF01DF91CF910895CF937F
:10207000DF93009709F487C0FC0132971382128224
:10208000C0917505D0917605209781F4208131812A
:10209000280F391F8091730590917405821793075B
:1020A00079F5F0937405E09373056DC0DE0120E0CF
:1020B00030E0AE17BF0750F412964D915C91139724
:1020C0009D014115510509F1DA01F3CFB383A283D4
:1020D00040815181840F951F8A179B0771F48D9160
:1020E0009C911197840F951F02969183808312967D
:1020F0008D919C911397938382832115310529F447
:10210000F0937605E09375053EC0D9011396FC93D4
:10211000EE9312974D915D91A40FB51FEA17FB073F
:1021200079F480819181840F951F0296D9011196CF
:102130009C938E938281938113969C938E93129796
:10214000E0E0F0E08A819B81009719F0FE01EC014C
:10215000F9CFCE01029628813981820F931F2091F9
:102160007305309174052817390769F4309729F4FD
:10217000109276051092750502C013821282D093D8
:102180007405C0937305DF91CF910895A0E0B0E08E
:10219000ECECF0E10C94EB11EC01CB01209719F47D
:1021A0000E949F0FB8C0FE01E60FF71F9E0122504C
:1021B0003109E217F30708F4ACC0D9010D911C9165
:1021C000119706171707B8F00530110508F49FC0DE
:1021D000A801445051094617570708F498C0025007
:1021E0001109061B170B019311936D937C93CF017B
:1021F0000E9437108CC05B01A01AB10A4E01800EFC
:10220000911EA0917505B0917605612C712C60E04E
:1022100070E0109709F449C0A815B905C9F5ED900B
:10222000FC901197670142E0C40ED11CCA14DB0474
:1022300078F147018A189B08640142E0C40ED11C62
:102240001296BC9012971396AC91B5E0CB16D104C0
:1022500040F0B282A38391828082D9018D939C93B6
:1022600009C00E5F1F4F0E0D1F1DF9011183008362
:10227000EB2DFA2F6115710531F0DB011396FC93FC
:10228000EE93129744C0F0937605E09375053FC036
:102290006D917C9111976616770608F43B01BD019C
:1022A00012960D90BC91A02DB4CF609173057091E2
:1022B000740568157905E9F468167906D0F440913B
:1022C0000001509101014115510541F44DB75EB730
:1022D0006091040170910501461B570BE417F50747
:1022E000C0F4F0937405E0937305F9019183808342
:1022F0000EC00E949F0F7C01009759F0A801BE01FB
:102300000E94B711CE010E943710C70104C0CE0150
:1023100002C080E090E0CDB7DEB7EEE00C9407128B
:102320001F93FC0199278827BC01E8941191103272
:10233000E9F3193010F01E30C8F31B3251F01D3292
:1023400049F4689406C00E94D211610F711D811D6D
:10235000911D119110531A30B0F33EF49095809571
:10236000709561957F4F8F4F9F4F1F910895FB018F
:10237000DC0102C001900D9241505040D8F7089501
:10238000FC018191861721F08823D9F799270895B8
:102390003197CF010895FB01DC0101900D920020DF
:1023A000E1F70895592F482F372F262F660F771FF3
:1023B000881F991F660F771F881F991F620F731F51
:1023C000841F951F660F771F881F991F08952F92EE
:1023D0003F924F925F926F927F928F929F92AF92B5
:1023E000BF92CF92DF92EF92FF920F931F93CF9302
:1023F000DF93CDB7DEB7CA1BDB0B0FB6F894DEBF99
:102400000FBECDBF09942A88398848885F846E84BE
:102410007D848C849B84AA84B984C884DF80EE8008
:10242000FD800C811B81AA81B981CE0FD11D0FB611
:10243000F894DEBF0FBECDBFED01089510E0CCEBE8
:10244000D0E004C0FE010E948C0F2296CE3BD10743
:06245000C9F7F894FFCF6C
:1024560000007705800008002800000002007208CE
:1024660072080156616C76654F6E0050756D704F3F
:102476006E0056616C76654F46460050756D704F1E
:10248600464600536C65657000736563203D200009
:1024960074696D5F6379636C65203D2000526573D6
:1024A60065745363686564756C6500202020536508
:1024B6006E736F722E61736B28292056616C756579
:1024C6003A20002020444556204D4F4445005354A1
:1024D600415254494E4720544F2057415445522E9D
:1024E6002E2E20004E4F20574154455220210041A8
:1024F600534B494E4720464F522057415445522E82
:102506002E2E004F4B2057415445522C2077617494
:102516006572696E672E2E2E200056414C56452058
:102526004F4E0050554D50204F4E0050554D5020A7
:102536004F46460056414C5645204F464600564D9E
:102546004450565F317C315F564D4450560D0A005B
:10255600496E697469616C69736174696F6E206331
:102566006F6D706C6574652E0053454E534F525314
:10257600204F4E002D2D20464C4F5745522023000C
:10258600203A00202020506C616E742E61736B28F7
:10259600292041736B696E6720687967726F6D6574
:1025A6007465722E2E2E002D2D2041736B696E6779
:1025B60020576174657253656E736F722E2E2E00EE
:1025C60053454E534F5253204F464600202020205D
:1025D600426567696E6E696E67206F662077617403
:1025E6006572696E6720464C4F574552202320007E
:1025F60020202020456E64206F6620776174657206
:10260600696E6720464C4F574552202320002020F4
:102616002020446F6E2774206E65656420746F20D9
:1026260077617465720020204465764D6F6465207D
:102636004F46460056616C203D2000546172676526
:10264600743A20666C6F7765722000546172676514
:10265600743A205753004465764D6F6465204F4E9B
:10266600005072696E7420643020746F204F4646A5
:102676000057616B6555700054686520666C6F770E
:1026860065722000206E65656473207761746572DB
:10269600696E670020646F6573206E6F74206E65C7
:1026A6006564207761746572696E6700736368207C
:1026B60073697A65203D20005363686564756C65AF
:1026C600206275696C740057616B657570204254A1
:1026D600200057616B6575702054696D6572200026
:1026E6004E6578745374657020004E6577204C6F84
:1026F6006F700057616B657570204254004E6F20F5
:102706007363686564756C65002F2053746570206B
:10271600002F204C6F6F700057616B6575702054E9
:10272600494D4552202F204E45585420535445506C
:102736000020736563002074696D65722063796398
:102746006C65002F536C6565702073656374696FE3
:102756006E000304564D4450435F005F564D44508F
:10276600430D0A004572726F723A20417474656DAA
:10277600707420746F2073657420612072656164C3
:102786002D6F6E6C79207661726961626C65206F5F
:102796007220646174612074797065206E6F742094
:1027A600737570706F727465640D0A000000000026
:1027B600140B940C960AAF0AA10AF20A6E616E0017
:0827C600696E66006F76660083
:00000001FF
