:100000000C945F000C942F1A0C94561A0C948700D1
:100010000C9487000C9487000C9487000C94870044
:100020000C9487000C9487000C9487000C94870034
:100030000C9487000C9442190C9487000C94870050
:100040000C947D1A0C9487000C94591D0C948B1DF4
:100050000C9487000C9487000C9487000C94870004
:100060000C9487000C948700000000080002010037
:100070000003040700000000000000000102040863
:100080001020408001020408102001020408102002
:10009000040404040404040402020202020203032E
:1000A0000303030300000000250028002B000000CC
:1000B0000000240027002A007514BB1D8C14112495
:1000C0001FBECFEFD8E0DEBFCDBF13E0A0E0B1E0B0
:1000D000E0E3FAE402C005900D92AA3FB107D9F718
:1000E00024E0AAEFB3E001C01D92A53CB207E1F7FE
:1000F00010E0CCEBD0E004C02297FE010E940F225A
:10010000C83BD107C9F70E94FF1D0C940B250C9426
:10011000000081E0809301040895FC0182819381B5
:100120000895FC01828193810895FC01828193816D
:100130000895CF93DF93EC01E881F9810190F0817C
:10014000E02DCE0109951816190644F4E881F981CD
:100150000684F785E02DCE010995EECFDF91CF9192
:1001600008950F931F93CF93DF9300D01F92CDB7C5
:10017000DEB78C01D801ED91FC910190F081E02D6A
:10018000C8010995181619065CF4D801ED91FC9187
:100190000684F785E02DB801CE0101960995EACFD6
:1001A0000F900F900F90DF91CF911F910F910895B5
:1001B0000F931F93CF93DF93CDB7DEB72D970FB675
:1001C000F894DEBF0FBECDBF8C01D801ED91FC913C
:1001D0000190F081E02DC8010995181619067CF4EC
:1001E000D801ED91FC910684F785E02DB801CE0190
:1001F00001960995CE0102960E94641FE6CF2D96C6
:100200000FB6F894DEBF0FBECDBFDF91CF911F9127
:100210000F9108950F931F93CF93DF931F92CDB744
:10022000DEB78C0183E090E069830E940E1EDC0142
:1002300012961C921E92119769816C93F801248189
:100240003581232B59F00680F781E02D928381833D
:10025000D80117969C938E93169705C0F801958345
:10026000848397838683D80112968D919C911397EE
:10027000019613969C938E9312971C961C9281E084
:100280000F90DF91CF911F910F9108950F931F93BE
:10029000CF93DF93EC018B0185E090E00E940E1E6E
:1002A000FC01148213828FEF80838FEF9FEF928384
:1002B0008183D8012D913D914C91208331834283DC
:1002C0008C819D81892B39F0AE81BF811496FC937E
:1002D000EE93139702C0FD83EC83FF83EE838A8144
:1002E0009B8101969B838A831C8681E0DF91CF915D
:1002F0001F910F91089568E171E083E294E00E94FC
:10030000621E83E294E00E946B1E60E08091100107
:100310000E94DE1B81E08093030408956FE171E089
:1003200083E294E00E94621E83E294E00E946B1ECE
:1003300061E0809110010E94DE1B81E08093030444
:100340000895CF92DF92EF92FF92CF93DF936B01EC
:100350007C011092030467E271E083E294E00E9462
:10036000621E83E294E00E946B1E6DE271E083E204
:1003700094E00E94621E2AE030E0B701A60183E209
:1003800094E00E94D01E83E294E00E946B1EC09114
:100390000601D091070164E371E083E294E00E94DA
:1003A000621E4AE050E0BE0183E294E00E941A1F00
:1003B00083E294E00E946B1EC092FD03D092FE0384
:1003C000E092FF03F092000410920204DF91CF91BB
:1003D000FF90EF90DF90CF9008958091FB03909174
:1003E000FC03009711F00E94141E1092FC0310925F
:1003F000FB0381E0809303040895BF92CF92DF92C4
:10040000EF92FF920F931F93CF93DF938C01EB0139
:100410008A819B811816190644F08FEFF8018083BA
:100420008FEF9FEF9283818320C00197B9F0EC8119
:10043000FD81C380D480B080E180F280CF010E9432
:10044000121EDD82CC828A819B8101979B838A83E5
:100450001C86F801B082F282E18207C0E881F9814E
:100460000484F585E02DC8010995C801DF91CF917D
:100470001F910F91FF90EF90DF90CF90BF90089564
:100480008091FD039091FE03A091FF03B0910004C1
:100490004091060150910701662757FD6095762F20
:1004A000841B950BA60BB70B8093FD039093FE0363
:1004B000A093FF03B09300048091FD039091FE038D
:1004C000A091FF03B0910004181619061A061B0626
:1004D0009CF081E0809302048091080190910901D1
:1004E000A0910A01B0910B018093FD039093FE034C
:1004F000A093FF03B093000408950F931F93CF932D
:10050000DF931F92CDB7DEB78C01DC0112968D917F
:100510009C911397892B61F4ED91FC910480F581F6
:10052000E02DC8010F90DF91CF911F910F91099499
:1005300083E090E069830E940E1EFC011082D801C6
:1005400014968D919C911597928381836981608324
:100550001596FC93EE93149712968D919C91139798
:10056000019613969C938E9312971C961C9281E091
:100570000F90DF91CF911F910F910895FF920F93EC
:100580001F93CF93DF93EC018A819B811816190684
:100590000CF5019799F0EC81FD8101811281F080C9
:1005A000CF010E94121E1D830C832A813B812150A2
:1005B00031093B832A831C868F2D0DC0E881F98188
:1005C0000484F585E02DCE01DF91CF911F910F912D
:1005D000FF90099480E0DF91CF911F910F91FF90E0
:1005E000089580910E0490910F04DC01ED91FC912F
:1005F0000190F081E02D099525E0AC01249FC00118
:10060000259F900D112420910C0430910D04280F8A
:10061000391F30930D0420930C040895EF92FF923C
:100620000F931F93CF93DF9300D01F92CDB7DEB708
:100630008C017B01DC0112968D919C911397892B83
:10064000A1F4ED91FC910480F581E02DDB018C910A
:10065000898311968D919C9112979B838A83BE0109
:100660006F5F7F4FC80109952AC085E090E00E9426
:100670000E1EFC018FEF80838FEF9FEF92838183AB
:10068000D80114968D919C91159794838383D701FB
:100690002D913D914C91208331834283D801159651
:1006A000FC93EE93149712968D919C91139701965B
:1006B00013969C938E9312971C961C9281E00F9038
:1006C0000F900F90DF91CF911F910F91FF90EF90BE
:1006D00008950C94AE24EF92FF920F931F93CF9343
:1006E000DF931F92CDB7DEB77C01FC010081118141
:1006F000C80169830E94AE246981681719F0C80196
:100700000E94B624C7010F90DF91CF911F910F91E6
:10071000FF90EF900895CF93DF93EC0180910B044D
:10072000811106C088810E945F1B9A83898306C05D
:1007300069E571E083E294E00E946F1E61E471E07C
:1007400083E294E00E94621E69817A814AE050E06F
:1007500083E294E00E94221F89819A81DF91CF91E8
:100760000895CF92DF92EF92FF920F931F93CF9352
:10077000DF93EC01F62E6A0189016CEE73E00196BD
:100780000E94D21F8FEF88872FEF3FEF3A8729878C
:10079000FF82F601C080D180E280C886D986EA86D1
:1007A0001C870B8761E08F2DDF91CF911F910F91F7
:1007B000FF90EF90DF90CF900C94A51BAF92BF926B
:1007C000CF92DF92EF92FF920F931F93CF93DF931D
:1007D00000D000D000D0CDB7DEB78C017B015C012A
:1007E0008FEFA81AB80A6CEE73E0C5010E94D21F01
:1007F0008FEFF8018087CC24CA94DC2CD286C18686
:10080000F7018191BF01F8018083CE0101960E941A
:100810003520BE016F5F7F4FC5010E943E20CE0193
:1008200001960E94641FF7018781F8018783F70111
:100830009085F8019087D286C186F701238534859B
:10084000F8013487238761E00E94A51B26960FB626
:10085000F894DEBF0FBECDBFDF91CF911F910F91F6
:10086000FF90EF90DF90CF90BF90AF900895AF9240
:10087000BF92CF92DF92EF92FF920F931F93CF938D
:10088000DF93CDB7DEB72D970FB6F894DEBF0FBE5E
:10089000CDBF7C018B01DB0112968D919C9113974A
:1008A0001816190684F08FEF89838FEF9FEF9B83D3
:1008B0008A832FEF3FEFAE014F5F5F4F6FEFC701AE
:1008C0000E94B1033EC00197A1F1FB0164817581D3
:1008D000DB011D96AD90BC901E97CE0101960E9443
:1008E000DE03F801C480D580C114D10439F0C601FB
:1008F00001960E94641FC6010E94121ED80115961F
:10090000BC92AE92149712968D919C911397019779
:1009100013969C938E9312971C961C92BE016F5F48
:100920007F4FC7010E94DE03CE0102960E94641F22
:1009300008C0DB01ED91FC910484F585E02DC70131
:100940000995C7012D960FB6F894DEBF0FBECDBF37
:10095000DF91CF911F910F91FF90EF90DF90CF909B
:10096000BF90AF9008956F927F928F929F92AF92B7
:10097000BF92CF92DF92EF92FF920F931F93CF938C
:10098000DF93CDB7DEB766970FB6F894DEBF0FBE24
:10099000CDBF3C018F829886A986BA86CB86DC863D
:1009A000ED86FE860F87188B298B3A8B4B8B5C8BE1
:1009B0006D8B7E8B8FEF8983EE24EA94FE2CFB8275
:1009C000EA822FEF3FEFAE014F5F5F4F6FEFC30142
:1009D0000E94B1038F81F30181938F01BE01685F93
:1009E0007F4FCE0101960E94D21FBE016F5F7F4FE5
:1009F000C8010E941E20CE0101960E94641F8B89AF
:100A0000F30187839C899087F286E1862D893E8950
:100A10003487238761E00E94A51BC30166960FB649
:100A2000F894DEBF0FBECDBFDF91CF911F910F9124
:100A3000FF90EF90DF90CF90BF90AF909F908F90FE
:100A40007F906F900895CF93DF9300D01F92CDB722
:100A5000DEB710920D0110920C0180910E0490915E
:100A60000F04DC01ED91FC910190F081E02D0995DE
:100A7000181619065CF480910E0490910F04DC01A5
:100A8000ED91FC910288F389E02D09958091120483
:100A900090911304DC01ED91FC910190F081E02D27
:100AA0000995181619065CF48091120490911304AC
:100AB000DC01ED91FC910288F389E02D099580918C
:100AC000100490911104DC01ED91FC910190F081F2
:100AD000E02D0995181619065CF480911004909188
:100AE0001104DC01ED91FC910288F389E02D099558
:100AF0008091120490911304DC01ED91FC9104802B
:100B0000F581E02D6091100109958091120490917A
:100B10001304DC01ED91FC910480F581E02D6091DE
:100B20000F0109958091100490911104DC01ED9161
:100B3000FC910480F581E02D20910E0129832FEF97
:100B40003FEF3B832A83BE016F5F7F4F09950F9074
:100B50000F900F90DF91CF9108950F931F93CF9334
:100B6000DF93EC018B01FB012191BF01FC0121937B
:100B7000CF010E941E20F80187818F832085318557
:100B80004285288739874A87838594859C878B8708
:100B9000CE01DF91CF911F910F9108952F923F9237
:100BA0004F925F926F927F928F929F92AF92BF927D
:100BB000CF92DF92EF92FF920F931F93CF93DF9329
:100BC000CDB7DEB7AC970FB6F894DEBF0FBECDBF82
:100BD00080E090E00E94690390E08F3F910529F04A
:100BE00090930D0180930C0104C010920D0110929E
:100BF0000C0120900C0130900D0144244394512CA1
:100C0000CE0101969CA78BA73E0191E1690E711C54
:100C1000121413040CF0D1C0C2010E9469038F3F6B
:100C200009F4C2C08E010F5F1F4F7201ABA5BCA5B6
:100C3000EA1AFB0AC8018E0D9F1D0E94AE24F8011E
:100C400081938F01E615F705A9F764E671E083E269
:100C500094E00E94621E4AE050E0698183E294E0E1
:100C60000E94471F6FE671E083E294E00E94621EDB
:100C7000BE016E5F7F4F83E294E00E946F1E6CE7BF
:100C800071E083E294E00E94621E4AE050E06D85CC
:100C900083E294E00E94471F66E871E083E294E0FB
:100CA0000E94621E4AE050E06E8583E294E00E945A
:100CB000471F60E971E083E294E00E94621E6F8545
:100CC00078894AE050E083E294E00E94221FFFEF1F
:100CD000F98B8FEF9FEF9B8B8A8B2FEF3FEFA30159
:100CE0006FEFCE014E960E94B10389809A80AB804F
:100CF000BC80CD80DE80EF80F88409851A852B8545
:100D00003C854D855E856F857889C3010E94B3045B
:100D1000B301CE014E960E94AD05CE0142960E94CF
:100D2000641F61E08DA10E94A51BE0910E04F0916B
:100D30000F040190F081E02D04811581BE01625EF7
:100D40007F4FC3010E94DE03B30180910E04909196
:100D50000F04F8010995CE0142960E94641F80910C
:100D6000120490911304DC01ED91FC910480F58153
:100D7000E02D6DA109958091100490911104DC0182
:100D8000ED91FC910480F581E02D2EA1298B2FA1FE
:100D900038A53B8B2A8BB3010995B1E02B1A31089A
:100DA000CE014F960E94641FE0E14E0E511CF1E00F
:100DB0004F16F4E05F0609F02BCFAC960FB6F8940F
:100DC000DEBF0FBECDBFDF91CF911F910F91FF907E
:100DD000EF90DF90CF90BF90AF909F908F907F90DB
:100DE0006F905F904F903F902F9008950F931F93B7
:100DF000CF93DF9300D01F92CDB7DEB726E040E05F
:100E000052EC61E070E083E294E00E94F71C40E560
:100E100050E060E070E083E294E00E945E1F61E0D9
:100E2000809110010E94A51B61E080910F010E943A
:100E3000A51B6AE971E083E294E00E94621E83E2EE
:100E400094E00E946B1E8DE090E00E940E1EFC015B
:100E500086E993E09183808315821482178216823B
:100E60001382128211861086138612861486F093DE
:100E70001304E09312048DE090E00E940E1EFC012A
:100E80008EEA93E091838083158214821782168202
:100E90001382128211861086138612861486F093AE
:100EA0001104E09310048DE090E00E940E1EFC01FE
:100EB00086EC93E0918380831582148217821682D8
:100EC0001382128211861086138612861486F0937E
:100ED0000F04E0930E048091120490911304DC013E
:100EE000ED91FC910480F581E02D60911001099550
:100EF0008091120490911304DC01ED91FC91048027
:100F0000F581E02D60910F01099580911004909179
:100F10001104DC01ED91FC910480F581E02D20911C
:100F20000E0129832FEF3FEF3B832A83BE016F5FC2
:100F30007F4F099566EA71E083E294E00E94621EA9
:100F400083E294E00E946B1E0E94CE0563EB71E089
:100F500083E294E00E94621E83E294E00E946B1E92
:100F600060E0809111010E94A51B83B7817F83BF40
:100F70008091080190910901A0910A01B0910B01A3
:100F80008093FD039093FE03A093FF03B0930004AE
:100F9000A0910601B091070120E432E44FE050E057
:100FA0000E940522AB01BC0184E194E00E94D119AA
:100FB0002FEF3FEFA90160E472E084E194E00E942A
:100FC000E11910920B041092FC031092FB0381E0D4
:100FD000809303041092FA036EEB71E083E294E0D5
:100FE0000E94621E83E294E00E946B1E68EC71E036
:100FF00083E294E00E94621E83E294E00E946B1EF2
:1010000080910E0490910F04DC01ED91FC91019010
:10101000F081E02D09958C0166ED71E083E294E0AA
:101020000E94621E4AE050E0B80183E294E00E9410
:101030001A1F83E294E00E946B1E8091100490912D
:101040001104DC01ED91FC910190F081E02D0995F6
:101050008C0160EE71E083E294E00E94621E4AE03F
:1010600050E0B80183E294E00E941A1F83E294E00A
:101070000E946B1E8091120490911304DC01ED918B
:10108000FC910190F081E02D09958C016AEE71E0F0
:1010900083E294E00E94621E4AE050E0B80183E2DD
:1010A00094E00E941A1F83E294E00E946B1E68EC99
:1010B00071E083E294E00E94621E83E294E00E9469
:1010C0006B1E60E777E180E090E00E94EA1A0F90E3
:1010D0000F900F90DF91CF911F910F9108950F9373
:1010E0001F93CF93DF9300D0CDB7DEB700E010E0C1
:1010F0001A8309836FEFCE0101960E946B030F5F85
:101100001F4F011584E0180799F70F900F90DF919A
:10111000CF911F910F9108958F929F92AF92BF929E
:10112000CF92DF92EF92FF920F931F93CF93DF93B3
:10113000CDB7DEB766970FB6F894DEBF0FBECDBF52
:101140008C0180E090E00E94690390E08F3F910560
:1011500019F481E090E001C0019690930D01809315
:101160000C0160910C0180E090E00E94B624EE2416
:10117000E394F12CC7010E94AE248F3F09F047C0D1
:10118000D8018D91BD0189836E01B1E1CB0ED11CD7
:10119000C6010E9435204E01E2E08E0E911CA12C6A
:1011A000B12CB501C6010E944621DC018C91F401ED
:1011B00081934F01FFEFAF1ABF0A8BE0A816B1046D
:1011C00081F7D80117968C9117978D8718968C9177
:1011D00018978E871B968D919C911C97988B8F8763
:1011E000C6010E94641FFE0131965F01EE1AFF0ADC
:1011F000C7018A0D9B1DD5016D915D019A8B898B6D
:10120000C6010E946B03AC14BD0491F709C0B0E1A4
:10121000EB0EF11CE1E0EE16E4E0FE0609F0AACFC9
:1012200061E0D80117968C910E94A51BE0910E04F5
:10123000F0910F040190F081E02DE480F580B80179
:10124000CE0101960E94DE03BE016F5F7F4F809149
:101250000E0490910F04F7010995CE0102960E94A9
:10126000641F8091120490911304DC01ED91FC91B4
:101270000480F581E02DD80117966C910995809135
:10128000100490911104DC01ED91FC910480F58132
:10129000E02DD80118962C911897298319962D9135
:1012A0003C911A973B832A83BE016F5F7F4F09955C
:1012B00066960FB6F894DEBF0FBECDBFDF91CF911B
:1012C0001F910F91FF90EF90DF90CF90BF90AF9064
:1012D0009F908F9008951F93CF93DF93182FC0E0B6
:1012E000D0E08091120490911304DC01ED91FC9107
:1012F0000190F081E02D0995C817D90784F48091F9
:10130000120490911304DC01ED91FC910088F189A5
:10131000E02DBE010995811729F02196E2CF8FEFCC
:101320009FEF01C0CE01DF91CF911F9108951F93D0
:10133000CF93DF93162F64EF71E083E294E00E9475
:10134000621E83E294E00E946B1EE0911204F09111
:1013500013040190F081E02DC089D189812F0E9472
:101360006B09BC018091120490911304FE01099550
:1013700060E00E94DE1B81E080930304DF91CF9147
:101380001F9108951F93CF93DF93162F6CEF71E099
:1013900083E294E00E94621E83E294E00E946B1E4E
:1013A000E0911204F09113040190F081E02DC089C6
:1013B000D189812F0E946B09BC0180911204909108
:1013C0001304FE01099561E00E94DE1B81E0809319
:1013D0000304DF91CF911F910895EF92FF920F9335
:1013E0001F93CF93DF9300D01F92CDB7DEB700E0FD
:1013F00010E0E82EF12C8091100490911104DC0192
:10140000ED91FC910190F081E02D099508171907E5
:10141000C4F46091100470911104DB01ED91FC9112
:101420000088F189E02DA801CE01019609958981F6
:10143000992787FD90958E159F0531F00F5F1F4FFF
:10144000DACF8FEF9FEF01C0C8010F900F900F9080
:10145000DF91CF911F910F91FF90EF900895CF9260
:10146000DF92EF92FF920F931F93CF93DF936B0165
:101470002091FB033091FC03DB010D911C9146E0B0
:10148000409FF001419FF00D1124A9014E0F5F1FF5
:1014900067E979E0EA0179836883AA2797FDA09537
:1014A000BA2F8A839B83AC83BD83AF014A5F5F4FB2
:1014B000420F531F6BE771E0EA01798368831A8258
:1014C0001B821C821D827F01DCE0ED0EF11CE20E0E
:1014D000F31E41EA51E0E7015983488348E050E0B8
:1014E00060E070E04A835B836C837D83AF014E5E76
:1014F0005F4F420F531F6EE871E0EA017983688302
:101500001A821B821C821D827896E20FF31F22EC46
:1015100039E03183208382839383A483B5830C5F76
:101520001F4FF60111830083DF91CF911F910F911F
:10153000FF90EF90DF90CF900895CF93DF93C0E0BE
:10154000D0E08091120490911304DC01ED91FC91A4
:101550000190F081E02D0995C817D9078CF480918E
:10156000120490911304DC01ED91FC910088F18943
:10157000E02DBE01099561E00E94DE1B2196E1CFBE
:10158000DF91CF9108950E949D0A81E0809303042A
:1015900008950F931F93CF93DF93CDB7DEB72D97A9
:1015A0000FB6F894DEBF0FBECDBF80910E049091B0
:1015B0000F04DC01ED91FC910190F081E02D099583
:1015C000181619060CF09DC060E080910F010E9472
:1015D000DE1B65E072E083E294E00E946F1E6CEE19
:1015E00073E083E294E00E946F1E6AE070E080E0A6
:1015F00090E00E94EA1A00E010E080910E049091C1
:101600000F04DC01ED91FC910190F081E02D099532
:1016100008171907C4F560E172E083E294E00E94C4
:10162000621E4AE050E0B80183E294E00E941A1F73
:101630006BE671E083E294E00E94621E60910E040A
:1016400070910F04DB01ED91FC910088F189E02D90
:10165000A801CE01019609956DE172E083E294E064
:101660000E946F1ECE0109960E948B03CE01029646
:101670000E94641F6CEE73E083E294E00E946F1E90
:101680000F5F1F4FBACF61E472E083E294E00E94E3
:101690006F1EE0911004F09111040190F081E02D93
:1016A0000089118980910E010E94ED09609110045A
:1016B00070911104AC01CE010196F8010995CE019B
:1016C00001960E948B034AE050E0BC0183E294E063
:1016D0000E94221F6CEE73E083E294E00E946F1E72
:1016E0006AE070E080E090E00E94EA1A61E0809198
:1016F0000F010E94DE1B69E472E083E294E00E9425
:101700006F1E2D960FB6F894DEBF0FBECDBFDF91D2
:10171000CF911F910F910895CF92DF92EF92FF9298
:101720000F931F93CF93DF93CDB7DEB76A970FB6B2
:10173000F894DEBF0FBECDBF83E090E090930D0420
:1017400080930C040E94C90A00E010E080910E040E
:1017500090910F04DC01ED91FC910190F081E02D5E
:101760000995081719070CF064C060910E04709178
:101770000F04DB01ED91FC910088F189E02DA801B7
:10178000CE010E960995EF88F88C60910E04709149
:101790000F04DB01ED91FC910088F189E02DA80197
:1017A000CE0101960995CC84DD84CE0102960E947B
:1017B000641FCE010F960E94641FCE14DF04CCF488
:1017C00080910C0490910D04059690930D048093E4
:1017D0000C0465E572E083E294E00E94621E4AE038
:1017E00050E0B80183E294E00E941A1F61E672E0C3
:1017F0000FC065E572E083E294E00E94621E4AE059
:1018000050E0B80183E294E00E941A1F61E772E0A1
:1018100083E294E00E94621E83E294E00E946B1EC9
:1018200064E170E080E090E00E94EA1A0F5F1F4FD1
:101830008DCF6A960FB6F894DEBF0FBECDBFDF9195
:10184000CF911F910F91FF90EF90DF90CF9008956F
:101850008F929F92AF92BF92CF92DF92EF92FF92C0
:101860000F931F93CF93DF93CDB7DEB76C970FB66F
:10187000F894DEBF0FBECDBF7C016B011092FA035E
:1018800069E872E00E942721882309F4DFC061E93A
:1018900072E083E294E00E94621E83E294E00E9480
:1018A0006B1E0E948C0B80910E0490910F04DC0142
:1018B000ED91FC910190F081E02D09958C016EE98C
:1018C00072E083E294E00E94621E4AE050E0B801B8
:1018D00083E294E00E941A1F83E294E00E946B1E50
:1018E00000910C0410910D046EEA72E083E294E022
:1018F0000E94621E4AE050E0B80183E294E00E9438
:101900001A1F83E294E00E946B1E20910C04309118
:101910000D042134B5E13B0738F446E0429FC00195
:10192000439F900D112402C08FEF9FEF0E94101E65
:101930009093FC038093FB031C8E1B8E00E010E051
:1019400080910E0490910F04DC01ED91FC910190C7
:10195000F081E02D099508171907CCF560910E0468
:1019600070910F04DB01ED91FC910088F189E02D6D
:10197000A801CE010E960995AF88B88C60910E042F
:1019800070910F04DB01ED91FC910088F189E02D4D
:10199000A801CE01019609958C849D84CE01029602
:1019A0000E94641FCE010F960E94641F8A149B043C
:1019B0005CF4BE01655E7F4FC8010E942F0A8B8DCB
:1019C0009C8D01969C8F8B8F0F5F1F4FB9CF80919D
:1019D000FB039091FC0320910C0430910D0446E030
:1019E000429FF001439FF00D1124DF015297A80F91
:1019F000B91F23EC3AE011963C932E9312961D9258
:101A00001D921D921C921597DF011C97A80FB91FFC
:101A100021EA31E011963C932E93409108015091B8
:101A2000090160910A0170910B0112964D935D932B
:101A30006D937C9315973697E80FF91F8DEE91E023
:101A40009183808312821382148215826AEB72E082
:101A5000C7010E942721882309F44DC066EC72E07B
:101A600083E294E00E94621E83E294E00E946B1E77
:101A70000E949D0A60E070E0CB010E94ED0167EDDD
:101A800072E083E294E00E94621E83E294E00E948E
:101A90006B1E86E090E090930D0480930C041A82F4
:101AA000198284E290E00E94101E9093FC038093C0
:101AB000FB03BE016F5F7F4FC6010E942F0A20917A
:101AC0000C0430910D0446E0429FC001439F900DED
:101AD00011240697E091FB03F091FC03E80FF91F36
:101AE0008DEE91E09183808312821382148215829D
:101AF00081E0809303046CEE72E0C7010E9427210D
:101B0000882309F49BC081E090E090930D048093BA
:101B10000C040E94F10200910C0410910D046EEA75
:101B200072E083E294E00E94621E4AE050E0B80155
:101B300083E294E00E941A1F83E294E00E946B1EED
:101B400020910C0430910D042134B5E13B0738F4A9
:101B500046E0429FC001439F900D112402C08FEFC9
:101B60009FEF0E94101E9093FC038093FB031C8E3A
:101B70001B8E00E010E080910E0490910F04DC01B8
:101B8000ED91FC910190F081E02D0995081719075E
:101B9000CCF560910E0470910F04DB01ED91FC9186
:101BA0000088F189E02DA801CE010E960995CF8815
:101BB000D88C60910E0470910F04DB01ED91FC91C3
:101BC0000088F189E02DA801CE0101960995AC8429
:101BD000BD84CE0102960E94641FCE010F960E9422
:101BE000641FAC14BD045CF4BE01655E7F4FC80188
:101BF0000E942F0A8B8D9C8D01969C8F8B8F0F5F7F
:101C00001F4FB9CF20910C0430910D0446E0429F44
:101C1000C001439F900D11240697E091FB03F091C2
:101C2000FC03E80FF91F8DEE91E09183808312820F
:101C300013821482158281E0809303046EEF72E0B8
:101C4000C7010E942721882309F476C06EE073E063
:101C500083E294E00E94621E83E294E00E946B1E85
:101C60000E949D0A60E070E0CB010E94ED0167EDEB
:101C700072E083E294E00E94621E83E294E00E949C
:101C80006B1E81E090E090930D0480930C040E9401
:101C9000F1021A82198220910C0430910D04213432
:101CA000B5E13B0738F446E0429FC001439F900DE9
:101CB000112402C08FEF9FEF0E94101E9093FC032F
:101CC0008093FB0300E010E080910E0490910F04DC
:101CD000DC01ED91FC910190F081E02D0995081750
:101CE000190774F4BE016F5F7F4FC8010E942F0A6D
:101CF00089819A8101969A8389830F5F1F4FE4CF70
:101D000020910C0430910D0446E0429FC001439F96
:101D1000900D11240697E091FB03F091FC03E80F6E
:101D2000F91F8DEE91E091838083128213821482D9
:101D3000158281E08093030463E273E083E294E020
:101D40000E94621E83E294E00E946B1E64E170E0D8
:101D500080E090E00E94EA1A6C960FB6F894DEBF1D
:101D60000FBECDBFDF91CF911F910F91FF90EF90EC
:101D7000DF90CF90BF90AF909F908F90089583B7E2
:101D8000816083BF40E050E069E870E080E00E943D
:101D9000FD19E4E6F0E080818160808380818460C9
:101DA0008083808180628083808180648083808161
:101DB0008068808383B7816083BF889583B78E7F77
:101DC00083BF83B78E7F83BF80818F77808380813D
:101DD0008F7B808380818F7D808380818B7F8083D8
:101DE00080818E7F808380E00E941D1A62E373E011
:101DF00083E294E00E946F1E60E570E080E090E076
:101E00000C94EA1ACF93DF9300D01F92CDB7DEB7C0
:101E10002FEF29832FEF3FEF3B832A83AE014F5FE4
:101E20005F4F6FEF0E94B1030F900F900F90DF9103
:101E3000CF910895EF92FF920F931F93CF93DF936B
:101E400000D0CDB7DEB77C018FE090E069837A8364
:101E50000E940E1E8C018FE0D8011D928A95E9F731
:101E6000C8010E94020F69817A81C8010E94AD05F4
:101E7000F80116861586D70114968D919C911597B9
:101E8000892B59F01696ED91FC91179716870587C7
:101E900017961C930E93169705C0F70115830483BC
:101EA00017830683D70112968D919C911397019603
:101EB00013969C938E9312971C961C9281E00F9020
:101EC0000F90DF91CF911F910F91FF90EF900895A8
:101ED000EF92FF920F931F93CF93DF93CDB7DEB7AF
:101EE0002F970FB6F894DEBF0FBECDBF8C01DC017B
:101EF00012968D919C911397892BA1F4ED91FC91F1
:101F0000E480F580CE0101960E94DE03BE016F5F82
:101F10007F4FC801F7010995182FCE0102960E9444
:101F2000641F26C08FE090E06E877F870E940E1EA0
:101F30007C018FE0D7011D928A95E9F7C7010E94C5
:101F4000020FF80184819581D7011E969C938E9390
:101F50001D976E857F85C7010E94AD05F801F5824A
:101F6000E48282819381019693838283148611E0B7
:101F7000812F2F960FB6F894DEBF0FBECDBFDF9135
:101F8000CF911F910F91FF90EF900895FC01A481D4
:101F9000B5818485882341F02285338562177307D4
:101FA0001CF0A085B1850BC020E030E008C0109780
:101FB000A1F011960D90BC91A02D2F5F3F4F2617D9
:101FC0003707ACF32617370741F481E0848733875E
:101FD0002287B187A087CD01089580E090E0089521
:101FE0000E94C60F009719F0FC018081089580E0DF
:101FF0000895FF920F931F93CF93DF93EC016A81B3
:102000007B81161617065CF51C8661307105C9F0D8
:10201000625071090E94C60F8C01FC01818192817E
:10202000FC01F0800E94121EF801128211821F83AF
:102030000E832A813B81215031093B832A838F2DD6
:102040000FC08C819D81FC0110810E94121E1D8297
:102050001C821F821E821B821A82812F01C080E097
:10206000DF91CF911F910F91FF900895CF92DF9252
:10207000EF92FF920F931F93CF93DF931F92CDB7F1
:10208000DEB76C017B01DC0112968D919C91139758
:102090006817790734F0ED91FC910480F581E02D0B
:1020A00009C06115710591F4D601ED91FC9106808E
:1020B000F781E02D642FC6010F90DF91CF911F9122
:1020C0000F91FF90EF90DF90CF90099483E090E024
:1020D00049830E940E1E8C01FC0110821282118223
:1020E000B70161507109C6010E94C60F4981D8012C
:1020F0004C93FC012181328112963C932E931197CF
:1021000012830183D60112968D919C9113970196AB
:1021100013969C938E9312971C961C9281E00F90BD
:10212000DF91CF911F910F91FF90EF90DF90CF90B3
:102130000895CF93DF931F92CDB7DEB777FD0EC022
:10214000FC01228133816217730744F449830E94A2
:10215000C60F4981FC01408381E001C080E00F90FF
:10216000DF91CF9108951F93CF93DF93EC0177FD1B
:1021700039C08A819B8168177907A4F561157105BB
:1021800031F4E881F9810684F785E02D09C00197D3
:102190006817790751F4E881F9810484F585E02D09
:1021A000CE01DF91CF911F91099461507109CE0149
:1021B0000E94C60FDC011196ED91FC9112971081DF
:1021C0002181328112963C932E931197CF010E9468
:1021D000121E2A813B81215031093B832A831C86B0
:1021E000812F01C080E0DF91CF911F910895FC0104
:1021F000A481B5818485882341F0228533856217C7
:1022000073071CF0A085B1850BC020E030E008C04A
:102210001097A1F013960D90BC91A02D2F5F3F4F0A
:1022200026173707ACF32617370741F481E0848778
:1022300033872287B187A087CD01089580E090E0A1
:102240000895CF93DF93EC01CB01BA010E94F71000
:10225000009731F0FC01208128838181928104C0A4
:102260008FEF88838FEF9FEF9A838983CE01DF9171
:10227000CF910895BF92CF92DF92EF92FF920F938A
:102280001F93CF93DF938C01EB016A817B8116163C
:10229000170644F08FEFF80180838FEF9FEF928352
:1022A000818334C01C8661307105F1F06250710980
:1022B000CE010E94F7107C01FC0183819481FC0116
:1022C000B080C180D2800E94121EF7011482138256
:1022D000FF82EE828A819B8101979B838A83F8012A
:1022E000B082D282C18212C08C819D81FC01D080DB
:1022F000E180F2800E94121E1D821C821F821E82BB
:102300001B821A82F801D082F282E182C801DF9139
:10231000CF911F910F91FF90EF90DF90CF90BF90E2
:102320000895AF92BF92CF92DF92EF92FF920F93F8
:102330001F93CF93DF9300D01F92CDB7DEB78C01F0
:102340005B016A01DC0112968D919C9113976817CD
:10235000790734F0ED91FC910480F581E02D09C0FE
:1023600061157105A9F4D801ED91FC910680F78102
:10237000E02DD6018C91898311968D919C911297B5
:102380009B838A83BE016F5F7F4FC80109952FC071
:1023900085E090E00E940E1E7C01FC0114821382F5
:1023A0008FEF80838FEF9FEF92838183B501615020
:1023B0007109C8010E94F710D6012D913D914C91F1
:1023C000F701208331834283DC0113962D913C91E8
:1023D0001497348323831496FC92EE921397F8019A
:1023E00082819381019693838283148681E00F908A
:1023F0000F900F90DF91CF911F910F91FF90EF9071
:10240000DF90CF90BF90AF900895CF93DF93EA0114
:1024100077FD11C0FC0122813381621773075CF4E0
:102420000E94F710288139814A81FC012083318381
:10243000428381E001C080E0DF91CF910895DF9277
:10244000EF92FF920F931F93CF93DF938C01EB01D9
:1024500057FD05C08A819B814817590754F08FEFBB
:10246000D8018C938FEF9FEF12969C938E931197C8
:1024700037C04115510531F4E881F9810684F785AB
:10248000E02D09C001974817590749F4E881F981FF
:102490000484F585E02DBE01C801099521C0BA016B
:1024A00061507109CE010E94F710DC011396ED9185
:1024B000FC911497D080E180F280238134811496BE
:1024C0003C932E931397CF010E94121E8A819B8109
:1024D00001979B838A831C86F801D082F282E18275
:1024E000C801DF91CF911F910F91FF90EF90DF9086
:1024F0000895FC01A481B5818485882341F022855B
:102500003385621773071CF0A085B1850BC020E0EE
:1025100030E008C01097A1F01D960D90BC91A02D41
:102520002F5F3F4F26173707ACF32617370741F4C5
:1025300081E0848733872287B187A087CD01089502
:1025400080E090E008950F931F93CF93DF9300D026
:102550001F92CDB7DEB78C01CB01BA010E94791270
:10256000009729F0BC01C8010E94DE030FC08FEF65
:1025700089838FEF9FEF9B838A832FEF3FEFAE011D
:102580004F5F5F4F6FEFC8010E94B103C8010F900A
:102590000F900F90DF91CF911F910F910895AF92FF
:1025A000BF92CF92DF92EF92FF920F931F93CF9340
:1025B000DF93CDB7DEB72D970FB6F894DEBF0FBE11
:1025C000CDBF7C018B01FB0162817381161617065A
:1025D00084F08FEF89838FEF9FEF9B838A832FEFA8
:1025E0003FEFAE014F5F5F4F6FEFC7010E94B10336
:1025F00050C0F80114866130710531F162507109E3
:10260000C8010E9479126C01FC0165857685CE01B6
:1026100001960E94DE03F601A584B684A114B104DC
:1026200039F0C50101960E94641FC5010E94121E67
:10263000F60116861586F801D782C68282819381BB
:102640000197938382831BC0F80164817581CE0159
:1026500001960E94DE03F801C480D580C114D10424
:1026600039F0C60101960E94641FC6010E94121E25
:10267000F801158214821782168213821282BE011B
:102680006F5F7F4FC7010E94DE03CE0102960E945A
:10269000641FC7012D960FB6F894DEBF0FBECDBFE5
:1026A000DF91CF911F910F91FF90EF90DF90CF902E
:1026B000BF90AF900895AF92BF92CF92DF92EF920A
:1026C000FF920F931F93CF93DF93CDB7DEB72D9774
:1026D0000FB6F894DEBF0FBECDBF8C015B016A015F
:1026E000DC0112968D919C911397681779072CF055
:1026F000ED91FC91E480F58008C061157105B1F49D
:10270000D801ED91FC91E680F780B601CE010196EB
:102710000E94DE03BE016F5F7F4FC801F70109957C
:10272000182FCE0102960E94641F2AC08FE090E00D
:102730000E940E1E7C018FE0D7011D928A95E9F759
:10274000C7010E94020FB50161507109C8010E94C2
:1027500079125C01B601C7010E94AD05F5018585BE
:102760009685D7011E969C938E931D97F686E586D7
:10277000F80182819381019693838283148611E00C
:10278000812F2D960FB6F894DEBF0FBECDBFDF911F
:10279000CF911F910F91FF90EF90DF90CF90BF905E
:1027A000AF900895CF93DF93EA0177FD0DC0FC0150
:1027B00022813381621773073CF40E947912BE01B3
:1027C0000E94AD0581E001C080E0DF91CF910895C6
:1027D000AF92BF92CF92DF92EF92FF920F931F932F
:1027E000CF93DF93CDB7DEB72D970FB6F894DEBF4A
:1027F0000FBECDBF7C018B0157FD08C0DB011296D7
:102800008D919C9113974817590784F08FEF898316
:102810008FEF9FEF9B838A832FEF3FEFAE014F5FD8
:102820005F4F6FEFC7010E94B1034DC041155105C5
:1028300039F4DB01ED91FC910684F785E02D0AC0A7
:1028400001974817590751F4DB01ED91FC9104847D
:10285000F585E02DB801C701099535C0BA01615071
:102860007109C8010E9479125C01FC01C584D684FB
:10287000B601CE0101960E94DE03D5011D96ED91B1
:10288000FC911E97858596851E969C938E931D9729
:10289000C114D10439F0C60101960E94641FC6011B
:1028A0000E94121EF8018281938101979383828393
:1028B0001486BE016F5F7F4FC7010E94DE03CE0109
:1028C00002960E94641FC7012D960FB6F894DEBFD2
:1028D0000FBECDBFDF91CF911F910F91FF90EF9071
:1028E000DF90CF90BF90AF9008956CEE73E084E0DE
:1028F00094E00E94D21F8091080190910901A0915B
:102900000A01B0910B018093FD039093FE03A09305
:10291000FF03B0930004089584E094E00C94641FD6
:10292000CF93DF9300D000D000D0CDB7DEB76CEEF0
:1029300073E084E094E00E944A2083E294E00E94E5
:10294000141C1816190664F483E294E00E942D1CEE
:1029500080930A04682F84E094E00E94E720EDCF82
:102960008091080490910904892BB9F064E074E027
:10297000CE0101960E94352069E373E083E294E082
:102980000E94621EBE016F5F7F4F83E294E00E944F
:10299000541ECE0101960E94641F26960FB6F8942D
:1029A000DEBF0FBECDBFDF91CF9108952F923F9232
:1029B0004F925F926F927F928F929F92AF92BF924F
:1029C000CF92DF92EF92FF920F931F93CF93DF93FB
:1029D000CDB7DEB7CD56D1090FB6F894DEBF0FBE26
:1029E000CDBF6C0160E070E00E946921863609F479
:1029F00093C14CF4833609F448C0843609F091C37E
:102A00000E946F088EC3853731F0873739F08237DF
:102A100009F087C342C000E010E069C061E070E0E7
:102A2000C6010E9469218B3329F0863661F46EEF6E
:102A300072E002C06CEE72E0CE0101960E94D21FDD
:102A40006FEF7FEF1DC0D60114962D913C91159725
:102A500041E050E0B601CE0101960E948721CE01EF
:102A600001960E94CC21162FCE0101960E94641F70
:102A70006AEB72E0CE0101960E94D21F612F70E0D6
:102A8000CE0101960E94280C2FC00E94C90A61E065
:102A900070E0C6010E94692144C361E070E0C60194
:102AA0000E9469218B3309F03CC30E9423050E94D8
:102AB0006F0860E070E0CB010E94ED01B601CE012D
:102AC00001960E9435206FE372E083E294E00E9459
:102AD000621EBE016F5F7F4F83E294E00E94541E2E
:102AE00083E294E00E946B1ECE01019618C3809190
:102AF0000E0490910F04DC01ED91FC910190F081A6
:102B0000E02D0995081719070CF0FBC060910E0421
:102B100070910F04DB01ED91FC910088F189E02DAB
:102B2000A801CE01019609956C857D854AE0CE010C
:102B30008E5B9F4F0E948F2060910E0470910F0456
:102B4000DB01ED91FC910088F189E02DA801CE0117
:102B50000E9609956E89772767FD70954AE0CE013C
:102B6000885B9F4F0E948F2060910E0470910F042C
:102B7000DB01ED91FC910088F189E02DA801CE01E7
:102B80004B9609954AE06AA1CE01825B9F4F0E9455
:102B9000622060910E0470910F04DB01ED91FC91B5
:102BA0000088F189E02DA801CE0188960995BE0123
:102BB000675D7F4FCE018C5A9F4F0E9435206091F8
:102BC0000E0470910F04DB01ED91FC910088F189F6
:102BD000E02DA801CE01C59609954AE06DA9CE0168
:102BE000805A9F4F0E9462206EE373E0CE01865AA6
:102BF0009F4F0E94D21FBE01605A7F4FCE01865A5E
:102C00009F4F0E94FA2067E472E00E940D21BE01EE
:102C10006C5A7F4F0E94FA2067E472E00E940D21F7
:102C2000BE01625B7F4F0E94FA2067E472E00E945F
:102C30000D21BE01685B7F4F0E94FA2067E472E0BD
:102C40000E940D21BE016E5B7F4F0E94FA2063E45B
:102C500073E00E940D21BC01CE018A599F4F0E9452
:102C60003520CE01865A9F4F0E94641FCE01805AA4
:102C70009F4F0E94641FCE01C6960E94641FCE0122
:102C80008C5A9F4F0E94641FCE0189960E94641F38
:102C9000CE01825B9F4F0E94641FCE014C960E9422
:102CA000641FCE01885B9F4F0E94641FCE010F9668
:102CB0000E94641FCE018E5B9F4F0E94641FCE0155
:102CC00002960E94641FBE016A597F4FCE01019691
:102CD0000E943520BE016F5F7F4F83E294E00E9427
:102CE000541E83E294E00E946B1ECE0101960E9466
:102CF000641FCE018A599F4F0E94641F0F5F1F4FB0
:102D0000F6CE61E473E083E294E00E94621E83E207
:102D100094E00E946B1E05C28FEF89838FEF9FEFB7
:102D20009B838A838DE090E00E940E1E5C012FEF52
:102D30003FEFAE014F5F5F4F6FEF0E94B103F601AF
:102D40002481358141E050E0B601CE010E960E940B
:102D50008721BE01625F7F4FCE0101960E94352020
:102D600065E473E083E294E00E94621EBE016F5F3F
:102D70007F4F83E294E00E94541E83E294E00E941D
:102D80006B1ECE0101960E94641F40E050E06AE392
:102D9000CE010E960E946B217C016DE473E083E20C
:102DA00094E00E94621E83E294E00E946B1E83E224
:102DB00094E00E94701C20E030E000E010E035015B
:102DC000FFEF6F1A7F0A88248A94982CBFEFEB16C6
:102DD000FB0609F42CC12130310509F498C00CF030
:102DE00046C02115310509F00EC19701A801BE01A9
:102DF000625F7F4FCE0101960E948721CE0101962E
:102E00000E94CC211B012C0160E673E083E294E078
:102E10000E94621E2AE030E0B201A10183E294E048
:102E20000E94D01E83E294E00E946B1ECE010196A8
:102E30000E94641F83E294E00E94701C9701A80125
:102E4000BE01625F7F4FCE0101960E948721CE01B5
:102E500001960E94CC21D5016C93CE0101960E946F
:102E6000641F87010F5F1F4F21E030E0CCC022308C
:102E7000310509F487C02330310509F0C4C097013A
:102E8000A801BE01625F7F4FCE0101960E9487219B
:102E9000CE0101960E94CC211B012C0164E773E056
:102EA00083E294E00E94621E2AE030E0B201A101B8
:102EB00083E294E00E94D01E83E294E00E946B1EA5
:102EC000CE0101960E94641F83E294E00E94701C70
:102ED0009701A801BE01625F7F4FCE0101960E945B
:102EE0008721CE0101960E94CC21D50118966C93C2
:102EF00018971A969C928E921997CE0101960E946D
:102F0000641F87010F5F1F4F24E030E07CC09701F2
:102F1000A801BE01625F7F4FCE0101960E9487210A
:102F200065E673E083E294E00E94621EBE016F5F7B
:102F30007F4F83E294E00E94541E83E294E00E945B
:102F40006B1ECE0101960E94641F83E294E00E94F2
:102F5000701C9701A801BE01625F7F4FCE010196F0
:102F60000E948721BE016F5F7F4FC3010E941E2018
:102F7000CE0101960E94641F87010F5F1F4F22E060
:102F800030E041C09701A801BE01625F7F4FCE01D2
:102F900001960E948721CE0101960E94CC211B013F
:102FA0002C016CE673E083E294E00E94621E2AE04A
:102FB00030E0B201A10183E294E00E94D01E83E2DE
:102FC00094E00E946B1ECE0101960E94641F83E272
:102FD00094E00E94701C9701A801BE01625F7F4FC0
:102FE000CE0101960E948721CE0101960E94CC213C
:102FF000F5016783CE0101960E94641F87010F5F70
:103000001F4F23E030E0A8016AE3CE010E96AD9693
:103010002FAFAD97AE963FAFAE970E946B217C016C
:10302000AE963FADAE97AD962FADAD97CFCEA80182
:103030006BE3CE010E960E946B217C019C01A801DE
:10304000BE01625F7F4FCE0101960E948721CE01B3
:1030500001960E94CC212B013C0161E873E083E2E0
:1030600094E00E94621E2AE030E0B301A20183E2F4
:1030700094E00E94D01E83E294E00E946B1ECE0179
:1030800001960E94641F83E294E00E94701C9701E5
:10309000A801BE01625F7F4FCE0101960E94872189
:1030A000CE0101960E94CC21F50174876387CE0181
:1030B00001960E94641FB501CE0101960E94DE03B5
:1030C000CE0101960E948C08CE0102960E94641FD8
:1030D00060E070E0CB010E94ED01B601CE010196E7
:1030E0000E9435206FE372E083E294E00E94621E4A
:1030F000BE016F5F7F4F83E294E00E94541ECE01B9
:1031000001960E94641F61E473E083E294E00E94F0
:10311000621E83E294E00E946B1ECE010E960E9416
:10312000641FC359DF4F0FB6F894DEBF0FBECDBF8B
:10313000DF91CF911F910F91FF90EF90DF90CF9093
:10314000BF90AF909F908F907F906F905F904F90C7
:103150003F902F900895CF93DF9300D000D000D000
:10316000CDB7DEB780910104882311F110920104DC
:103170000E94901460E070E084E094E00E94462198
:10318000FC0180818E32A1F4209108043091090461
:1031900041E050E064E074E0CE0101960E94872196
:1031A000CE0101960E94D614CE0101960E94641FA2
:1031B00080910204811104C080910304882399F155
:1031C00010920304109202048091FB039091FC037F
:1031D000892B81F469E872E0CE0101960E94D21F2A
:1031E0006FEF7FEFCE0101960E94280CCE01019671
:1031F0000E94641F8091FA03E091FB03F091FC03AD
:1032000096E0899FE00DF11D112462817381848114
:1032100095810190F081E02D09958091FA038F5FEF
:103220008093FA0312C01092020464E670E080E01A
:1032300090E00E94EA1A83E294E00E94141C18169F
:103240001906B4F481E0809301046BE873E083E233
:1032500094E00E94621E83E294E00E946B1E269618
:103260000FB6F894DEBF0FBECDBFDF91CF910895AA
:103270000E94BF0E40E050E069E870E080E00E94EC
:10328000FD19E3CF1F920F920FB60F9211242F93C7
:103290003F934F935F936F937F938F939F93AF93DE
:1032A000BF93EF93FF93E0911804F09119040995EF
:1032B000FF91EF91BF91AF919F918F917F916F910E
:1032C0005F914F913F912F910F900FBE0F901F90E4
:1032D0001895FC01A3E0440F551F661F771FAA95A0
:1032E000D1F74115510581E06807710514F481E0BB
:1032F0000EC033E075956795579547953A95D1F788
:103300004115510581E0680771051CF482E0828354
:1033100031C023E075956795579547952A95D1F764
:103320004115510581E06807710514F483E0EFCF82
:1033300092E075956795579547959A95D1F7411500
:10334000510581E06807710514F484E0E0CF82E064
:1033500075956795579547958A95D1F785E082834E
:103360004115510581E06807710524F04FEF5FEFCB
:1033700060E070E08FB78383F8945183408350936B
:1033800087004093860083818FBF80918100887F72
:1033900080938100809181009281892B80938100AC
:1033A00008951092800020E1209381000C94691907
:1033B000E1E8F0E02081DC0112968C91282B20833B
:1033C00008950F931F93CF93DF93EC018B01BA0104
:1033D000A901141615061606170614F40E94691999
:1033E0001D830C8381E080936F00CE01DF91CF912C
:1033F0001F910F910C94D81908958230E8F4E82FAA
:10340000F0E0EE0FFF1FED5EFE4F718360838130B1
:1034100041F0809169008C7F842B80936900E89A49
:10342000089580916900440F551F440F551F837FF5
:10343000842B80936900E99A0895823078F4813072
:1034400011F0E89801C0E998E82FF0E0EE0FFF1FB7
:10345000ED5EFE4F8CEF99E19183808308951F927A
:103460000F920FB60F9211242F933F934F935F93B8
:103470006F937F938F939F93AF93BF93EF93FF933C
:10348000E0911301F09114010995FF91EF91BF9123
:10349000AF919F918F917F916F915F914F913F91EC
:1034A0002F910F900FBE0F901F9018951F920F92A3
:1034B0000FB60F9211242F933F934F935F936F9307
:1034C0007F938F939F93AF93BF93EF93FF93E0917D
:1034D0001501F09116010995FF91EF91BF91AF9100
:1034E0009F918F917F916F915F914F913F912F911C
:1034F0000F900FBE0F901F9018951F920F920FB64E
:103500000F9211242F933F938F939F93AF93BF9369
:1035100080911B0490911C04A0911D04B0911E0485
:1035200030911A0423E0230F2D3720F40196A11DBA
:10353000B11D05C026E8230F0296A11DB11D2093E1
:103540001A0480931B0490931C04A0931D04B09351
:103550001E0480911F0490912004A0912104B09139
:1035600022040196A11DB11D80931F049093200495
:10357000A0932104B0932204BF91AF919F918F91AA
:103580003F912F910F900FBE0F901F9018953FB74E
:10359000F89480911F0490912004A0912104B0918F
:1035A000220426B5A89B05C02F3F19F00196A11D46
:1035B000B11D3FBF6627782F892F9A2F620F711D8B
:1035C000811D911D42E0660F771F881F991F4A9544
:1035D000D1F708958F929F92AF92BF92CF92DF92D0
:1035E000EF92FF926B017C010E94C71A4B015C01B4
:1035F000C114D104E104F104F1F00E94D7210E942A
:10360000C71A681979098A099B09683E73408105C0
:10361000910570F321E0C21AD108E108F10888EEA3
:10362000880E83E0981EA11CB11CC114D104E104D2
:10363000F10429F7DDCFFF90EF90DF90CF90BF909E
:10364000AF909F908F900895789484B5826084BDE8
:1036500084B5816084BD85B5826085BD85B5816096
:1036600085BDEEE6F0E0808181608083E1E8F0E0F6
:103670001082808182608083808181608083E0E825
:10368000F0E0808181608083E1EBF0E08081846004
:103690008083E0EBF0E0808181608083EAE7F0E006
:1036A000808184608083808182608083808181606A
:1036B00080838081806880831092C10008958E305D
:1036C00008F08E5087702091170190E4299F900197
:1036D0001124822B80937C0080917A0080648093F7
:1036E0007A0080917A0086FDFCCF8091780020914D
:1036F000790090E0922B0895833081F028F4813096
:1037000099F08230A1F008958730A9F08830B9F09F
:103710008430D1F4809180008F7D03C0809180003F
:103720008F7780938000089584B58F7702C084B529
:103730008F7D84BD08958091B0008F7703C0809104
:10374000B0008F7D8093B0000895CF93DF9390E019
:10375000FC01E458FF4F2491FC01E057FF4F849196
:10376000882349F190E0880F991FFC01E255FF4F33
:10377000A591B4918C559F4FFC01C591D4919FB7F1
:10378000611108C0F8948C91209582238C938881D4
:1037900082230AC0623051F4F8948C91322F309514
:1037A00083238C938881822B888304C0F8948C9126
:1037B000822B8C939FBFDF91CF9108950F931F931E
:1037C000CF93DF931F92CDB7DEB7282F30E0F901FA
:1037D000E859FF4F8491F901E458FF4F1491F90122
:1037E000E057FF4F04910023C9F0882321F069833B
:1037F0000E947C1B6981E02FF0E0EE0FFF1FEC556B
:10380000FF4FA591B4919FB7F8948C91611103C0BB
:103810001095812301C0812B8C939FBF0F90DF9166
:10382000CF911F910F910895FC01818D228D90E021
:10383000805C9F4F821B91098F7399270895FC012B
:10384000918D828D981731F0828DE80FF11D858D55
:1038500090E008958FEF9FEF0895FC01918D828D88
:10386000981761F0828DDF01A80FB11D5D968C91D4
:10387000928D9F5F9F73928F90E008958FEF9FEFDF
:10388000089581EB9DE1892B49F080E090E0892B40
:1038900029F00E94B11D81110C9400000895FC01D3
:1038A000848DDF01A80FB11DA35ABF4F2C91848DC9
:1038B00090E001968F739927848FA689B7892C93FE
:1038C000A089B1898C9180648C93938D848D981399
:1038D00006C00288F389E02D80818F7D8083089562
:1038E000CF93DF93EC01888D8823C9F0EA89FB89A7
:1038F000808185FD05C0A889B9898C9186FD0FC09E
:103900000FB607FCF5CF808185FFF2CFA889B98972
:103910008C9185FFEDCFCE010E944F1CE7CFDF9148
:10392000CF910895CF92DF92FF920F931F93CF9381
:10393000DF931F92CDB7DEB76C0181E0D6015896B8
:103940008C9358975B969C915B975C968C915C9757
:10395000981307C05096ED91FC915197808185FD99
:103960002EC0F601038D10E00F5F1F4F0F7311275C
:10397000F02EF601848DF81211C00FB607FCF9CFB6
:10398000D6015096ED91FC915197808185FFF1CF42
:10399000C60169830E944F1C6981EBCF838DE80FBC
:1039A000F11DE35AFF4F6083D6015B960C935B9742
:1039B0005296ED91FC915397808180620CC0D601A4
:1039C0005696ED91FC91579760835096ED91FC913E
:1039D000519780818064808381E090E00F90DF9137
:1039E000CF911F910F91FF90DF90CF900895BF92DC
:1039F000CF92DF92EF92FF92CF93DF93EC016A01B7
:103A00007B01B22EE889F98982E08083411581EE3D
:103A1000580761057105A1F060E079E08DE390E061
:103A2000A70196010E94D82121503109410951096D
:103A30005695479537952795211580E1380798F0D9
:103A4000E889F989108260E874E88EE190E0A701C6
:103A500096010E94D82121503109410951095695FA
:103A6000479537952795EC85FD853083EE85FF8555
:103A70002083188EEC89FD89B082EA89FB898081D8
:103A800080618083EA89FB89808188608083EA89FC
:103A9000FB89808180688083EA89FB8980818F7DB2
:103AA0008083DF91CF91FF90EF90DF90CF90BF9018
:103AB00008951F920F920FB60F9211242F938F9398
:103AC0009F93EF93FF93E0913304F091340480814E
:103AD000E0913904F0913A0482FD12C09081809106
:103AE0003C048F5F8F7320913D04821751F0E09169
:103AF0003C04F0E0ED5DFB4F958F80933C0401C0EA
:103B00008081FF91EF919F918F912F910F900FBE28
:103B10000F901F9018951F920F920FB60F921124BD
:103B20002F933F934F935F936F937F938F939F93C5
:103B3000AF93BF93EF93FF9383E294E00E944F1CF7
:103B4000FF91EF91BF91AF919F918F917F916F9175
:103B50005F914F913F912F910F900FBE0F901F904B
:103B6000189583E294E00E94141C21E0892B09F44B
:103B700020E0822F0895109226041092250488EEEA
:103B800093E0A0E0B0E08093270490932804A093F2
:103B90002904B0932A048EED93E09093240480933B
:103BA000230485EC90E09093300480932F0484EC00
:103BB00090E0909332048093310480EC90E09093F5
:103BC00034048093330481EC90E090933604809326
:103BD000350482EC90E0909338048093370486ECAF
:103BE00090E090933A048093390410923C04109230
:103BF0003D0410923E0410923F04089508950E94DF
:103C0000241B0E94FE1D0E94F606C1E4DCE10E9416
:103C1000AB182097E1F30E94411CF9CF0C942222AB
:103C20000C9422220C94BA220C94BA22CF92DF92E6
:103C3000EF92FF920F931F93CF93DF937C016A0162
:103C4000EB0100E010E00C151D0571F06991D70142
:103C5000ED91FC910190F081E02DC7010995892B30
:103C600019F00F5F1F4FEFCFC801DF91CF911F9168
:103C70000F91FF90EF90DF90CF900895611571053F
:103C800081F0DB010D900020E9F7AD0141505109B1
:103C9000461B570BDC01ED91FC910280F381E02D76
:103CA000099480E090E00895DC01ED91FC91DB0146
:103CB00014964D915C9115976D917C910280F381E2
:103CC000E02D09940C943E1EDC01ED91FC910190D5
:103CD000F081E02D09946AEE73E00C943E1E0F9380
:103CE0001F93CF93DF93EC010E943E1E8C01CE0107
:103CF0000E946B1E800F911FDF91CF911F910F913A
:103D000008958F929F92AF92BF92DF92EF92FF92AF
:103D10000F931F93CF93DF93CDB7DEB7A1970FB665
:103D2000F894DEBF0FBECDBF7C01F42FD52ECB01A2
:103D300019A2223008F42AE08E010F5D1F4F822E57
:103D4000912CA12CB12C6F2F7D2DA50194010E94E7
:103D5000D821F22FD32ECA01015011096A3014F470
:103D6000E0E301C0E7E3E60FD801EC93232B242B1B
:103D7000252B49F7B801C7010E943E1EA1960FB638
:103D8000F894DEBF0FBECDBFDF91CF911F910F9191
:103D9000FF90EF90DF90BF90AF909F908F9008952D
:103DA000CF92DF92EF92FF920F931F93CF93DF9307
:103DB000EC016A017B012115310579F4E881F98173
:103DC0000190F081E02D642FDF91CF911F910F9131
:103DD000FF90EF90DF90CF9009942A303105E9F4FD
:103DE00077FF1AC06DE20E94641E8C01442755279C
:103DF000BA014C195D096E097F092AE0CE010E94C3
:103E0000811E800F911FDF91CF911F910F91FF9025
:103E1000EF90DF90CF9008952AE0B701A601CE0180
:103E2000DF91CF911F910F91FF90EF90DF90CF9096
:103E30000C94811E9A01AB01662757FD6095762F81
:103E40000C94D01E0F931F93CF93DF93EC019A0134
:103E5000AB01662757FD6095762F0E94D01E8C011E
:103E6000CE010E946B1E800F911FDF91CF911F9199
:103E70000F9108952115310541F4DC01ED91FC917C
:103E80000190F081E02D642F09940C94811E0F9312
:103E90001F93CF93DF93EC019A01462F50E060E02F
:103EA00070E00E943A1F8C01CE010E946B1E800FB1
:103EB000911FDF91CF911F910F910895FC014483D1
:103EC0005583668377830895FC01808191810C94EA
:103ED000BA22CF93DF93EC0188819981009711F08A
:103EE0000E94BA22198218821D821C821B821A82A9
:103EF000DF91CF9108950F931F93CF93DF93EC0140
:103F00008B016F5F7F4F888199810E9449230097C1
:103F100031F0998388831B830A8381E001C080E0AC
:103F2000DF91CF911F910F910895CF93DF93EC0113
:103F300088819981892B29F08A819B81861797072F
:103F400060F4CE010E947B1F882341F08C819D810B
:103F5000892B19F4E881F981108281E0DF91CF91FA
:103F60000895EF92FF920F931F93CF93DF93EC018D
:103F70007B018A01BA010E94951F811104C0CE0104
:103F80000E94691F07C01D830C83B7018881998136
:103F90000E945724CE01DF91CF911F910F91FF9086
:103FA000EF900895FC011182108213821282158213
:103FB00014826115710559F0FB0101900020E9F7A9
:103FC000AF0141505109461B570B0C94B11F089586
:103FD0000F931F93CF93DF938C01EB01FC01808142
:103FE0009181009799F0428153812C813D81421744
:103FF000530750F0688179810E9457248C819D81FC
:10400000F8019583848313C00E94BA228881998124
:10401000F801918380838A819B81938382838C8141
:104020009D8195838483198218821B821A821D8246
:104030001C82DF91CF911F910F910895CF93DF9351
:10404000EC01FB018617970761F0608171816115B2
:10405000710529F0448155810E94B11F02C00E9460
:10406000691FCE01DF91CF910895FC01118210826A
:1040700013821282158214820C941E20CF93DF9338
:10408000EC018617970711F00E94E81FCE01DF911F
:10409000CF910895CF93DF93EC016115710561F025
:1040A000FB0101900020E9F7AF0141505109461B87
:1040B000570B0E94B11F02C00E94691FCE01DF9101
:1040C000CF9108950F931F93CF93DF93CDB7DEB7B2
:1040D00029970FB6F894DEBF0FBECDBF8C01862F97
:1040E000F80111821082138212821582148250E02C
:1040F000BE016F5F7F4F90E00E948924BE016F5F19
:104100007F4FC8010E944A2029960FB6F894DEBF5F
:104110000FBECDBFDF91CF911F910F9108950F93E7
:104120001F93CF93DF93CDB7DEB762970FB6F894A6
:10413000DEBF0FBECDBF8C01CB01F8011182108212
:10414000138212821582148250E0BE016F5F7F4F8E
:104150000E945E24BE016F5F7F4FC8010E944A200B
:1041600062960FB6F894DEBF0FBECDBFDF91CF9140
:104170001F910F910895EF92FF920F931F93CF938A
:10418000DF93EC017B010C811D816115710511F438
:1041900080E016C04115510591F0040F151FB801BC
:1041A0000E94951F8823A1F3288139818C819D81EC
:1041B000B701820F931F0E9457241D830C8381E057
:1041C000DF91CF911F910F91FF90EF900895CF93C2
:1041D000DF9300D0CDB7DEB769831A8241E050E0AB
:1041E000BE016F5F7F4F0E94BB200F900F90DF9149
:1041F000CF910895CF93DF93EC01FB01448155816A
:10420000608171810E94BB20811103C0CE010E9498
:10421000691FCE01DF91CF910895CF93DF93EC0119
:104220006115710569F0FB0101900020E9F7AF010C
:1042300041505109461B570B0E94BB20811103C0FE
:10424000CE010E94691FCE01DF91CF910895FC013C
:1042500024813581232B31F421E061157105A1F012
:10426000FB0108C0FC01808191816115710531F469
:1042700021E0FC018081882339F005C00E944E2492
:1042800021E0892B09F020E0822F0895FC01848130
:1042900095816817790720F480819181009729F42E
:1042A0001092C00480EC94E00895860F971F089543
:1042B000FC01248135816217730748F48081918164
:1042C000009729F0FC01E60FF71F8081089580E038
:1042D00008950C945821CF93DF93FC01848195813C
:1042E0004817590778F4C081D181772767FD709509
:1042F000CE01840F951F0E944324009719F08C1B58
:104300009D0B02C08FEF9FEFDF91CF910895BF9279
:10431000CF92DF92EF92FF920F931F93CF93DF9391
:104320006C017B01EA0189012417350720F48D2FE8
:10433000E901042F182F6CEE73E0C6010E94D21F12
:10434000D70114968D919C911597C817D907C8F479
:104350008017910708F48C01D701ED91FC9111971A
:10436000E00FF11FB08010826D917C916C0F7D1F6A
:10437000C6010E944A20D701ED91FC91E00FF11F88
:10438000B082C601DF91CF911F910F91FF90EF9006
:10439000DF90CF90BF900895FC01808191810097BC
:1043A00011F00C94132460E070E0CB01089508959F
:1043B000A1E21A2EAA1BBB1BFD010DC0AA1FBB1F29
:1043C000EE1FFF1FA217B307E407F50720F0A21B9B
:1043D000B30BE40BF50B661F771F881F991F1A9408
:1043E00069F760957095809590959B01AC01BD0132
:1043F000CF0108950E941322A59F900DB49F900DA8
:10440000A49F800D911D11240895B7FF0C94FA21EB
:104410000E94FA21821B930B0895EE0FFF1F059057
:10442000F491E02D0994A29FB001B39FC001A39F16
:10443000700D811D1124911DB29F700D811D1124DD
:10444000911D0895CF93DF938230910510F482E09F
:1044500090E0E091C304F091C40420E030E0A0E0DB
:10446000B0E0309739F14081518148175907B8F0D1
:104470004817590771F482819381109729F0139698
:104480009C938E9312972CC09093C4048093C30482
:1044900027C02115310531F04217530718F0A90143
:1044A000DB0101C0EF019A01BD01DF010280F38150
:1044B000E02DD7CF21153105F9F0281B390B243019
:1044C000310580F48A819B816115710521F0FB0122
:1044D0009383828304C09093C4048093C304FE0139
:1044E000329644C0FE01E20FF31F81939193225054
:1044F0003109398328833AC02091C1043091C20424
:10450000232B41F420910201309103013093C20426
:104510002093C10420910001309101012115310542
:1045200041F42DB73EB74091040150910501241B81
:10453000350BE091C104F091C204E217F307A0F437
:104540002E1B3F0B2817390778F0AC014E5F5F4FE9
:104550002417350748F04E0F5F1F5093C204409355
:10456000C1048193919302C0E0E0F0E0CF01DF91BC
:10457000CF910895CF93DF93009709F487C0FC0192
:10458000329713821282C091C304D091C404209741
:1045900081F420813181280F391F8091C1049091CD
:1045A000C2048217930779F5F093C204E093C10423
:1045B0006DC0DE0120E030E0AE17BF0750F4129668
:1045C0004D915C9113979D014115510509F1DA0157
:1045D000F3CFB383A28340815181840F951F8A1743
:1045E0009B0771F48D919C911197840F951F0296F2
:1045F0009183808312968D919C91139793838283EC
:104600002115310529F4F093C404E093C3043EC09E
:10461000D9011396FC93EE9312974D915D91A40FDF
:10462000B51FEA17FB0779F480819181840F951FEC
:104630000296D90111969C938E9382819381139651
:104640009C938E931297E0E0F0E08A819B81009723
:1046500019F0FE01EC01F9CFCE01029628813981D3
:10466000820F931F2091C1043091C204281739078B
:1046700069F4309729F41092C4041092C30402C064
:1046800013821282D093C204C093C104DF91CF91F0
:104690000895A0E0B0E0EFE4F3E20C94D824EC013C
:1046A000CB01209719F40E942222B8C0FE01E60F28
:1046B000F71F9E0122503109E217F30708F4ACC03E
:1046C000D9010D911C91119706171707B8F0053005
:1046D000110508F49FC0A801445051094617570717
:1046E00008F498C002501109061B170B019311938F
:1046F0006D937C93CF010E94BA228CC05B01A01AFB
:10470000B10A4E01800E911EA091C304B091C40461
:10471000612C712C60E070E0109709F449C0A81575
:10472000B905C9F5ED90FC901197670142E0C40E00
:10473000D11CCA14DB0478F147018A189B08640174
:1047400042E0C40ED11C1296BC9012971396AC9105
:10475000B5E0CB16D10440F0B282A383918280826F
:10476000D9018D939C9309C00E5F1F4F0E0D1F1D25
:10477000F90111830083EB2DFA2F6115710531F0DA
:10478000DB011396FC93EE93129744C0F093C4049C
:10479000E093C3043FC06D917C9111976616770634
:1047A00008F43B01BD0112960D90BC91A02DB4CF31
:1047B0006091C1047091C20468157905E9F4681626
:1047C0007906D0F440910001509101014115510545
:1047D00041F44DB75EB76091040170910501461B2D
:1047E000570BE417F507C0F4F093C204E093C1043B
:1047F000F901918380830EC00E9422227C010097E0
:1048000059F0A801BE010E943A24CE010E94BA22AA
:10481000C70104C0CE0102C080E090E0CDB7DEB792
:10482000EEE00C94F4241F93FC0199278827BC0127
:10483000E89411911032E9F3193010F01E30C8F3EA
:104840001B3251F01D3249F4689406C00E94742452
:10485000610F711D811D911D119110531A30B0F31C
:104860003EF490958095709561957F4F8F4F9F4F47
:104870001F910895FB01DC0102C001900D9241508F
:104880005040D8F70895FC018191861721F08823C4
:10489000D9F7992708953197CF010895FB01DC01DD
:1048A0008D91019080190110D9F3990B0895FB01A6
:1048B000DC0101900D920020E1F708954532510589
:1048C00020F4423010F00C946924FB011082CB01DB
:1048D0000895BB274A3031F4992322F4BDE2909524
:1048E00081959F4F0C949524592F482F372F262FB1
:1048F000660F771F881F991F660F771F881F991FE4
:10490000620F731F841F951F660F771F881F991FE3
:1049100008954532510520F4423010F00C9494244F
:10492000FB011082CB010895BB27FB015527AA2765
:10493000880F991FAA1FA41710F0A41B839550512C
:10494000B9F7A05DAA3308F0A95DA193009779F7A4
:10495000B111B1931192CB010C94C424F999FECFFB
:1049600092BD81BDF89A992780B50895262FF999AF
:10497000FECF1FBA92BD81BD20BD0FB6F894FA9A42
:10498000F99A0FBE01960895DC01FC01672F719121
:104990007723E1F7329704C07C916D937083629125
:1049A000AE17BF07C8F308952F923F924F925F92C0
:1049B0006F927F928F929F92AF92BF92CF92DF922F
:1049C000EF92FF920F931F93CF93DF93CDB7DEB794
:1049D000CA1BDB0B0FB6F894DEBF0FBECDBF099428
:1049E0002A88398848885F846E847D848C849B847F
:1049F000AA84B984C884DF80EE80FD800C811B818D
:104A0000AA81B981CE0FD11D0FB6F894DEBF0FBEBB
:104A1000CDBFED01089510E0CCEBD0E004C0FE0165
:104A20000E940F222296CE3BD107C9F7F894FFCF00
:104A30000000C5048000080020000000FF000E0AEE
:104A4000050200FC19FC190150756D704F6E005085
:104A5000756D704F464600536C65657000736563F5
:104A6000203D200074696D5F6379636C65203D2093
:104A70000020202053656E736F722E61736B28299E
:104A80002056616C75653A20002020444556204D23
:104A90004F44450063656C6C2E6964203A200063C6
:104AA000656C6C2E6E616D65203A200063656C6CE0
:104AB0002E76203A200063656C6C2E68203A200028
:104AC00063656C6C2E77203A2000536574757020F6
:104AD000626567696E00454550524F4D20626567BB
:104AE000696E00454550524F4D20656E6400536518
:104AF00074757020656E64002D2D2D2D2D2D2D2D9E
:104B00002D2D2D2D2D00666C6F776572733A200068
:104B100073656E736F72733A2000646576696365BE
:104B2000733A200056616C76654F6E0056616C7664
:104B3000654F46460053454E534F5253204F4E004B
:104B40002D2D20464C4F5745522023200020202059
:104B5000506C616E742E61736B28292041736B69F0
:104B60006E6720687967726F6D657465722E2E2E80
:104B7000002D2D205753203A0053454E534F52538A
:104B8000204F46460054686520666C6F776572203A
:104B900000206E65656473207761746572696E6765
:104BA0000020646F6573206E6F74206E65656420ED
:104BB0007761746572696E670064656661756C74AF
:104BC0000064656661756C74206D6F646500666C69
:104BD0006F776572732073697A65203D2000736377
:104BE000682073697A65203D200077617465725F83
:104BF000706C616E740077617465725F706C616E69
:104C000074206D6F64650044656C65746564204F45
:104C10004C44207363686564756C650077617465E6
:104C2000725F616C6C5F69665F6E65656400776179
:104C30007465725F616C6C5F666F7263650077614B
:104C40007465725F616C6C5F666F726365206D6F17
:104C50006465005363686564756C65206275696C92
:104C6000740057616B655570003C2D2D20002E6639
:104C7000002E663B00436C6561723A20004E6577FA
:104C800020666C6F77657220617272697665640068
:104C900049643A20004E616D653A200056616C7699
:104CA000653A2000487967726F6D657465723A20C5
:104CB00000437269745765743A20002F204C6F6F5F
:104CC000700000000000950036100A017D02991066
:104CD000B310F90FBE02F00F990000000000910020
:104CE000911146010E0305121F123A11FD01211107
:104CF000B100000000008D005B131A0F680FD21383
:104D0000E813CF123704A312D80000000000921C51
:104D1000161E141C2D1C1F1C701C0D0A006E616ECB
:0A4D200000696E66006F7666000001
:00000001FF
