:100000000C945F000C946D180C9494180C94870059
:100010000C9487000C9487000C9487000C94870044
:100020000C9487000C9487000C9487000C94870034
:100030000C9487000C9480170C9487000C94870014
:100040000C94BB180C9487000C94971B0C94C91B40
:100050000C9487000C9487000C9487000C94870004
:100060000C9487000C948700000000080002010037
:100070000003040700000000000000000102040863
:100080001020408001020408102001020408102002
:10009000040404040404040402020202020203032E
:1000A0000303030300000000250028002B000000CC
:1000B0000000240027002A002616F91B3D161124F3
:1000C0001FBECFEFD8E0DEBFCDBF13E0A0E0B1E0B0
:1000D000ECE8F6E402C005900D92A83AB107D9F712
:1000E00024E0A8EAB3E001C01D92A337B207E1F70C
:1000F00010E0CCEBD0E004C02297FE010E943D202E
:10010000C83BD107C9F70E943D1C0C9439230C94BD
:10011000000081E08093AF030895CF93DF93EC015B
:10012000E881F9810190F081E02DCE010995181642
:10013000190644F4E881F9810684F785E02DCE01A3
:100140000995EECFDF91CF9108950F931F93CF9331
:10015000DF9300D01F92CDB7DEB78C01D801ED91AF
:10016000FC910190F081E02DC8010995181619063F
:100170005CF4D801ED91FC910684F785E02DB8017F
:10018000CE0101960995EACF0F900F900F90DF9165
:10019000CF911F910F910895FC0182819381089561
:1001A000FC01828193810895FC01828193810895ED
:1001B0000F931F93CF93DF93CDB7DEB72D970FB675
:1001C000F894DEBF0FBECDBF8C01D801ED91FC913C
:1001D0000190F081E02DC8010995181619067CF4EC
:1001E000D801ED91FC910684F785E02DB801CE0190
:1001F00001960995CE0102960E94921DE6CF2D969A
:100200000FB6F894DEBF0FBECDBFDF91CF911F9127
:100210000F9108950F931F93CF93DF931F92CDB744
:10022000DEB78C0183E090E069830E944C1CDC0106
:1002300012961C921E92119769816C93F801248189
:100240003581232B59F00680F781E02D928381833D
:10025000D80117969C938E93169705C0F801958345
:10026000848397838683D80112968D919C911397EE
:10027000019613969C938E9312971C961C9281E084
:100280000F90DF91CF911F910F9108950F931F93BE
:10029000CF93DF93EC018B0185E090E00E944C1C32
:1002A000FC01148213828FEF80838FEF9FEF928384
:1002B0008183D8012D913D914C91208331834283DC
:1002C0008C819D81892B39F0AE81BF811496FC937E
:1002D000EE93139702C0FD83EC83FF83EE838A8144
:1002E0009B8101969B838A831C8681E0DF91CF915D
:1002F0001F910F91089567E171E081ED93E00E94F5
:10030000A01C81ED93E00E94A91C60E080910F0188
:100310000E941C1A81E08093B10308956EE171E0A0
:1003200081ED93E00E94A01C81ED93E00E94A91C46
:1003300061E080910F010E941C1A81E08093B1035B
:100340000895CF92DF92EF92FF92CF93DF936B01EC
:100350007C011092B10366E271E081ED93E00E94AE
:10036000A01C81ED93E00E94A91C6CE271E081ED7C
:1003700093E00E94A01C2AE030E0B701A60181EDC5
:1003800093E00E940E1D81ED93E00E94A91CC09194
:100390000601D091070163E371E081ED93E00E94D3
:1003A000A01C4AE050E0BE0181ED93E00E94581D80
:1003B00081ED93E00E94A91CC092AB03D092AC03E4
:1003C000E092AD03F092AE031092B003DF91CF91B3
:1003D000FF90EF90DF90CF90089560E471E081EDA1
:1003E00093E00E94A01C81ED93E00E94A91C8091E3
:1003F000A9039091AA03009711F00E94521C109239
:10040000AA031092A90381E08093B1030895BF92DB
:10041000CF92DF92EF92FF920F931F93CF93DF93D0
:100420008C01EB018A819B811816190644F08FEF2D
:10043000F80180838FEF9FEF9283818320C0019723
:10044000B9F0EC81FD81C380D480B080E180F2807E
:10045000CF010E94501CDD82CC828A819B81019752
:100460009B838A831C86F801B082F282E18207C0F6
:10047000E881F9810484F585E02DC8010995C8015A
:10048000DF91CF911F910F91FF90EF90DF90CF9070
:10049000BF9008958091AB039091AC03A091AD0300
:1004A000B091AE034091060150910701662757FDB8
:1004B0006095762F841B950BA60BB70B8093AB032F
:1004C0009093AC03A093AD03B093AE038091AB03C4
:1004D0009091AC03A091AD03B091AE03181619062C
:1004E0001A061B069CF081E08093B00380910801FE
:1004F00090910901A0910A01B0910B018093AB0387
:100500009093AC03A093AD03B093AE0308950F9303
:100510001F93CF93DF931F92CDB7DEB78C01DC0121
:1005200012968D919C911397892B61F4ED91FC911A
:100530000480F581E02DC8010F90DF91CF911F91CC
:100540000F91099483E090E069830E944C1CFC01A8
:100550001082D80114968D919C9115979283818376
:10056000698160831596FC93EE93149712968D9192
:100570009C911397019613969C938E9312971C96B9
:100580001C9281E00F90DF91CF911F910F91089500
:10059000FF920F931F93CF93DF93EC018A819B818E
:1005A000181619060CF5019799F0EC81FD8101816F
:1005B0001281F080CF010E94501C1D830C832A8180
:1005C0003B81215031093B832A831C868F2D0DC02E
:1005D000E881F9810484F585E02DCE01DF91CF918A
:1005E0001F910F91FF90099480E0DF91CF911F91AF
:1005F0000F91FF9008958091BC039091BD03DC01A1
:10060000ED91FC910190F081E02D099525E0AC0180
:10061000249FC001259F900D11242091BA03309191
:10062000BB03280F391F3093BB032093BA030895EF
:10063000EF92FF920F931F93CF93DF9300D01F92FF
:10064000CDB7DEB78C017B01DC0112968D919C91B8
:100650001397892BA1F4ED91FC910480F581E02D95
:10066000DB018C91898311968D919C9112979B83CC
:100670008A83BE016F5F7F4FC80109952AC085E05C
:1006800090E00E944C1CFC018FEF80838FEF9FEF66
:1006900092838183D80114968D919C9115979483B0
:1006A0008383D7012D913D914C91208331834283E7
:1006B000D8011596FC93EE93149712968D919C9108
:1006C0001397019613969C938E9312971C961C92E7
:1006D00081E00F900F900F90DF91CF911F910F91BC
:1006E000FF90EF900895EF92FF920F931F93CF9397
:1006F000DF931F92CDB7DEB77C01FC010081118131
:10070000C80169830E94DC226981681719F0C80159
:100710000E94E422C7010F90DF91CF911F910F91AA
:10072000FF90EF900895CF93DF93EC018091B90390
:10073000811106C088810E949D199A83898306C011
:1007400066E671E081ED93E00E94AD1C6EE471E01D
:1007500081ED93E00E94A01C69817A814AE050E01B
:1007600081ED93E00E94601D89819A81DF91CF9194
:100770000895CF92DF92EF92FF920F931F93CF9342
:10078000DF93EC01F62E6A0189016AE973E00196B4
:100790000E94001E8FEF88872FEF3FEF3A8729874F
:1007A000FF82F601C080D180E280C886D986EA86C1
:1007B0001C870B8761E08F2DDF91CF911F910F91E7
:1007C000FF90EF90DF90CF900C94E319AF92BF921F
:1007D000CF92DF92EF92FF920F931F93CF93DF930D
:1007E00000D000D000D0CDB7DEB78C017B015C011A
:1007F0008FEFA81AB80A6AE973E0C5010E94001ECB
:100800008FEFF8018087CC24CA94DC2CD286C18675
:10081000F7018191BF01F8018083CE0101960E940A
:10082000631EBE016F5F7F4FC5010E946C1ECE012B
:1008300001960E94921DF7018781F8018783F701D5
:100840009085F8019087D286C186F701238534858B
:10085000F8013487238761E00E94E31926960FB6DA
:10086000F894DEBF0FBECDBFDF91CF911F910F91E6
:10087000FF90EF90DF90CF90BF90AF900895AF9230
:10088000BF92CF92DF92EF92FF920F931F93CF937D
:10089000DF93CDB7DEB72D970FB6F894DEBF0FBE4E
:1008A000CDBF7C018B01DB0112968D919C9113973A
:1008B0001816190684F08FEF89838FEF9FEF9B83C3
:1008C0008A832FEF3FEFAE014F5F5F4F6FEFC7019E
:1008D0000E94B9033EC00197A1F1FB0164817581BB
:1008E000DB011D96AD90BC901E97CE0101960E9433
:1008F000E603F801C480D580C114D10439F0C601E3
:1009000001960E94921DC6010E94501CD8011596A6
:10091000BC92AE92149712968D919C911397019769
:1009200013969C938E9312971C961C92BE016F5F38
:100930007F4FC7010E94E603CE0102960E94921DDE
:1009400008C0DB01ED91FC910484F585E02DC70121
:100950000995C7012D960FB6F894DEBF0FBECDBF27
:10096000DF91CF911F910F91FF90EF90DF90CF908B
:10097000BF90AF9008956F927F928F929F92AF92A7
:10098000BF92CF92DF92EF92FF920F931F93CF937C
:10099000DF93CDB7DEB76C970FB6F894DEBF0FBE0E
:1009A000CDBF3C018D869E86AF86B88AC98ADA8A19
:1009B000EB8AFC8A0D8B1E8B2F8B388F498F5A8FB9
:1009C0006B8F7C8F8FEF89838FEF9FEF9B838A8361
:1009D0002FEF3FEFAE014F5F5F4F6FEFC3010E94FC
:1009E000B9038D85F30180836AE973E0CE01079630
:1009F0000E94001E7E01FEE0EF0EF11C00E010E000
:100A0000B801CE0107960E94741FF70121917F0162
:100A1000FC0120830F5F1F4F0B30110589F7BE01CA
:100A2000695F7F4FCE0101960E94631EBE016F5F1A
:100A30007F4FC30101960E944C1ECE0101960E9479
:100A4000921D898DF30187839A8D90872FEF3FEF59
:100A5000328721872B8D3C8D3487238761E00E946C
:100A6000E319CE0107960E94921DC3016C960FB642
:100A7000F894DEBF0FBECDBFDF91CF911F910F91D4
:100A8000FF90EF90DF90CF90BF90AF909F908F90AE
:100A90007F906F9008950F931F93CF93DF93EC0196
:100AA0008B01FB012191BF01FC012193CF010E9429
:100AB0004C1EF80187818F832085318542852887E8
:100AC00039874A87838594859C878B87CE01DF9100
:100AD000CF911F910F9108950F931F93CF93DF93A1
:100AE00000D0CDB7DEB700E010E01A8309836FEFC6
:100AF000CE0101960E9473030F5F1F4F011584E022
:100B0000180799F70F900F90DF91CF911F910F91D8
:100B100008958F929F92AF92BF92CF92DF92EF9201
:100B2000FF920F931F93CF93DF93CDB7DEB76697F6
:100B30000FB6F894DEBF0FBECDBF8C0180E090E011
:100B40000E94DC228F3F11F481E001C08F5F80930F
:100B50000C0160910C0180E090E00E94E422EE2400
:100B6000E394F12CC7010E94DC228F3F09F047C0BB
:100B7000D8018D91BD0189836E01B1E1CB0ED11CED
:100B8000C6010E94631E4E01E2E08E0E911CA12C54
:100B9000B12CB501C6010E94741FDC018C91F401D7
:100BA00081934F01FFEFAF1ABF0A8BE0A816B10483
:100BB00081F7D80117968C9117978D8718968C918D
:100BC00018978E871B968D919C911C97988B8F8779
:100BD000C6010E94921DFE0131965F01EE1AFF0AC6
:100BE000C7018A0D9B1DD5016D915D019A8B898B83
:100BF000C6010E947303AC14BD0491F709C0B0E1B3
:100C0000EB0EF11CE1E0EE16E4E0FE0609F0AACFDF
:100C100061E0D80117968C910E94E319E091BC0322
:100C2000F091BD030190F081E02DE480F580B801E2
:100C3000CE0101960E94E603BE016F5F7F4F809157
:100C4000BC039091BD03F7010995CE0102960E9465
:100C5000921D8091C0039091C103DC01ED91FC9144
:100C60000480F581E02DD80117966C91099580914B
:100C7000BE039091BF03DC01ED91FC910480F581EE
:100C8000E02DD80118962C911897298319962D914B
:100C90003C911A973B832A83BE016F5F7F4F099572
:100CA00066960FB6F894DEBF0FBECDBFDF91CF9131
:100CB0001F910F91FF90EF90DF90CF90BF90AF907A
:100CC0009F908F9008951F93CF93DF93182FC0E0CC
:100CD000D0E08091C0039091C103DC01ED91FC91C3
:100CE0000190F081E02D0995C817D90784F480910F
:100CF000C0039091C103DC01ED91FC910088F18962
:100D0000E02DBE010995811729F02196E2CF8FEFE2
:100D10009FEF01C0CE01DF91CF911F9108951F93E6
:100D2000CF93DF93162F61E771E081ED93E00E948E
:100D3000A01C81ED93E00E94A91CE091C003F091FA
:100D4000C1030190F081E02DC089D189812F0E94DB
:100D50006306BC018091C0039091C103FE01099517
:100D600060E00E941C1A81E08093B103DF91CF9173
:100D70001F9108951F93CF93DF93162F69E771E0BA
:100D800081ED93E00E94A01C81ED93E00E94A91CDC
:100D9000E091C003F091C1030190F081E02DC08982
:100DA000D189812F0E946306BC018091C00390917C
:100DB000C103FE01099561E00E941C1A81E0809345
:100DC000B103DF91CF911F910895EF92FF920F939E
:100DD0001F93CF93DF9300D01F92CDB7DEB700E013
:100DE00010E0E82EF12C8091BE039091BF03DC014E
:100DF000ED91FC910190F081E02D099508171907FC
:100E0000C4F46091BE037091BF03DB01ED91FC91CE
:100E10000088F189E02DA801CE010196099589810C
:100E2000992787FD90958E159F0531F00F5F1F4F15
:100E3000DACF8FEF9FEF01C0C8010F900F900F9096
:100E4000DF91CF911F910F91FF90EF900895CF9276
:100E5000DF92EF92FF920F931F93CF93DF936B017B
:100E60002091A9033091AA03DB010D911C9146E06A
:100E7000409FF001419FF00D1124A9014E0F5F1F0B
:100E80006FE876E0EA0179836883AA2797FDA09549
:100E9000BA2F8A839B83AC83BD83AF014A5F5F4FC8
:100EA000420F531F6BE771E0EA01798368831A826E
:100EB0001B821C821D827F01DCE0ED0EF11CE20E24
:100EC000F31E41EA51E0E7015983488348E050E0CE
:100ED00060E070E04A835B836C837D83AF014E5E8C
:100EE0005F4F420F531F6EE871E0EA017983688318
:100EF0001A821B821C821D827896E20FF31F2AEB56
:100F000036E03183208382839383A483B5830C5F8F
:100F10001F4FF60111830083DF91CF911F910F9135
:100F2000FF90EF90DF90CF900895CF93DF93C0E0D4
:100F3000D0E08091C0039091C103DC01ED91FC9160
:100F40000190F081E02D0995C817D9078CF48091A4
:100F5000C0039091C103DC01ED91FC910088F189FF
:100F6000E02DBE01099561E00E941C1A2196E1CF97
:100F7000DF91CF910895CF93DF9300D01F92CDB72B
:100F8000DEB710920C010E9495078091C0039091EA
:100F9000C103DC01ED91FC910288F389E02D0995F4
:100FA0008091BE039091BF03DC01ED91FC9102881A
:100FB000F389E02D09958091BC039091BD03DC017C
:100FC000ED91FC910288F389E02D09958091C00391
:100FD0009091C103DC01ED91FC910480F581E02D3D
:100FE00060910F0109958091C0039091C103DC01CC
:100FF000ED91FC910480F581E02D60910E01099541
:101000008091BE039091BF03DC01ED91FC910480BF
:10101000F581E02D20910D0129832FEF3FEF3B83D8
:101020002A83BE016F5F7F4F09950F900F900F903D
:10103000DF91CF9108950E94950781E08093B103DD
:1010400008952F923F924F925F926F927F928F926C
:101050009F92AF92BF92CF92DF92EF92FF920F9347
:101060001F93CF93DF93CDB7DEB7E0970FB6F89419
:10107000DEBF0FBECDBF80E090E00E94DC228093F7
:101080000C018091BC039091BD03DC01ED91FC91BA
:101090000288F389E02D099580910C018F3F11F4AE
:1010A00010920C0180910C01E82FF0E0F8ABEFA753
:1010B0009E012F5F3F4F3CA72BA740E1642E712C70
:1010C000621A730A44244394512CCE0141969EA780
:1010D0008DA73DA42EA48FA598A9892BD9F40E9491
:1010E0009507E0960FB6F894DEBF0FBECDBFDF9137
:1010F000CF911F910F91FF90EF90DF90CF90BF9015
:10110000AF909F908F907F906F905F904F903F90A7
:101110002F900895C2010E94DC228F3F09F487C0FE
:101120008E010F5F1F4F73019FEFE91AF90AC70184
:10113000800F911F0E94DC22D8018D938D01EDA5B7
:10114000FEA5AE17BF0799F7FFEFF98B2FEF3FEF23
:101150003B8B2A8B432D522D6FEFCE014E960E9472
:10116000B90389809A80AB80BC80CD80DE80EF801F
:10117000F88409851A852B853C854D855E856F85AC
:101180007889832D922D0E94BB04632D722DCE0190
:101190004E960E944B05CE0142960E94921D61E040
:1011A0008DA10E94E319E091BC03F091BD03019071
:1011B000F081E02D04811581BE01625E7F4F832D99
:1011C000922D0E94E603632D722D8091BC039091B5
:1011D000BD03F8010995CE0142960E94921D8091AF
:1011E000C0039091C103DC01ED91FC910480F58175
:1011F000E02D6DA109958091BE039091BF03DC01A4
:10120000ED91FC910480F581E02D2EA1298B2FA179
:1012100038A53B8B2A8B632D722D0995EFA5F8A974
:101220003197F8ABEFA7CE014F960E94921DF0E1E7
:101230004F0E511C739431E0431634E0530609F409
:101240004ECF49CF26E040E052EC61E070E081ED06
:1012500093E00E94351B40E550E060E070E081EDD6
:1012600093E00E948C1D61E080910F010E94E319C0
:1012700061E080910E010E94E3198DE090E00E94F0
:101280004C1CFC0184E493E09183808315821482DA
:101290001782168213821282118610861386128696
:1012A0001486F093C103E093C0038DE090E00E94A8
:1012B0004C1CFC018CE593E09183808315821482A1
:1012C0001782168213821282118610861386128666
:1012D0001486F093BF03E093BE038DE090E00E947C
:1012E0004C1CFC0184E793E0918380831582148277
:1012F0001782168213821282118610861386128636
:101300001486F093BD03E093BC030E94BB070E94C8
:10131000210860E0809110010E94E31983B7817F6A
:1013200083BF8091080190910901A0910A01B091B9
:101330000B018093AB039093AC03A093AD03B093E8
:10134000AE03A0910601B091070120E432E44FE022
:1013500050E00E943320AB01BC0182EC93E00E947C
:101360000F182FEF3FEFA9016AE472E082EC93E0DF
:101370000E941F181092B9031092AA031092A90399
:1013800081E08093B1031092A80362E871E081EDDF
:1013900093E00C94AD1C0F931F93CF93DF93CDB7C5
:1013A000DEB72D970FB6F894DEBF0FBECDBF80918C
:1013B000BC039091BD03DC01ED91FC910190F081A3
:1013C000E02D0995181619060CF09DC060E080917B
:1013D0000E010E941C1A6BE971E081ED93E00E94FE
:1013E000AD1C6AE973E081ED93E00E94AD1C6AE0F8
:1013F00070E080E090E00E94281900E010E0809109
:10140000BC039091BD03DC01ED91FC910190F08152
:10141000E02D099508171907C4F566EA71E081ED1A
:1014200093E00E94A01C4AE050E0B80181ED93E0F7
:101430000E94581D63EB71E081ED93E00E94A01CB7
:101440006091BC037091BD03DB01ED91FC910088BC
:10145000F189E02DA801CE010196099567EB71E0B5
:1014600081ED93E00E94AD1CCE0109960E9493038A
:10147000CE0102960E94921D6AE973E081ED93E02D
:101480000E94AD1C0F5F1F4FBACF6BED71E081ED75
:1014900093E00E94AD1CE091BE03F091BF03019068
:1014A000F081E02D0089118980910D010E94E506EF
:1014B0006091BE037091BF03AC01CE010196F801AB
:1014C0000995CE0101960E9493034AE050E0BC01C9
:1014D00081ED93E00E94601D6AE973E081ED93E085
:1014E0000E94AD1C6AE070E080E090E00E94281944
:1014F00061E080910E010E941C1A63EE71E081EDA3
:1015000093E00E94AD1C2D960FB6F894DEBF0FBE7F
:10151000CDBFDF91CF911F910F910895CF92DF92B0
:10152000EF92FF920F931F93CF93DF93CDB7DEB768
:101530006A970FB6F894DEBF0FBECDBF83E090E090
:101540009093BB038093BA030E94CB0900E010E0A4
:101550008091BC039091BD03DC01ED91FC91019061
:10156000F081E02D0995081719070CF064C060910F
:10157000BC037091BD03DB01ED91FC910088F18902
:10158000E02DA801CE010E960995EF88F88C6091A8
:10159000BC037091BD03DB01ED91FC910088F189E2
:1015A000E02DA801CE0101960995CC84DD84CE0101
:1015B00002960E94921DCE010F960E94921DCE149B
:1015C000DF04CCF48091BA039091BB03059690930D
:1015D000BB038093BA036FEE71E081ED93E00E944C
:1015E000A01C4AE050E0B80181ED93E00E94581D34
:1015F0006BEF71E00FC06FEE71E081ED93E00E9440
:10160000A01C4AE050E0B80181ED93E00E94581D13
:101610006BE072E081ED93E00E94A01C81ED93E00D
:101620000E94A91C64E170E080E090E00E9428190B
:101630000F5F1F4F8DCF6A960FB6F894DEBF0FBEB7
:10164000CDBFDF91CF911F910F91FF90EF90DF9071
:10165000CF9008958F929F92AF92BF92CF92DF92D8
:10166000EF92FF920F931F93CF93DF93CDB7DEB727
:101670006C970FB6F894DEBF0FBECDBF7C016B0137
:101680001092A80363E272E00E94551F882309F4B8
:10169000DFC06BE272E081ED93E00E94A01C81ED5F
:1016A00093E00E94A91C0E948E0A8091BC03909135
:1016B000BD03DC01ED91FC910190F081E02D0995D5
:1016C0008C0168E372E081ED93E00E94A01C4AE087
:1016D00050E0B80181ED93E00E94581D81ED93E048
:1016E0000E94A91C0091BA031091BB0368E472E048
:1016F00081ED93E00E94A01C4AE050E0B80181ED2A
:1017000093E00E94581D81ED93E00E94A91C209156
:10171000BA033091BB032134B5E13B0738F446E00E
:10172000429FC001439F900D112402C08FEF9FEF95
:101730000E944E1C9093AA038093A9031C8E1B8EBB
:1017400000E010E08091BC039091BD03DC01ED91BD
:10175000FC910190F081E02D099508171907CCF54F
:101760006091BC037091BD03DB01ED91FC91008899
:10177000F189E02DA801CE010E960995AF88B88CAD
:101780006091BC037091BD03DB01ED91FC91008879
:10179000F189E02DA801CE01019609958C849D84E4
:1017A000CE0102960E94921DCE010F960E94921DBC
:1017B0008A149B045CF4BE01655E7F4FC8010E94E1
:1017C00027078B8D9C8D01969C8F8B8F0F5F1F4FF2
:1017D000B9CF8091A9039091AA032091BA033091C7
:1017E000BB0346E0429FF001439FF00D1124DF014F
:1017F0005297A80FB91F2BE138E011963C932E9316
:1018000012961D921D921D921C921597DF011C9736
:10181000A80FB91F21EA31E011963C932E93409115
:1018200008015091090160910A0170910B01129613
:101830004D935D936D937C9315973697E80FF91F41
:101840008DEE91E09183808312821382148215823F
:1018500064E572E0C7010E94551F882309F44DC05A
:1018600060E672E081ED93E00E94A01C81ED93E0C0
:101870000E94A91C0E94950760E070E0CB010E94C5
:10188000ED0161E772E081ED93E00E94A01C81ED23
:1018900093E00E94A91C86E090E09093BB038093A4
:1018A000BA031A82198284E290E00E944E1C90933F
:1018B000AA038093A903BE016F5F7F4FC6010E94F8
:1018C00027072091BA033091BB0346E0429FC00135
:1018D000439F900D11240697E091A903F091AA036C
:1018E000E80FF91F8DEE91E09183808312821382BD
:1018F0001482158281E08093B10366E872E0C7012B
:101900000E94551F882309F49BC081E090E09093CA
:10191000BB038093BA030E94FB020091BA031091AB
:10192000BB0368E472E081ED93E00E94A01C4AE0F2
:1019300050E0B80181ED93E00E94581D81ED93E0E5
:101940000E94A91C2091BA033091BB032134B5E158
:101950003B0738F446E0429FC001439F900D11249D
:1019600002C08FEF9FEF0E944E1C9093AA038093BA
:10197000A9031C8E1B8E00E010E08091BC039091A7
:10198000BD03DC01ED91FC910190F081E02D099502
:1019900008171907CCF56091BC037091BD03DB01FA
:1019A000ED91FC910088F189E02DA801CE010E9601
:1019B0000995CF88D88C6091BC037091BD03DB0181
:1019C000ED91FC910088F189E02DA801CE010196EE
:1019D0000995AC84BD84CE0102960E94921DCE0171
:1019E0000F960E94921DAC14BD045CF4BE01655EAE
:1019F0007F4FC8010E9427078B8D9C8D01969C8F7D
:101A00008B8F0F5F1F4FB9CF2091BA033091BB036B
:101A100046E0429FC001439F900D11240697E0913C
:101A2000A903F091AA03E80FF91F8DEE91E09183CD
:101A30008083128213821482158281E08093B10325
:101A400068E972E0C7010E94551F882309F476C037
:101A500068EA72E081ED93E00E94A01C81ED93E0C2
:101A60000E94A91C0E94950760E070E0CB010E94D3
:101A7000ED0161E772E081ED93E00E94A01C81ED31
:101A800093E00E94A91C81E090E09093BB038093B7
:101A9000BA030E94FB021A8219822091BA03309184
:101AA000BB032134B5E13B0738F446E0429FC00157
:101AB000439F900D112402C08FEF9FEF0E944E1C98
:101AC0009093AA038093A90300E010E08091BC03E7
:101AD0009091BD03DC01ED91FC910190F081E02D2E
:101AE00009950817190774F4BE016F5F7F4FC8018D
:101AF0000E94270789819A8101969A8389830F5FC3
:101B00001F4FE4CF2091BA033091BB0346E0429FC0
:101B1000C001439F900D11240697E091A903F09115
:101B2000AA03E80FF91F8DEE91E091838083128262
:101B300013821482158281E08093B1036DEB72E011
:101B400081ED93E00E94A01C81ED93E00E94A91C0E
:101B500064E170E080E090E00E9428196C960FB676
:101B6000F894DEBF0FBECDBFDF91CF911F910F91D3
:101B7000FF90EF90DF90CF90BF90AF909F908F90AD
:101B80000895AF92BF92CF92DF92EF92FF920F93A0
:101B90001F93CF93DF93CDB7DEB7CD56D1090FB6E4
:101BA000F894DEBF0FBECDBF8C0160E070E00E94F4
:101BB000971F863609F484C164F4833609F44BC058
:101BC000843609F07BC2B801CE0101960E94631EE3
:101BD00067C0853731F0873739F0823709F06EC238
:101BE00042C000E010E05FC061E070E0C8010E9408
:101BF000971F8B3329F0863661F468E972E002C0E2
:101C000066E872E0CE0101960E94001E6FEF7FEF42
:101C10001DC0D80114962D913C91159741E050E0DC
:101C2000B801CE0101960E94B51FCE0101960E9417
:101C3000FA1F162FCE0101960E94921D64E572E0F4
:101C4000CE0101960E94001E612F70E0CE01019628
:101C50000E942A0B25C00E94CB0961E070E0C801F8
:101C60000E94971F2BC261E070E0C8010E94971F7D
:101C70008B3309F023C20E94BB070E946C0560E011
:101C800070E0CB010E94ED01B801CE0101960E94E7
:101C9000631EBE016F5F7F4F81ED93E00E94921C37
:101CA000CE01019609C28091BC039091BD03DC0175
:101CB000ED91FC910190F081E02D0995081719072D
:101CC0000CF0F7C06091BC037091BD03DB01ED9196
:101CD000FC910088F189E02DA801CE0101960995BB
:101CE0006C857D854AE0CE018E5B9F4F0E94BD1EB4
:101CF0006091BC037091BD03DB01ED91FC91008804
:101D0000F189E02DA801CE010E9609956E897727FD
:101D100067FD70954AE0CE01885B9F4F0E94BD1E13
:101D20006091BC037091BD03DB01ED91FC910088D3
:101D3000F189E02DA801CE014B9609954AE06AA1F0
:101D4000CE01825B9F4F0E94901E6091BC037091F8
:101D5000BD03DB01ED91FC910088F189E02DA80124
:101D6000CE0188960995BE01675D7F4FCE018C5AE2
:101D70009F4F0E94631E6091BC037091BD03DB0105
:101D8000ED91FC910088F189E02DA801CE01C59666
:101D900009954AE06DA9CE01805A9F4F0E94901E7E
:101DA00061EA73E0CE01865A9F4F0E94001EBE0179
:101DB000605A7F4FCE01865A9F4F0E94281F61EEC6
:101DC00071E00E943B1FBE016C5A7F4F0E94281F8A
:101DD00061EE71E00E943B1FBE01625B7F4F0E947B
:101DE000281F61EE71E00E943B1FBE01685B7F4FC0
:101DF0000E94281F61EE71E00E943B1FBE016E5BD6
:101E00007F4F0E94281F6DEC72E00E943B1FBC01B7
:101E1000CE018A599F4F0E94631ECE01865A9F4F62
:101E20000E94921DCE01805A9F4F0E94921DCE01AA
:101E3000C6960E94921DCE018C5A9F4F0E94921D01
:101E4000CE0189960E94921DCE01825B9F4F0E9417
:101E5000921DCE014C960E94921DCE01885B9F4F31
:101E60000E94921DCE010F960E94921DCE018E5BA4
:101E70009F4F0E94921DCE0102960E94921DBE01AC
:101E80006A597F4FCE0101960E94631EBE016F5FAB
:101E90007F4F81ED93E00E94921CCE0101960E943B
:101EA000921DCE018A599F4F0E94921D0F5F1F4FB6
:101EB000FACE6CEC72E081ED93E00E94A01CFEC0B3
:101EC0008FEF89838FEF9FEF9B838A832FEF3FEF05
:101ED000AE014F5F5F4F6FEFCE010E960E94B903C8
:101EE000F8012481358141E050E0B801CE014B96E4
:101EF0000E94B51F40E050E06AE3CE014B960E947D
:101F0000991F6C0120E030E0E12CF12CAA24AA9466
:101F1000BA2CEFEFCE16DE0609F48BC02130310566
:101F200009F440C0ECF42115310509F06EC09601AA
:101F3000A701BE01655E7F4FCE0101960E94B51FCD
:101F4000CE0101960E94FA1F6E87CE0101960E9473
:101F5000921D7601FFEFEF1AFF0A21E030E055C035
:101F600022303105D1F12330310509F04EC0960100
:101F7000A701BE01655E7F4FCE0101960E94B51F8D
:101F8000CE0101960E94FA1F6E8BB88EAF8ACE01E9
:101F900001960E94921D7601BFEFEB1AFB0A24E026
:101FA00030E033C09601A701BE01655E7F4FCE01D0
:101FB00001960E94B51FBE016F5F7F4FCE010F9645
:101FC0000E944C1ECE0101960E94921D76018FEF59
:101FD000E81AF80A22E030E018C09601A701BE0115
:101FE000655E7F4FCE0101960E94B51FCE0101961E
:101FF0000E94FA1F6D8BCE0101960E94921D760100
:10200000AFEFEA1AFA0A23E030E0A7016AE3CE0153
:102010004B96AD962FAFAD97AE963FAFAE970E9461
:10202000991F6C01AE963FADAE97AD962FADAD97B3
:1020300070CFA7016BE3CE014B960E94991F9C01C4
:10204000A701BE01655E7F4FCE0101960E94B51FBC
:10205000CE0101960E94FA1F7A8F698FCE010196F8
:102060000E94921DBE01625F7F4FCE0101960E94C9
:10207000E603CE0101960E948905CE0102960E94D8
:10208000921D60E070E0CB010E94ED01B801CE012D
:1020900001960E94631EBE016F5F7F4F81ED93E04A
:1020A0000E94921CCE0101960E94921DCE014B9679
:1020B0000E94921DCE010F960E94921DC359DF4FC0
:1020C0000FB6F894DEBF0FBECDBFDF91CF911F9149
:1020D0000F91FF90EF90DF90CF90BF90AF90089559
:1020E00083B7816083BF40E050E069E870E080E042
:1020F0000E943B18E4E6F0E080818160808380816B
:10210000846080838081806280838081806480831A
:1021100080818068808383B7816083BF889583B71F
:102120008E7F83BF83B78E7F83BF80818F778083CD
:1021300080818F7B808380818F7D808380818B7F76
:10214000808380818E7F808380E00E945B186FECAB
:1021500072E081ED93E00E94AD1C60E570E080E0EC
:1021600090E00C942819CF93DF9300D01F92CDB745
:10217000DEB72FEF29832FEF3FEF3B832A83AE019A
:102180004F5F5F4F6FEF0E94B9030F900F900F905A
:10219000DF91CF910895EF92FF920F931F93CF930A
:1021A000DF9300D0CDB7DEB77C018FE090E069838C
:1021B0007A830E944C1C8C018FE0D8011D928A9575
:1021C000E9F7C8010E94B31069817A81C8010E94B1
:1021D0004B05F80116861586D70114968D919C91B2
:1021E0001597892B59F01696ED91FC911797168744
:1021F000058717961C930E93169705C0F701158354
:10220000048317830683D70112968D919C911397AF
:10221000019613969C938E9312971C961C9281E0C4
:102220000F900F90DF91CF911F910F91FF90EF9042
:102230000895EF92FF920F931F93CF93DF93CDB743
:10224000DEB72F970FB6F894DEBF0FBECDBF8C015F
:10225000DC0112968D919C911397892BA1F4ED913D
:10226000FC91E480F580CE0101960E94E603BE0158
:102270006F5F7F4FC801F7010995182FCE010296B5
:102280000E94921D26C08FE090E06E877F870E949B
:102290004C1C7C018FE0D7011D928A95E9F7C7019C
:1022A0000E94B310F80184819581D7011E969C93FA
:1022B0008E931D976E857F85C7010E944B05F8019F
:1022C000F582E482828193810196938382831486CE
:1022D00011E0812F2F960FB6F894DEBF0FBECDBF51
:1022E000DF91CF911F910F91FF90EF900895FC0126
:1022F000A481B5818485882341F0228533856217C6
:1023000073071CF0A085B1850BC020E030E008C049
:102310001097A1F011960D90BC91A02D2F5F3F4F0B
:1023200026173707ACF32617370741F481E0848777
:1023300033872287B187A087CD01089580E090E0A0
:1023400008950E947711009719F0FC01808108958B
:1023500080E00895FF920F931F93CF93DF93EC01DA
:102360006A817B81161617065CF51C866130710543
:10237000C9F0625071090E9477118C01FC018181C2
:102380009281FC01F0800E94501CF801128211829F
:102390001F830E832A813B81215031093B832A838D
:1023A0008F2D0FC08C819D81FC0110810E94501CDB
:1023B0001D821C821F821E821B821A82812F01C0F5
:1023C00080E0DF91CF911F910F91FF900895CF9200
:1023D000DF92EF92FF920F931F93CF93DF931F92A1
:1023E000CDB7DEB76C017B01DC0112968D919C911B
:1023F00013976817790734F0ED91FC910480F5810B
:10240000E02D09C06115710591F4D601ED91FC91A3
:102410000680F781E02D642FC6010F90DF91CF91E8
:102420001F910F91FF90EF90DF90CF90099483E080
:1024300090E049830E944C1C8C01FC0110821282A6
:102440001182B70161507109C6010E94771149815B
:10245000D8014C93FC012181328112963C932E933A
:10246000119712830183D60112968D919C91139737
:10247000019613969C938E9312971C961C9281E062
:102480000F90DF91CF911F910F91FF90EF90DF9010
:10249000CF900895CF93DF931F92CDB7DEB777FD2E
:1024A0000EC0FC01228133816217730744F4498313
:1024B0000E9477114981FC01408381E001C080E0E6
:1024C0000F90DF91CF9108951F93CF93DF93EC018D
:1024D00077FD39C08A819B8168177907A4F561155A
:1024E000710531F4E881F9810684F785E02D09C092
:1024F00001976817790751F4E881F9810484F5851B
:10250000E02DCE01DF91CF911F91099461507109A7
:10251000CE010E947711DC011196ED91FC9112978A
:1025200010812181328112963C932E931197CF0115
:102530000E94501C2A813B81215031093B832A8310
:102540001C86812F01C080E0DF91CF911F910895FB
:10255000FC01A481B5818485882341F022853385DF
:10256000621773071CF0A085B1850BC020E030E036
:1025700008C01097A1F013960D90BC91A02D2F5F6D
:102580003F4F26173707ACF32617370741F481E092
:10259000848733872287B187A087CD01089580E0A3
:1025A00090E00895CF93DF93EC01CB01BA010E9434
:1025B000A812009731F0FC0120812883818192814B
:1025C00004C08FEF88838FEF9FEF9A838983CE01BA
:1025D000DF91CF910895BF92CF92DF92EF92FF9259
:1025E0000F931F93CF93DF938C01EB016A817B8163
:1025F0001616170644F08FEFF80180838FEF9FEFD8
:102600009283818334C01C8661307105F1F0625081
:102610007109CE010E94A8127C01FC018381948182
:10262000FC01B080C180D2800E94501CF70114824E
:102630001382FF82EE828A819B8101979B838A832A
:10264000F801B082D282C18212C08C819D81FC01CE
:10265000D080E180F2800E94501C1D821C821F826B
:102660001E821B821A82F801D082F282E182C801A6
:10267000DF91CF911F910F91FF90EF90DF90CF905E
:10268000BF900895AF92BF92CF92DF92EF92FF92E8
:102690000F931F93CF93DF9300D01F92CDB7DEB778
:1026A0008C015B016A01DC0112968D919C9113975C
:1026B0006817790734F0ED91FC910480F581E02DE5
:1026C00009C061157105A9F4D801ED91FC9106804E
:1026D000F781E02DD6018C91898311968D919C9183
:1026E00012979B838A83BE016F5F7F4FC801099554
:1026F0002FC085E090E00E944C1C7C01FC011482FC
:1027000013828FEF80838FEF9FEF92838183B501D8
:1027100061507109C8010E94A812D6012D913D9106
:102720004C91F701208331834283DC0113962D9174
:102730003C911497348323831496FC92EE92139762
:10274000F80182819381019693838283148681E0CC
:102750000F900F900F90DF91CF911F910F91FF90ED
:10276000EF90DF90CF90BF90AF900895CF93DF931D
:10277000EA0177FD11C0FC012281338162177307E2
:102780005CF40E94A812288139814A81FC012083CF
:102790003183428381E001C080E0DF91CF910895D1
:1027A000DF92EF92FF920F931F93CF93DF938C01F1
:1027B000EB0157FD05C08A819B814817590754F0EA
:1027C0008FEFD8018C938FEF9FEF12969C938E938F
:1027D000119737C04115510531F4E881F98106841C
:1027E000F785E02D09C001974817590749F4E8819A
:1027F000F9810484F585E02DBE01C801099521C049
:10280000BA0161507109CE010E94A812DC01139631
:10281000ED91FC911497D080E180F2802381348186
:1028200014963C932E931397CF010E94501C8A81DB
:102830009B8101979B838A831C86F801D082F28258
:10284000E182C801DF91CF911F910F91FF90EF902E
:10285000DF900895FC01A481B5818485882341F02F
:1028600022853385621773071CF0A085B1850BC0E4
:1028700020E030E008C01097A1F01D960D90BC91AB
:10288000A02D2F5F3F4F26173707ACF326173707CA
:1028900041F481E0848733872287B187A087CD0107
:1028A000089580E090E008950F931F93CF93DF93F6
:1028B00000D01F92CDB7DEB78C01CB01BA010E94C8
:1028C0002A14009729F0BC01C8010E94E6030FC03A
:1028D0008FEF89838FEF9FEF9B838A832FEF3FEFEB
:1028E000AE014F5F5F4F6FEFC8010E94B903C8018F
:1028F0000F900F900F90DF91CF911F910F9108953E
:10290000AF92BF92CF92DF92EF92FF920F931F93FD
:10291000CF93DF93CDB7DEB72D970FB6F894DEBF18
:102920000FBECDBF7C018B01FB0162817381161646
:10293000170684F08FEF89838FEF9FEF9B838A8345
:102940002FEF3FEFAE014F5F5F4F6FEFC7010E9468
:10295000B90350C0F80114866130710531F162503D
:102960007109C8010E942A146C01FC0165857685F5
:10297000CE0101960E94E603F601A584B684A11457
:10298000B10439F0C50101960E94921DC5010E9453
:10299000501CF60116861586F801D782C682828100
:1029A00093810197938382831BC0F80164817581B1
:1029B000CE0101960E94E603F801C480D580C114BF
:1029C000D10439F0C60101960E94921DC6010E94F1
:1029D000501CF8011582148217821682138212820B
:1029E000BE016F5F7F4FC7010E94E603CE010296D2
:1029F0000E94921DC7012D960FB6F894DEBF0FBE40
:102A0000CDBFDF91CF911F910F91FF90EF90DF909D
:102A1000CF90BF90AF900895AF92BF92CF92DF92C8
:102A2000EF92FF920F931F93CF93DF93CDB7DEB753
:102A30002D970FB6F894DEBF0FBECDBF8C015B01A2
:102A40006A01DC0112968D919C91139768177907A2
:102A50002CF0ED91FC91E480F58008C061157105C2
:102A6000B1F4D801ED91FC91E680F780B601CE017A
:102A700001960E94E603BE016F5F7F4FC801F70118
:102A80000995182FCE0102960E94921D2AC08FE050
:102A900090E00E944C1C7C018FE0D7011D928A952A
:102AA000E9F7C7010E94B310B50161507109C8016F
:102AB0000E942A145C01B601C7010E944B05F50172
:102AC00085859685D7011E969C938E931D97F686D5
:102AD000E586F8018281938101969383828314862F
:102AE00011E0812F2D960FB6F894DEBF0FBECDBF3B
:102AF000DF91CF911F910F91FF90EF90DF90CF90DA
:102B0000BF90AF900895CF93DF93EA0177FD0DC09A
:102B1000FC0122813381621773073CF40E942A145E
:102B2000BE010E944B0581E001C080E0DF91CF91A2
:102B30000895AF92BF92CF92DF92EF92FF920F93E0
:102B40001F93CF93DF93CDB7DEB72D970FB6F894D1
:102B5000DEBF0FBECDBF7C018B0157FD08C0DB017E
:102B600012968D919C9113974817590784F08FEF17
:102B700089838FEF9FEF9B838A832FEF3FEFAE0117
:102B80004F5F5F4F6FEFC7010E94B9034DC0411502
:102B9000510539F4DB01ED91FC910684F785E02DB8
:102BA0000AC001974817590751F4DB01ED91FC91D8
:102BB0000484F585E02DB801C701099535C0BA0137
:102BC00061507109C8010E942A145C01FC01C5848E
:102BD000D684B601CE0101960E94E603D5011D966A
:102BE000ED91FC911E97858596851E969C938E93FC
:102BF0001D97C114D10439F0C60101960E94921D9F
:102C0000C6010E94501CF801828193810197938331
:102C100082831486BE016F5F7F4FC7010E94E60367
:102C2000CE0102960E94921DC7012D960FB6F89410
:102C3000DEBF0FBECDBFDF91CF911F910F91FF90EF
:102C4000EF90DF90CF90BF90AF9008956AE973E066
:102C500082EB93E00E94001E80910801909109018F
:102C6000A0910A01B0910B018093AB039093AC0348
:102C7000A093AD03B093AE03089582EB93E00C9460
:102C8000921D6AE973E082EB93E00E94781E6091E6
:102C9000B6037091B7036150710982EB93E00E9413
:102CA000741FFC0180818B3399F081ED93E00E94C9
:102CB000521A181619065CF781ED93E00E946B1A00
:102CC0008093B803682F82EB93E00E94151FDFCF3B
:102CD00008951F93CF93DF9300D000D000D0CDB7DD
:102CE000DEB766ED72E081ED93E00E94A01C81EDFD
:102CF00093E00E94A91C8091AF038823E1F0109219
:102D0000AF036FED72E081ED93E00E94A01C81EDB6
:102D100093E00E94A91C0E94411662EB73E0CE0171
:102D200001960E94631ECE0101960E94C10DCE0144
:102D300001960E94921D8091B003811105C080917F
:102D4000B103882309F46AC01092B1031092B00352
:102D500065E173E081ED93E00E94A01C81ED93E0BA
:102D60000E94A91C8091A9039091AA03892BD1F4F8
:102D700069EE72E081ED93E00E94A01C81ED93E08A
:102D80000E94A91C63E272E0CE0101960E94001E1F
:102D90006FEF7FEFCE0101960E942A0BCE010196C4
:102DA0000E94921D1091A80367EF72E081ED93E0FD
:102DB0000E94A01C4AE050E0612F81ED93E00E9448
:102DC000851D81ED93E00E94A91C8091A803E091EC
:102DD000A903F091AA0396E0899FE00DF11D11244B
:102DE00062817381848195810190F081E02D099544
:102DF0001091A8031F5F1093A80365EF72E081EDA7
:102E000093E00E94A01C612F70E0615071094AE0BC
:102E100050E081ED93E00E94581D50C060E073E0E7
:102E200081ED93E00E94A01C81ED93E00E94A91C1B
:102E30001092B1031092B0034091AB035091AC03D8
:102E40006091AD037091AE032AE030E081ED93E034
:102E50000E940E1D6EE273E081ED93E00E94A01CC3
:102E600081ED93E00E94A91C609106017091070119
:102E70004AE050E081ED93E00E94581D63E373E067
:102E800081ED93E00E94A01C81ED93E00E94A91CBB
:102E900064E670E080E090E00E94281981ED93E004
:102EA0000E94521A181619060CF581E08093AF03A0
:102EB0006FEF72E081ED93E00E94A01C81ED93E042
:102EC0000E94A91C6EE073E081ED93E00E94A01CBB
:102ED00081ED93E00E94A91C26960FB6F894DEBF00
:102EE0000FBECDBFDF91CF911F9108950E9470104A
:102EF00040E050E069E870E080E00E943B18D8CFE5
:102F00001F920F920FB60F9211242F933F934F935E
:102F10005F936F937F938F939F93AF93BF93EF9341
:102F2000FF93E091C603F091C7030995FF91EF91DC
:102F3000BF91AF919F918F917F916F915F914F91D1
:102F40003F912F910F900FBE0F901F901895FC018D
:102F5000A3E0440F551F661F771FAA95D1F74115AF
:102F6000510581E06807710514F481E00EC033E07B
:102F700075956795579547953A95D1F74115510540
:102F800081E0680771051CF482E0828331C023E090
:102F900075956795579547952A95D1F74115510530
:102FA00081E06807710514F483E0EFCF92E0759536
:102FB0006795579547959A95D1F74115510581E049
:102FC0006807710514F484E0E0CF82E07595679599
:102FD000579547958A95D1F785E08283411551052C
:102FE00081E06807710524F04FEF5FEF60E070E06B
:102FF0008FB78383F8945183408350938700409325
:10300000860083818FBF80918100887F80938100BB
:10301000809181009281892B809381000895109284
:10302000800020E1209381000C94A717E1E8F0E0F4
:103030002081DC0112968C91282B208308950F9318
:103040001F93CF93DF93EC018B01BA01A9011416F2
:1030500015061606170614F40E94A7171D830C8385
:1030600081E080936F00CE01DF91CF911F910F918E
:103070000C94161808958230E8F4E82FF0E0EE0F73
:10308000FF1FEE5EFE4F71836083813041F08091BF
:1030900069008C7F842B80936900E89A0895809161
:1030A0006900440F551F440F551F837F842B809365
:1030B0006900E99A0895823078F4813011F0E89837
:1030C00001C0E998E82FF0E0EE0FFF1FEE5EFE4F23
:1030D0008AE398E19183808308951F920F920FB63F
:1030E0000F9211242F933F934F935F936F937F938E
:1030F0008F939F93AF93BF93EF93FF93E091120150
:10310000F09113010995FF91EF91BF91AF919F91BC
:103110008F917F916F915F914F913F912F910F9080
:103120000FBE0F901F9018951F920F920FB60F921F
:1031300011242F933F934F935F936F937F938F93BC
:103140009F93AF93BF93EF93FF93E0911401F0919E
:1031500015010995FF91EF91BF91AF919F918F91CB
:103160007F916F915F914F913F912F910F900FBE83
:103170000F901F9018951F920F920FB60F92112467
:103180002F933F938F939F93AF93BF938091C903E6
:103190009091CA03A091CB03B091CC033091C803A6
:1031A00023E0230F2D3720F40196A11DB11D05C08A
:1031B00026E8230F0296A11DB11D2093C80380931A
:1031C000C9039093CA03A093CB03B093CC0380911F
:1031D000CD039091CE03A091CF03B091D00301967F
:1031E000A11DB11D8093CD039093CE03A093CF0377
:1031F000B093D003BF91AF919F918F913F912F9149
:103200000F900FBE0F901F9018953FB7F8948091C4
:10321000CD039091CE03A091CF03B091D00326B5FA
:10322000A89B05C02F3F19F00196A11DB11D3FBFFE
:103230006627782F892F9A2F620F711D811D911D8E
:1032400042E0660F771F881F991F4A95D1F70895AE
:103250008F929F92AF92BF92CF92DF92EF92FF92A6
:103260006B017C010E9405194B015C01C114D10462
:10327000E104F104F1F00E9405200E94051968198B
:1032800079098A099B09683E73408105910570F3AD
:1032900021E0C21AD108E108F10888EE880E83E027
:1032A000981EA11CB11CC114D104E104F10429F73A
:1032B000DDCFFF90EF90DF90CF90BF90AF909F90C9
:1032C0008F900895789484B5826084BD84B58160C0
:1032D00084BD85B5826085BD85B5816085BDEEE61E
:1032E000F0E0808181608083E1E8F0E010828081FD
:1032F00082608083808181608083E0E8F0E080816B
:1033000081608083E1EBF0E0808184608083E0EB8A
:10331000F0E0808181608083EAE7F0E08081846072
:1033200080838081826080838081816080838081CE
:10333000806880831092C10008958E3008F08E500E
:1033400087702091160190E4299F90011124822B0F
:1033500080937C0080917A00806480937A008091D1
:103360007A0086FDFCCF809178002091790090E072
:10337000922B0895833081F028F4813099F08230C7
:10338000A1F008958730A9F08830B9F08430D1F4E5
:10339000809180008F7D03C0809180008F77809323
:1033A0008000089584B58F7702C084B58F7D84BD79
:1033B00008958091B0008F7703C08091B0008F7D19
:1033C0008093B0000895CF93DF9390E0FC01E45820
:1033D000FF4F2491FC01E057FF4F8491882349F16E
:1033E00090E0880F991FFC01E255FF4FA591B49121
:1033F0008C559F4FFC01C591D4919FB7611108C0B6
:10340000F8948C91209582238C93888182230AC022
:10341000623051F4F8948C91322F309583238C9341
:103420008881822B888304C0F8948C91822B8C93A2
:103430009FBFDF91CF9108950F931F93CF93DF9399
:103440001F92CDB7DEB7282F30E0F901E859FF4FC2
:103450008491F901E458FF4F1491F901E057FF4FAF
:1034600004910023C9F0882321F069830E94BA19CE
:103470006981E02FF0E0EE0FFF1FEC55FF4FA591A3
:10348000B4919FB7F8948C91611103C0109581237A
:1034900001C0812B8C939FBF0F90DF91CF911F9123
:1034A0000F910895FC01818D228D90E0805C9F4FEB
:1034B000821B91098F7399270895FC01918D828D4C
:1034C000981731F0828DE80FF11D858D90E00895F9
:1034D0008FEF9FEF0895FC01918D828D981761F019
:1034E000828DDF01A80FB11D5D968C91928D9F5F3B
:1034F0009F73928F90E008958FEF9FEF08958FEE66
:103500009BE1892B49F080E090E0892B29F00E9413
:10351000EF1B81110C9400000895FC01848DDF01E4
:10352000A80FB11DA35ABF4F2C91848D90E0019636
:103530008F739927848FA689B7892C93A089B18925
:103540008C9180648C93938D848D981306C002882F
:10355000F389E02D80818F7D80830895CF93DF9361
:10356000EC01888D8823C9F0EA89FB89808185FD7B
:1035700005C0A889B9898C9186FD0FC00FB607FCDC
:10358000F5CF808185FFF2CFA889B9898C9185FF1D
:10359000EDCFCE010E948D1AE7CFDF91CF91089534
:1035A000CF92DF92FF920F931F93CF93DF931F92DF
:1035B000CDB7DEB76C0181E0D60158968C93589751
:1035C0005B969C915B975C968C915C97981307C077
:1035D0005096ED91FC915197808185FD2EC0F601AA
:1035E000038D10E00F5F1F4F0F731127F02EF601B0
:1035F000848DF81211C00FB607FCF9CFD601509692
:10360000ED91FC915197808185FFF1CFC6016983CF
:103610000E948D1A6981EBCF838DE80FF11DE35A6B
:10362000FF4F6083D6015B960C935B975296ED91AA
:10363000FC915397808180620CC0D6015696ED9123
:10364000FC91579760835096ED91FC915197808142
:103650008064808381E090E00F90DF91CF911F9193
:103660000F91FF90DF90CF900895BF92CF92DF929D
:10367000EF92FF92CF93DF93EC016A017B01B22EB0
:10368000E889F98982E08083411581EE5807610558
:103690007105A1F060E079E08DE390E0A70196016B
:1036A0000E9406202150310941095109569547953C
:1036B00037952795211580E1380798F0E889F98931
:1036C000108260E874E88EE190E0A70196010E9404
:1036D00006202150310941095109569547953795E2
:1036E0002795EC85FD853083EE85FF852083188E38
:1036F000EC89FD89B082EA89FB89808180618083C1
:10370000EA89FB89808188608083EA89FB898081DE
:1037100080688083EA89FB8980818F7D8083DF9147
:10372000CF91FF90EF90DF90CF90BF9008951F92C0
:103730000F920FB60F9211242F938F939F93EF93B5
:10374000FF93E091E103F091E2038081E091E703D0
:10375000F091E80382FD12C090818091EA038F5FAF
:103760008F732091EB03821751F0E091EA03F0E0B0
:10377000EF52FC4F958F8093EA0301C08081FF9147
:10378000EF919F918F912F910F900FBE0F901F90EF
:1037900018951F920F920FB60F9211242F933F93FB
:1037A0004F935F936F937F938F939F93AF93BF9349
:1037B000EF93FF9381ED93E00E948D1AFF91EF91BB
:1037C000BF91AF919F918F917F916F915F914F9139
:1037D0003F912F910F900FBE0F901F90189581ED84
:1037E00093E00E94521A21E0892B09F420E0822FF5
:1037F00008951092D4031092D30388EE93E0A0E0D2
:10380000B0E08093D5039093D603A093D703B093F1
:10381000D8038CE893E09093D2038093D10385EC96
:1038200090E09093DE038093DD0384EC90E090932E
:10383000E0038093DF0380EC90E09093E2038093B9
:10384000E10381EC90E09093E4038093E30382EC46
:1038500090E09093E6038093E50386EC90E09093EC
:10386000E8038093E7031092EA031092EB031092AF
:10387000EC031092ED03089508950E9462190E94CE
:103880003C1C0E942209CFE7DAE10E9469162097CA
:10389000E1F30E947F1AF9CF0C9450200C94502031
:1038A0000C94E8200C94E820CF92DF92EF92FF92E4
:1038B0000F931F93CF93DF937C016A01EB0100E02C
:1038C00010E00C151D0571F06991D701ED91FC9187
:1038D0000190F081E02DC7010995892B19F00F5F48
:1038E0001F4FEFCFC801DF91CF911F910F91FF9034
:1038F000EF90DF90CF9008956115710581F0DB01A5
:103900000D900020E9F7AD0141505109461B570BBE
:10391000DC01ED91FC910280F381E02D099480E0BF
:1039200090E00895DC01ED91FC91DB0114964D913E
:103930005C9115976D917C910280F381E02D099443
:103940000C947C1CDC01ED91FC910190F081E02D48
:10395000099468E973E00C947C1C0F931F93CF9338
:10396000DF93EC010E947C1C8C01CE010E94A91CFB
:10397000800F911FDF91CF911F910F9108958F922A
:103980009F92AF92BF92DF92EF92FF920F931F939D
:10399000CF93DF93CDB7DEB7A1970FB6F894DEBF14
:1039A0000FBECDBF7C01F42FD52ECB0119A2223042
:1039B00008F42AE08E010F5D1F4F822E912CA12C5E
:1039C000B12C6F2F7D2DA50194010E940620F22FAE
:1039D000D32ECA01015011096A3014F4E0E301C08A
:1039E000E7E3E60FD801EC93232B242B252B49F793
:1039F000B801C7010E947C1CA1960FB6F894DEBFE7
:103A00000FBECDBFDF91CF911F910F91FF90EF902F
:103A1000DF90BF90AF909F908F900895CF92DF92EC
:103A2000EF92FF920F931F93CF93DF93EC016A0104
:103A30007B012115310579F4E881F9810190F0814C
:103A4000E02D642FDF91CF911F910F91FF90EF90A8
:103A5000DF90CF9009942A303105E9F477FF1AC03E
:103A60006DE20E94A21C8C0144275527BA014C1913
:103A70005D096E097F092AE0CE010E94BF1C800FFC
:103A8000911FDF91CF911F910F91FF90EF90DF90E9
:103A9000CF9008952AE0B701A601CE01DF91CF9122
:103AA0001F910F91FF90EF90DF90CF900C94BF1C6F
:103AB0009A01AB01662757FD6095762F0C940E1D79
:103AC0000F931F93CF93DF93EC019A01AB0166270D
:103AD00057FD6095762F0E940E1D8C01CE010E942D
:103AE000A91C800F911FDF91CF911F910F91089515
:103AF0002115310541F4DC01ED91FC910190F0813B
:103B0000E02D642F09940C94BF1C9A01462F50E0BD
:103B100060E070E00C94781DFC014483558366835B
:103B200077830895FC01808191810C94E820CF93E4
:103B3000DF93EC0188819981009711F00E94E820C1
:103B4000198218821D821C821B821A82DF91CF91FA
:103B500008950F931F93CF93DF93EC018B016F5F59
:103B60007F4F888199810E947721009731F0998356
:103B700088831B830A8381E001C080E0DF91CF91BD
:103B80001F910F910895CF93DF93EC018881998164
:103B9000892B29F08A819B818617970760F4CE01D3
:103BA0000E94A91D882341F08C819D81892B19F4E5
:103BB000E881F981108281E0DF91CF910895EF9241
:103BC000FF920F931F93CF93DF93EC017B018A0148
:103BD000BA010E94C31D811104C0CE010E94971D2D
:103BE00007C01D830C83B701888199810E948522BB
:103BF000CE01DF91CF911F910F91FF90EF9008952B
:103C0000FC011182108213821282158214826115C6
:103C1000710559F0FB0101900020E9F7AF01415017
:103C20005109461B570B0C94DF1D08950F931F93EA
:103C3000CF93DF938C01EB01FC0180819181009790
:103C400099F0428153812C813D814217530750F0F6
:103C5000688179810E9485228C819D81F8019583FC
:103C6000848313C00E94E82088819981F8019183A0
:103C700080838A819B81938382838C819D819583BC
:103C80008483198218821B821A821D821C82DF9112
:103C9000CF911F910F910895CF93DF93EC01FB011A
:103CA0008617970761F0608171816115710529F0B0
:103CB000448155810E94DF1D02C00E94971DCE01E4
:103CC000DF91CF910895FC0111821082138212823C
:103CD000158214820C944C1ECF93DF93EC0186174F
:103CE000970711F00E94161ECE01DF91CF91089523
:103CF000CF93DF93EC016115710561F0FB01019039
:103D00000020E9F7AF0141505109461B570B0E94B3
:103D1000DF1D02C00E94971DCE01DF91CF91089553
:103D20000F931F93CF93DF93CDB7DEB729970FB6CD
:103D3000F894DEBF0FBECDBF8C01862FF801118233
:103D40001082138212821582148250E0BE016F5FCE
:103D50007F4F90E00E94B722BE016F5F7F4FC80186
:103D60000E94781E29960FB6F894DEBF0FBECDBF15
:103D7000DF91CF911F910F9108950F931F93CF93D0
:103D8000DF93CDB7DEB762970FB6F894DEBF0FBEF4
:103D9000CDBF8C01CB01F8011182108213821282F7
:103DA0001582148250E0BE016F5F7F4F0E948C220B
:103DB000BE016F5F7F4FC8010E94781E62960FB6EA
:103DC000F894DEBF0FBECDBFDF91CF911F910F9151
:103DD0000895EF92FF920F931F93CF93DF93EC011F
:103DE0007B010C811D816115710511F480E016C005
:103DF0004115510591F0040F151FB8010E94C31D14
:103E00008823A1F3288139818C819D81B701820F9C
:103E1000931F0E9485221D830C8381E0DF91CF9147
:103E20001F910F91FF90EF900895CF93DF9300D0F3
:103E3000CDB7DEB769831A8241E050E0BE016F5F03
:103E40007F4F0E94E91E0F900F90DF91CF91089550
:103E5000CF93DF93EC01FB01448155816081718137
:103E60000E94E91E811103C0CE010E94971DCE0160
:103E7000DF91CF910895CF93DF93EC016115710528
:103E800069F0FB0101900020E9F7AF0141505109B1
:103E9000461B570B0E94E91E811103C0CE010E94F0
:103EA000971DCE01DF91CF910895FC0124813581CA
:103EB000232B31F421E061157105A1F0FB0108C04D
:103EC000FC01808191816115710531F421E0FC01D3
:103ED0008081882339F005C00E947C2221E0892B53
:103EE00009F020E0822F0895FC01848195816817F4
:103EF000790720F480819181009729F410926E0453
:103F00008EE694E00895860F971F0895FC012481A2
:103F100035816217730748F480819181009729F0F9
:103F2000FC01E60FF71F8081089580E008950C944E
:103F3000861FCF93DF93FC01848195814817590731
:103F400078F4C081D181772767FD7095CE01840F09
:103F5000951F0E947122009719F08C1B9D0B02C0C7
:103F60008FEF9FEFDF91CF910895BF92CF92DF92B5
:103F7000EF92FF920F931F93CF93DF936C017B011E
:103F8000EA0189012417350720F48D2FE901042F58
:103F9000182F6AE973E0C6010E94001ED70114962B
:103FA0008D919C911597C817D907C8F48017910770
:103FB00008F48C01D701ED91FC911197E00FF11FEE
:103FC000B08010826D917C916C0F7D1FC6010E94A4
:103FD000781ED701ED91FC91E00FF11FB082C60170
:103FE000DF91CF911F910F91FF90EF90DF90CF90D5
:103FF000BF900895FC0180819181009711F00C948D
:10400000412260E070E0CB0108950895A1E21A2EEC
:10401000AA1BBB1BFD010DC0AA1FBB1FEE1FFF1F6C
:10402000A217B307E407F50720F0A21BB30BE40BBC
:10403000F50B661F771F881F991F1A9469F7609503
:104040007095809590959B01AC01BD01CF010895BD
:104050000E944120A59F900DB49F900DA49F800DBC
:10406000911D11240895B7FF0C9428200E94282048
:10407000821B930B0895EE0FFF1F0590F491E02D26
:104080000994A29FB001B39FC001A39F700D811D31
:104090001124911DB29F700D811D1124911D089551
:1040A000CF93DF938230910510F482E090E0E091AD
:1040B0007104F091720420E030E0A0E0B0E03097AD
:1040C00039F14081518148175907B8F0481759070D
:1040D00071F482819381109729F013969C938E93AB
:1040E00012972CC0909372048093710427C02115FD
:1040F000310531F04217530718F0A901DB0101C067
:10410000EF019A01BD01DF010280F381E02DD7CFDD
:1041100021153105F9F0281B390B2430310580F4C5
:104120008A819B816115710521F0FB019383828354
:1041300004C09093720480937104FE01329644C0CF
:10414000FE01E20FF31F81939193225031093983CD
:1041500028833AC020916F0430917004232B41F4DE
:1041600020910201309103013093700420936F0479
:1041700020910001309101012115310541F42DB745
:104180003EB74091040150910501241B350BE0918D
:104190006F04F0917004E217F307A0F42E1B3F0B9D
:1041A0002817390778F0AC014E5F5F4F24173507A9
:1041B00048F04E0F5F1F5093700440936F0481933B
:1041C000919302C0E0E0F0E0CF01DF91CF9108953C
:1041D000CF93DF93009709F487C0FC0132971382D5
:1041E0001282C0917104D0917204209781F42081D1
:1041F0003181280F391F80916F04909170048217CC
:10420000930779F5F0937004E0936F046DC0DE01BD
:1042100020E030E0AE17BF0750F412964D915C914C
:1042200013979D014115510509F1DA01F3CFB383CD
:10423000A28340815181840F951F8A179B0771F4D7
:104240008D919C911197840F951F02969183808385
:1042500012968D919C91139793838283211531053A
:1042600029F4F0937204E09371043EC0D9011396CF
:10427000FC93EE9312974D915D91A40FB51FEA1731
:10428000FB0779F480819181840F951F0296D901F3
:1042900011969C938E938281938113969C938E9317
:1042A0001297E0E0F0E08A819B81009719F0FE010F
:1042B000EC01F9CFCE01029628813981820F931F3C
:1042C00020916F04309170042817390769F43097F2
:1042D00029F4109272041092710402C013821282A7
:1042E000D0937004C0936F04DF91CF910895A0E044
:1042F000B0E0EDE7F1E20C940623EC01CB0120974E
:1043000019F40E945020B8C0FE01E60FF71F9E016D
:1043100022503109E217F30708F4ACC0D9010D911E
:104320001C91119706171707B8F00530110508F40E
:104330009FC0A801445051094617570708F498C078
:1043400002501109061B170B019311936D937C9377
:10435000CF010E94E8208CC05B01A01AB10A4E0177
:10436000800E911EA0917104B0917204612C712C89
:1043700060E070E0109709F449C0A815B905C9F5C7
:10438000ED90FC901197670142E0C40ED11CCA1455
:10439000DB0478F147018A189B08640142E0C40EEF
:1043A000D11C1296BC9012971396AC91B5E0CB1627
:1043B000D10440F0B282A38391828082D9018D938F
:1043C0009C9309C00E5F1F4F0E0D1F1DF901118335
:1043D0000083EB2DFA2F6115710531F0DB01139687
:1043E000FC93EE93129744C0F0937204E09371042F
:1043F0003FC06D917C9111976616770608F43B01DA
:10440000BD0112960D90BC91A02DB4CF60916F04A8
:104410007091700468157905E9F468167906D0F48E
:1044200040910001509101014115510541F44DB7F2
:104430005EB76091040170910501461B570BE417AC
:10444000F507C0F4F0937004E0936F04F9019183D1
:1044500080830EC00E9450207C01009759F0A80173
:10446000BE010E946822CE010E94E820C70104C05C
:10447000CE0102C080E090E0CDB7DEB7EEE00C9454
:1044800022231F93FC0199278827BC01E8941191EE
:104490001032E9F3193010F01E30C8F31B3251F01E
:1044A0001D3249F4689406C00E94A222610F711D5A
:1044B000811D911D119110531A30B0F33EF4909567
:1044C0008095709561957F4F8F4F9F4F1F910895F5
:1044D000FB01DC0102C001900D9241505040D8F721
:1044E0000895FC018191861721F08823D9F7992737
:1044F00008953197CF010895FB01DC018D91019062
:1045000080190110D9F3990B0895FB01DC0101908A
:104510000D920020E1F708954532510520F4423014
:1045200010F00C949722FB011082CB010895BB2759
:104530004A3031F4992322F4BDE2909581959F4F42
:104540000C94C322592F482F372F262F660F771F21
:10455000881F991F660F771F881F991F620F731F8F
:10456000841F951F660F771F881F991F0895453276
:10457000510520F4423010F00C94C222FB0110824D
:10458000CB010895BB27FB015527AA27880F991F48
:10459000AA1FA41710F0A41B83955051B9F7A05D72
:1045A000AA3308F0A95DA193009779F7B111B193EF
:1045B0001192CB010C94F222F999FECF92BD81BDEC
:1045C000F89A992780B50895262FF999FECF1FBA3A
:1045D00092BD81BD20BD0FB6F894FA9AF99A0FBE2C
:1045E00001960895DC01FC01672F71917723E1F7B3
:1045F000329704C07C916D9370836291AE17BF07B0
:10460000C8F308952F923F924F925F926F927F92DC
:104610008F929F92AF92BF92CF92DF92EF92FF92D2
:104620000F931F93CF93DF93CDB7DEB7CA1BDB0B7E
:104630000FB6F894DEBF0FBECDBF09942A88398823
:1046400048885F846E847D848C849B84AA84B9842A
:10465000C884DF80EE80FD800C811B81AA81B98136
:10466000CE0FD11D0FB6F894DEBF0FBECDBFED014A
:10467000089510E0CCEBD0E004C0FE010E943D2084
:0C4680002296CE3BD107C9F7F894FFCF7B
:10468C00000073048000080020000000FF0E0A05E3
:10469C0002003A183A180150756D704F6E00507543
:1046AC006D704F464600536C6565700073656320F2
:1046BC003D200074696D5F6379636C65203D20005B
:1046CC0052657365745363686564756C650020206E
:1046DC002053656E736F722E61736B28292056619F
:1046EC006C75653A20002020444556204D4F4445BA
:1046FC000056616C76654F6E0056616C76654F4660
:10470C004600496E697469616C69736174696F6E96
:10471C0020636F6D706C6574652E0053454E534F5E
:10472C005253204F4E002D2D20464C4F57455220B2
:10473C00232000203A2000202020506C616E742E23
:10474C0061736B28292041736B696E6720687967E8
:10475C00726F6D657465722E2E2E002D2D205753A1
:10476C00203A0053454E534F5253204F4646005467
:10477C00686520666C6F7765722000206E656564D5
:10478C0073207761746572696E670020646F65735E
:10479C00206E6F74206E6565642077617465726934
:1047AC006E670064656661756C740064656661753E
:1047BC006C74206D6F646500666C6F776572732026
:1047CC0073697A65203D20007363682073697A658C
:1047DC00203D200077617465725F706C616E7400AF
:1047EC0077617465725F706C616E74206D6F646557
:1047FC000044656C65746564204F4C442073636899
:10480C006564756C650077617465725F616C6C5F73
:10481C0069665F6E6565640077617465725F616C73
:10482C006C5F666F7263650077617465725F616C53
:10483C006C5F666F726365206D6F646500536368AF
:10484C006564756C65206275696C7400663B005715
:10485C00616B655570004E6577204C6F6F7000571B
:10486C00616B657570204558004E6F2073636865E9
:10487C0064756C65002F2053746570202320002F05
:10488C00536C6565702073656374696F6E002F20BF
:10489C004C6F6F700057616B6575702054494D45B6
:1048AC0052202F204E45585420535445500020730D
:1048BC006563002074696D6572206379636C6500B3
:1048CC0000000000CC00E7110A0187024A126412B2
:1048DC00AA11C802A1118D0000000000D0004213E3
:1048EC0046011803B613D013EB120702D212A5001F
:1048FC0000000000D4000C15CB101911831599156C
:10490C0080143F045414D80000000000D01A541C2A
:10491C00521A6B1A5D1AAE1A0D0A006E616E00699E
:08492C006E66006F7666000064
:00000001FF
